:020000040800F2
:1000000038230020A50100080B1700081102000882
:1000100009170008050B00083B2A00080000000033
:10002000000000000000000000000000511A00085D
:10003000810E00080000000019180008351B000898
:1000400033020008330200083302000833020008BC
:1000500033020008330200083302000833020008AC
:10006000330200083302000833020008330200089C
:10007000330200083302000833020008330200088C
:10008000330200083302000833020008330200087C
:10009000330200083302000833020008330200086C
:1000A000330200083302000833020008330200085C
:1000B000330200083302000833020008330200084C
:1000C000330200083302000833020008330200083C
:1000D00033020008330200083302000899200008A8
:1000E000330200083302000833020008330200081C
:1000F000330200083302000833020008330200080C
:1001000033020008330200083302000833020008FB
:1001100033020008330200083302000833020008EB
:1001200033020008330200083302000833020008DB
:1001300033020008330200083302000833020008CB
:1001400033020008330200083302000833020008BB
:10015000330200083302000833020008212300089C
:10016000330200083302000833020008330200089B
:10017000330200083302000833020008330200088B
:100180003302000833020008DEC0DEC000000200B7
:10019000DFF80CD000F0E2F800480047BD3100085D
:1001A0003823002023482449026891420DD1006081
:1001B00022484FF48041016021484FF00101016065
:1001C0002048D0F800D0406800471F4880471F48AB
:1001D00000471F491F480860FEE7704717484FF463
:1001E0008041016016484FF0010101601548D0F8C8
:1001F00000D04068004700004FF00050D0F800D019
:10020000406800471448D0F800D040680047FEE737
:100210001EF0040F0CBFEFF30880EFF3098002F02B
:100220003DBFFEE7FEE7FEE7FEE7FEE7FEE7FEE78F
:10023000FEE7FEE7FCFF0120EFBEEFBE44380240C0
:10024000003801400000FF1F491B00089101000811
:100250000CED00E00400FA050040000840EA01034C
:100260009B0703D009E008C9121F08C0042AFAD26C
:1002700003E011F8013B00F8013B521EF9D2704730
:10028000D2B201E000F8012B491EFBD270470022D8
:10029000F6E710B513460A4604461946FFF7F0FF85
:1002A000204610BD421C10F8011B0029FBD1801A0A
:1002B000704710B5002200E0521C835C8C5CA342A6
:1002C00001D1002BF8D1D8B2E1B2401A10BD30B53F
:1002D00004460020034600E05B1C934203D2E05C2E
:1002E000CD5C401BF8D030BD034611F8012B00F85F
:1002F000012B002AF9D1184670472DE9F05F054619
:10030000002092469B4688460646814640241BE0D4
:10031000284641464746224600F041F853465A4691
:10032000C01A914110D311461846224600F028F811
:100330002D1A67EB01084F4622460120002100F0EC
:100340001FF817EB00094E41201EA4F10104DFDC69
:10035000484631462A464346BDE8F09F064C074DC5
:1003600006E0E06840F0010394E807009847103485
:10037000AC42F6D3FFF710FFC0370008E0370008A3
:10038000202A04DB203A00FA02F100207047914055
:10039000C2F1200320FA03F3194390407047202A4A
:1003A00004DB203A21FA02F00021704721FA02F31F
:1003B000D040C2F120029140084319467047000026
:1003C0000F4A10B510684FF40031401C14D00D4B8B
:1003D000D2F88801984211D00B4B984201D1D2F843
:1003E0008C114FF0FF3000F08FFB38B107A000BF39
:1003F00002F078FF002010BD0AA0F9E7012010BD2F
:1004000000400008EFBEADDEDEC0DEC04170706CA3
:1004100069636174696F6E20436F72727570746581
:10042000640000004170706C69636174696F6E20D4
:100430004D697373696E67002DE9F041314D804657
:100440008AB02AA1686902F0B7FA002405F13406DF
:1004500010E00090404501D12A2300E0202304F160
:10046000410229A101A802F08BFB01A9686902F0F1
:10047000A3FA641C56F824000028EAD126A1686972
:1004800002F09AFA04F141076134686900F5866068
:1004900000F0DFFE0246412806D9BA4204DA06EB34
:1004A0008200A0F5827007E0612A07D9A24205DA2E
:1004B00006EB8200A0F5C270D0F80080002AE4D0DC
:1004C00017A101A802F05CFB01A9686902F074FAA7
:1004D000424615A101A802F053FB01A9686902F088
:1004E0006BFA0AB04046BDE8F081000042617564D5
:1004F00020526174652053656C656374696F6E0D7D
:100500000A00000000000020202025632025632031
:100510002536640D0A000000426175643E2000002B
:1005200025630D0A0000000053656C656374656403
:100530002025640D0A0000001FB501F0E7F86846A9
:1005400001F004FA01984FF47A71B0FBF1F1491E01
:100550004FF0FF35B1F1807F0AD24FF0E0246161A6
:100560000F21284601F038F90020A0610720206102
:100570002F4C2846217801F02FF900F031FFA06AB6
:1005800040F00100A0622B4801F08AFD2A4802F0E9
:1005900023F8284802F020F828A002F0E1FA264DBE
:1005A000A069583DE96A02F0C7F8B8B940F2E246DE
:1005B000E86AB700B04201D1394600E03146A0698F
:1005C00002F0BAF850B1E86AB04200D13E460120CC
:1005D000EE6268651848583800F02CFAA069D0F827
:1005E000400810B3606900F5866000F07AFE30B113
:1005F000606900F5866000F02CFE1B2815D01CA158
:10060000606902F0D9F995F8340040B10A49A0694F
:10061000243902F0D1F91AA1A06902F0CDF9D4E988
:10062000051002F079F830BFF9E700F02BF8000070
:1006300000000020580A00207801002053746172E5
:1006400074696E67204D6F64656D2E2E2050726543
:1006500073732045534320746F20627265616B2071
:10066000746F20636F6E736F6C650D0A000000007D
:100670004D6F64656D20436F6E736F6C650D0A007E
:100680000D0A000096B08F4F3E4600F071F9DFF87A
:100690003C82DFF834928E4C4FF0010B08F1340AA3
:1006A0008CA1606902F088F900E030BF606900F554
:1006B000866000F016FE0028F7D0606900F58660BD
:1006C00000F0C7FD054620385E2808D82A4682A1DA
:1006D00005A802F055FA05A9606902F06DF97FA13D
:1006E000606902F069F93F2D04D0452D05D0652DD4
:1006F00003D00EE000F03CF9D2E779A1606902F086
:100700005BF9384600F064FC78A1606902F054F9A6
:100710003E46582D06D0782D04D0442D07D0642DA8
:1007200005D010E03E46384602F00AFEB8E73246F1
:100730004FF48071104600F009FC714806F5807690
:10074000864200D13E46432D01D0632D0AD1606917
:1007500001F0D5FF4021484601F06CFE0028F9D099
:1007600000F0EAF9462D01D0662D11D165A160692E
:1007700002F022F9606901F0C2FF4021484601F011
:1007800059FE0028F9D0654963480860FFF721FD4C
:10079000492D01D0692D30D161A1606902F00CF9B9
:1007A0005146606902F008F960A1606902F004F93D
:1007B000606900F071FF0090FFF774FD1F2802DDF3
:1007C00000980021C17751460098FFF772FDA0B153
:1007D00050460099FFF788FD3C48C8F854B000F037
:1007E00029F956A1606902F0E7F85146606902F004
:1007F000E3F83AA1606902F0DFF8422D01D0622DE2
:100800003DD1D8F82800FFF717FE0090606901F08D
:1008100076FF60694021006801F00CFE0028F8D0E6
:1008200049A10DA8009A02F0ABF90DA9A06902F048
:10083000C3F8A06901F063FFA0694021006801F0DE
:10084000F9FD0028F8D001A801F080F8039900987C
:10085000B1FBF0F01C490831088004990098B1FB05
:10086000F0F03E490880D8F82820009940468A4296
:1008700005D081621548C8F854B000F0DBF85A2D55
:1008800001D07A2D0ED1D8F8300000F035FDD8F81F
:100890003010814206D0C8F854B0C8F830000B4878
:1008A00000F0C8F84D2D02D06D2D7FF425AF2CA19E
:1008B000606902F081F800BFD4E9051001F02CFF57
:1008C00030BFF9E700400008004800402001002048
:1008D00000000020424C3E00256300000D0A00008D
:1008E00045726173696E672E2E0D0A004572617341
:1008F0006520436F6D706C6574650D0A0000000023
:1009000000400208476F696E672044667553652E84
:100910002E2E0D0A00000000EFBEEFBEFCFF0120EE
:1009200043757272656E74205B0000005D0D0A4EA7
:10093000657720202020203A000000005570646177
:10094000746564203A00000041542B4950523D2503
:10095000643B2650303B2657300D0A0008140140F6
:100960004D6F64656D20436F6E736F6C650D0A008B
:1009700003480249406902F01FB800008C360008A5
:100980000000002010B504465821FFF780FC2046E7
:1009900000F006F810B9204600F04CF8204610BDD3
:1009A0002DE9F0411F4D204A00262968044600F138
:1009B0001007914224D16868012821D12A465C2180
:1009C000801E00F0A1F8E96D884219D11549204632
:1009D0000831FFF789FC134938461831FFF784FCCA
:1009E000286BA062686BE062A86B0E4920633C3103
:1009F00004F13400FFF778FC01206665BDE8F08162
:100A00000AA13846FFF770FC4FF4E130A06240F2D3
:100A1000E240C4E90B0684F83460012060650020E0
:100A2000ECE7000000800008425445453132333481
:100A30003536000030B599B0044660216846FFF7AE
:100A400026FC1948009001200190214602A8FFF7DA
:100A50004BFC04F1100106A8FFF746FCA06A0C90BD
:100A6000E06A0D90206B0E9004F134010FA8FFF79F
:100A70003BFC6A465C214FF0FF3000F045F80B4D1F
:100A80001790602269462846FFF721FC38B12846B6
:100A900000F09EFA6A466021284601F0CFFF002050
:100AA000606519B030BD0000425445450080000823
:100AB0002DE9F041104D0024A86806680F4FDFF8BB
:100AC00040802021384601F0B5FC38B1384601F0AD
:100AD0004BFD1B2802D1641C032C08DAA8680068AF
:100AE000811BD8F800008142EBD3032C02DB0120EC
:100AF000BDE8F0810020FBE7000000200048004036
:100B000078000020FEE7000010B50A4C0FE000BF9F
:100B100012F8013B434003F00F0054F8200080EA34
:100B2000131000F00F0354F8233083EA1010491E0D
:100B3000EED210BD4C3600082DE9F047002586B0F6
:100B40002C4600F065F90121080700F0CFFE0120D6
:100B500000F05CFE012000F06BFF012000F05AFF66
:100B600001A800F0F3FEDFF8288100F04BFF494FA9
:100B7000002042F2107944F6206607F1040A009042
:100B800004E00199B1FBF9F001F082F90098411CF1
:100B90000091B04206DA38688007F2D5DAF8000032
:100BA0008007EED5612000F013FF47F2315610B1F7
:100BB00000F016FD0546412000F00AFF4FF42477AF
:100BC00010B100F0B1FC044633A002F08BFB049896
:100BD00000900DF1040934A0B9E80E0001F0C0FF47
:100BE0002246294637A001F0BBFF00F00BFF20B1E1
:100BF000042804D0082805D111E036A000E038A070
:100C000002F070FB0199D8F80000814202D037A0B1
:100C100002F068FB212000F0DBFE10B104E03DA0F3
:100C2000EEE73FA002F05EFB312000F0D1FE10B9EC
:100C300043A002F057FB392000F0CAFE10B948A0CB
:100C400002F050FB612000F0C3FE10B94BA002F08F
:100C500049FBA5F58445683DB54202D34FA002F09B
:100C600041FB412000F0B4FE10B956A002F03AFB5F
:100C7000A4F5FC44B83CBC4202D95AA002F032FBB5
:100C800062490A2002F02CFB06B0BDE8F0870000A4
:100C90007800002070380240436C6F636B446961D8
:100CA000676E6F73746963005359533A2564204823
:100CB0003A25642C2050313A25642C2050323A25B4
:100CC000640D0A004C53493A25642C204C53453A94
:100CD00025640A0048534920536F7572636500000C
:100CE00048534520536F7572636500005741524E5B
:100CF000494E473A204E6F742072756E6E696E676A
:100D00002061742065787065637465642073706514
:100D100065640000504C4C20536F75726365000091
:100D20005741524E494E473A20485349204661693F
:100D30006C656420746F207374617274000000002D
:100D40005741524E494E473A204853452046616923
:100D50006C656420746F207374617274000000000D
:100D60005741524E494E473A20504C4C20466169FB
:100D70006C656420746F206C6F636B005741524E3A
:100D8000494E473A204C5349204661696C656420BE
:100D9000746F207374617274000000005741524EEA
:100DA000494E473A20504C4C2C20485345206F72F6
:100DB000204C5349206F7574206F662073706563F3
:100DC000000000005741524E494E473A204C5345CF
:100DD000204661696C656420746F2073746172745D
:100DE000000000005741524E494E473A20504C4CAB
:100DF0002C20485345206F72204C5345206F75744A
:100E0000206F6620737065630000000030000020D2
:100E10001CB50121084600F05DFD0121880300F0AA
:100E20007DFD4FF48070009003208DF805000220B6
:100E30008DF8040000208DF806008DF80700694643
:100E4000044800F005FB00214FF4001000F0F6FD0F
:100E50001CBD00000000024010B580EA0120002106
:100E600041F221024FF6FF73040403D582EA4000E9
:100E700080B201E003EA4000491C0829F4DB10BD00
:100E800070470000F0B5304C2E4B04EB10752D78F8
:100E90001D70C0F30365655D5D70C0F30355655D4E
:100EA0009D70C0F30345655DDD70C0F30335655D7E
:100EB0001D71C0F30325655D5D71C0F3031500F07E
:100EC0000F00655D9D71205CD871202018723A2555
:100ED0005D7298720B3300252D260FE0575D04EBF1
:100EE00017173F781F70575D07F00F07E75D5F70BA
:100EF0009B1C072D06D018705B1C6D1C8D42EDD31A
:100F00000C4606E01E70F7E7187058709870DB1CEE
:100F1000641C102CF8D300202E2509E0145CA4F1E9
:100F200020065E2E01D81C7000E01D705B1C401C6A
:100F30008842F3D30D2018700A2058700020987052
:100F40000048F0BD7C000020183600082DE9F04173
:100F500016460C460746DFF8308011E0102C01D908
:100F6000102500E02546324629463846FFF78AFF1D
:100F70000146D8F8140001F01FFD2E442F44641BD5
:100F8000002CEBD1BDE8F081000000201FB50E4C15
:100F9000E069002816D1684600F0D8FC0B4901989A
:100FA000B0FBF1F0E0622069016841F080710160FE
:100FB000A16800200860E068016841F0010101605B
:100FC0000120E0611FBD000000000020400D030073
:100FD00070B5054600F0C4F8F32000F063F800F0A7
:100FE000D1F80446082843D12348854202D1022182
:100FF00028203AE02148854202D10221302034E005
:101000001F48854202D1022138202EE01D4885422A
:1010100002D10221402028E01B48854202D1022152
:10102000482022E01948854202D1022150201CE0CC
:101030001748854202D10221582016E01548854202
:1010400002D10221082010E01348854202D102217A
:1010500010200AE01148854202D10221182004E044
:101060000F48854204D10221202000F021F80446D7
:1010700000F06EF8204670BD000002080000040871
:10108000000006080000080800000A0800000C081C
:1010900000000E08004000080080000800C00008A2
:1010A0000000010801490860704700000C3C024044
:1010B00070B50646002529B1012927D0022928D07C
:1010C0004FF4407500F05EF808281ED1124C2068DD
:1010D00020F440702060206828432060206820F0C1
:1010E000F8002060206846F0020108432060206874
:1010F00040F48030206000F045F8216821F00201C2
:101100002160216821F0F801216070BD4FF48075E5
:10111000D8E74FF40075D5E7103C02400B49082092
:101120000A68D20301D5012070470A68D20601D5AA
:10113000052070470A6812F0EF0F01D006207047B3
:1011400009688907FBD50720704700000C3C024066
:101150000248016841F0004101607047103C0240C4
:1011600005480068002805DA034804490C38016086
:101170000349016070470000103C024023016745AD
:10118000AB89EFCD08B508208DF80000FFF7C6FF4A
:101190008DF800009DF800000128F7D09DF80000B0
:1011A00008BD2DE9F04117460E46044600F099F8B7
:1011B000B04219D20020BDE8F081D4E901010D1A36
:1011C000B54200D9354604F10C0101442A4638469F
:1011D000FFF744F8606828446060A168884201D144
:1011E00000206060761B2F44002EE6D10120E2E74C
:1011F0002DE9F04188B00F46804600F072F80646AF
:10120000384600F01EF80546AE4212D3044613E0FD
:10121000202C00D320246A4621464046FFF7C1FF18
:101220006A462146384600F027F8361B2D1BAE4291
:1012300001D2344600E02C46002CE9D108B0BDE8CC
:10124000F08100B5034600F04CF89968081A401E7A
:1012500000BD00B5034600F044F800280BD05968E3
:1012600003F10C02481C5860895C9A68904201D1D5
:1012700000205860084600BD2DE9F04117460E4693
:101280000446FFF7DEFFB04219D20020BDE8F0812E
:10129000A16820680D1AB54200D9354604F10C0149
:1012A00008442A463946FEF7D9FF206828442060C2
:1012B000A168884201D100202060761B2F44002EB7
:1012C000E6D10120E2E710B5044640F20C41FEF7FA
:1012D000DEFF0020206060604FF48060A060204648
:1012E00010BDD0E900218A4201D3501A70478068AE
:1012F0001044401A7047000030B5284D044689B0AC
:101300001DA1686901F058FB0CB125A200E025A2DF
:1013100025A1684601F034FC6946686901F04CFB80
:1013200025A1686901F048FB686900F58660FFF750
:1013300090FF0246592801D0792A03D10CB100242C
:1013400000E00924002AEFD01FA1684601F018FC34
:101350006946686901F030FB0CB111A200E011A2EE
:101360001BA1684601F00CFC6946686901F024FB8A
:1013700009B0204630BD0000466C6F7720436F6E89
:1013800074726F6C2053656C656374696F6E20288E
:101390005253323332290D0A0000000000000020B1
:1013A0004F4E00004F46460043757272656E7420C2
:1013B0002025730D0A0000004368616E676520599F
:1013C0002F4E3F200000000025630D0A00000000A2
:1013D00053656C65637465642025730D0A00000015
:1013E0007CB50121142000F075FA00258DF8065017
:1013F00001248DF807404FF4E0408DF804400226A8
:1014000000908DF8056069460E4800F021F80E48FE
:101410008562806A01F07EFB8DF806408DF80750EA
:101420008DF804400A20094C00908DF8056069464B
:10143000204600F00DF8009881B2204600F070F8C8
:101440007CBD0000001002400000002000080240A7
:10145000F0B50023012403270D6804FA03F21540B8
:10146000954242D1D0F800C05E0007FA06F52CEA9A
:10147000050CC0F800C091F804C0D0F800E00CFAE8
:1014800006FC4CEA0E0CC0F800C091F804C0BCF198
:10149000010F02D0BCF1020F1FD1D0F808C02CEA16
:1014A000050CC0F808C091F805C0D0F808E00CFAA7
:1014B00006FC4CEA0E0CC0F808C0D0F804C02CEAB8
:1014C000020CC0F804C0426891F806C00CFA03FC94
:1014D0001FFA8CFC42EA0C024260C268AA43C26056
:1014E000CA79C568B2402A43C2605B1C102BB3D3D3
:1014F000F0BD4B07DB0E9A40C90810B500EB810028
:10150000016A0F249C40A1430162016A11430162F8
:1015100010BD0246002012690A4200D00120704727
:101520004183704701837047F0B500248BB0254696
:101530000121082000F0DAF9274E8021304600F022
:101540007BFC01220021304600F073FC0C200121BD
:10155000ADF81010ADF80C000027ADF81200ADF892
:101560000E70ADF8147003A9304600F00CFC012198
:10157000304600F04CFB18481030078001AF1021B6
:10158000304600F0F9FB90B1032C05D2304600F054
:10159000F1FB27F81400641C1021304600F034FBE6
:1015A000032CECD3BDF80800BDF80610451A032C37
:1015B000E5D1304600F036FB07A800F0C7F9074830
:1015C000006810F4E05F099804D00001B0FBF5F06A
:1015D0000BB0F0BDC000F9E7000C00400838024035
:1015E000F0B500248BB025460121082000F07EF9DB
:1015F000274E4021304600F01FFC012200213046DA
:1016000000F017FC0C200121ADF81010ADF80C0013
:101610000027ADF81200ADF80E70ADF8147003A9F4
:10162000304600F0B0FB0121304600F0F0FA1848D7
:101630001030078001AF1021304600F09DFB90B1C3
:10164000032C05D2304600F095FB27F81400641CEB
:101650001021304600F0D8FA032CECD3BDF8080076
:10166000BDF80610451A032CE5D1304600F0DAFA31
:1016700007A800F06BF90748006810F4E05F0998CC
:1016800004D00001B0FBF5F00BB0F0BDC000F9E7ED
:10169000000C004008380240F8B5184F002400F54F
:1016A000866600F124053046FFF7D3FD8DF8000073
:1016B0000A2811D00D2811D0082818D07F2816D05C
:1016C00040B1502C01DA3855641C6A460121284685
:1016D000FFF7D2FD30BFE6E70D28FBD108A20221BB
:1016E0002846FFF7C9FD002038550448F8BD002CF6
:1016F000F0D0641E03A20321E9E70000CC00002023
:101700000D0A000008200800FEE7704738B50021E8
:10171000114800F071F84FF4E06000F053F8002039
:101720008DF8010027218DF800108DF802000124AA
:101730008DF80340684600F013F847208DF800004C
:101740008DF8024002258DF80340684600F008F845
:101750000248057038BD00000000000800000020AD
:1017600070B50F21C478027801234FF0E026E4B170
:10177000124C246804F4E064C4F5E064C4F3072464
:10178000C4F10405E1404478AC4085780D40254320
:101790000B4C29011155007800F01F018B404009C6
:1017A00006EB8000C0F8003170BD02F01F008340DE
:1017B000500906EB8000C0F8803170BD0CED00E0F0
:1017C00000E400E002490843024908607047000055
:1017D0000000FA050CED00E00907090E002803DA05
:1017E00000F00F00024A00E0024A815470470000F6
:1017F00014ED00E000E400E0024A11400143024819
:101800000160704780FFFF1F08ED00E0014908629A
:101810007047000000000E427047000010B5042819
:1018200021D0202828D000284CD10121264800F0C2
:1018300027FF0121254800F023FF234801F0C9F8C4
:10184000224801F0C6F82148B0F8D80881B21F48F4
:10185000D0F8D408FFF75DFE1D4C0028A06A17D011
:1018600040F0020016E0184800F086FE00211648FD
:1018700000F006FF144807E0144800F07DFE002148
:10188000124800F0FDFE1148BDE8104001F0A1B87B
:1018900020F00200A0620D48B0F8B40881B20B48F5
:1018A000D0F8B008FFF735FE0028A06A02D040F05B
:1018B000040001E020F00400A062A06ABDE810402E
:1018C00001F028B910BD000078010020580A00205E
:1018D00000000020044A0029116801D0014300E003
:1018E000814311607047000030380240044A0029EB
:1018F000116801D0014300E081431160704700008E
:1019000040380240044A0029116801D0014300E038
:10191000814311607047000020380240044A0029CA
:10192000116801D0014300E081431160704700005D
:1019300044380240044A0029116801D0014300E004
:1019400081431160704700002438024030B51D4AC1
:1019500011681D4B11F00C0103D0042901D0082996
:1019600001D0036015E01749091F0C68C4F38055C6
:101970000C6804F03F04B3FBF4F30C680968C4F38B
:1019800088146343C1F30141491C4900B3FBF1F1E1
:10199000016011680F2303EA11110C4B5C5C0168B4
:1019A000E14041601468072505EA94241C5D21FA92
:1019B00004F48460126805EA52329A5CD140C16036
:1019C00030BD0000083802400024F4006800002008
:1019D00002460020510901290BD002290CD00849E8
:1019E000096802F01F02012393400B4200D001203E
:1019F000704703497439F3E70149091FF0E7000014
:101A0000743802400248006800F00C007047000083
:101A100008380240054900220A700A70012802D0E5
:101A2000042801D10520087070470000703802407A
:101A30000149086070470000800E4742034A13685E
:101A4000084323F0EC6318431060704708380240E5
:101A5000704700000CB500212A48019100910268EE
:101A600042F4803202604FF4A063026802F4003254
:101A70000092019A521C0192009A12B9019A9A425C
:101A8000F3D102689303204A03D5012100911F4935
:101A900005E003689B0733D5022100911C491160C2
:101AA00019493C310A6842F080520A6019490A68B3
:101AB00042F480420A601449091D0A680A600A68F3
:101AC00042F400420A600A6842F4A0520A600268C6
:101AD00042F08072026002689201FCD50E4A40F228
:101AE00005701060086820F003000860086840F086
:101AF000020008600868C0F381000228FAD10CBD1A
:101B000000910CBD003802400438024010544007D8
:101B10001054000700700040003C0240044B10B518
:101B20005A6830BF59688C1A8442FADB881A10BD93
:101B30000000002003480168491C01600020FFF7F5
:101B40006DBE000004000020124810B5016841F489
:101B5000700101601048016841F0010101600E4A06
:101B600000210832116002680C4B1A400260031D0C
:101B70000B4A1A60026822F48022026006480C3088
:101B80000160FFF767FF03494FF00060803908608C
:101B900010BD000088ED00E000380240FFFFF6FEB7
:101BA0001030002470B5048C24F001040484058BEB
:101BB000048C4FF6FF7606EA0313134325F0F30572
:101BC0002B4324F00A020A4342F0010103830184FB
:101BD00070BDF0B5048C24F010040484078B068CCF
:101BE0004FF6FF7404EA011527F4734704EA033142
:101BF000394304EA02220A4326F0A001294341F0B6
:101C0000100102830184F0BDC9430182704700299D
:101C1000018802D041F0010101E021F001010180C1
:101C200070470000464910B5884206D10121084698
:101C3000FFF780FE002101205BE0B0F1804F09D06A
:101C4000404988420DD101210220FFF75BFE0021AF
:101C5000022070E001210846FFF754FE0021012018
:101C600069E03949884206D101210420FFF74AFE84
:101C7000002104205FE03549884206D10121082077
:101C8000FFF740FE0021082055E03149884206D187
:101C900001211020FFF736FE002110204BE02D49D6
:101CA000884206D101212020FFF72CFE00212020B0
:101CB00041E02949884206D101210220FFF73AFE7E
:101CC0000021022015E02549884202D101210C049F
:101CD0000AE02349884202D101214C0404E0214951
:101CE00088420AD101218C042046FFF723FE0021FF
:101CF0002046BDE81040FFF71DBE1B49884206D1B3
:101D000001214020FFF7FEFD0021402013E017498C
:101D1000884206D101218020FFF7F4FD00218020B8
:101D200009E0134988420AD1841501212046FFF7B2
:101D3000E9FD00212046BDE81040FFF7E3BD10BDDE
:101D4000000001400004004000080040000C00407A
:101D50000010004000140040000401400040014019
:101D6000004401400048014000180040001C0040B1
:101D700000200040006C704702460020128A0A4290
:101D800000D0012070472DE9F0410D460E884988AA
:101D9000AA882B89044616B3042E28D0082E268C38
:101DA0004FF6FF702BD026F480562684A78B268C06
:101DB00000EA022200EA013127F473473A4300EABD
:101DC0000330104326F420420A4342F48051A0839A
:101DD0002184E9882046BDE8F04100F04CB8FFF7C7
:101DE000E1FEE9882046BDE8F04100F028B8FFF7A1
:101DF000F0FEE9882046BDE8F04100F028B826F45E
:101E000080762684A78B268C00EA012100EA031045
:101E1000104327F0F307384326F420620A4342F4C4
:101E20008071A0832184E9882046BDE8F04100F05C
:101E30001AB8018582827047A0F850107047028B53
:101E400022F00C020283028B0A4302837047028B4A
:101E500022F440620283028B4FF6FF7303EA0121F2
:101E60000A4302837047828B22F00C028283828BAA
:101E70000A4382837047828B22F440628283828B82
:101E80004FF6FF7303EA01210A4382837047000083
:101E9000034989680A680B689B1A8342FBD3704721
:101EA0000000002010B50849084800F054FD07481C
:101EB00006495838006B48600549064800F04BFD5C
:101EC00004490920486010BD004800407801002006
:101ED00000140140580A00202DE9F04F04468BB051
:101EE00001212A20FFF7F6FC01218804FFF7FEFC00
:101EF00000258DF806508DF8075001208DF804005C
:101F00001820604E4FF0020800908DF80580694659
:101F10003046FFF79DFA18213046FFF703FB5A4879
:101F200004F505610791091DC4F8500808910215D0
:101F3000C4F854280A2104F65C07C4F85818C4F8F9
:101F40005C083A1D069204F50669C6144FF00B0CA6
:101F5000A9E8401008324D4B099289E84810C4F8AE
:101F600074388214C4F878280C2304F6640B04F542
:101F7000076A04F6740604F67C090722C4F87C3864
:101F8000FFF7B7FABBF80000072281B23868FFF705
:101F9000B0FABAF80000099A81B210680722FFF778
:101FA000A8FAB9F80000072281B23068FFF7A1FA59
:101FB0008DF806508DF8075008998DF804808DF83B
:101FC000058008680799009008686946FFF740FA9D
:101FD000069A6946106800903868FFF739FA207948
:101FE000C00702D08DF8048001E08DF80450D4F8C9
:101FF0006C0800906946D4F86808FFF729FA207940
:10200000800702D58DF8048002E001208DF80400DD
:10201000D4F8780800906946D4F87408FFF718FAE5
:10202000009881B23068FFF77BFA1948806AADF8F2
:102030000C500290ADF80E50ADF81050606881075A
:102040000FD0C143890704D0800705D54FF48070B5
:1020500004E04FF4407001E04FF40070ADF814005C
:1020600001E0ADF814500C200A4CADF8120002A9A2
:10207000204600F01DFA0121204600F0D1F90BB0F6
:10208000BDE8F08F0014024000040240000C024042
:1020900020010020004800400420FFF7BFBB0000E3
:1020A0002DE9F04F044691B001215C20FFF712FCAE
:1020B00001212020FFF732FC04F6C80A934853465A
:1020C00008224FF0030CA3E8051004F6BC010A91A6
:1020D000C4F8BC0804F6CC09091D04F505640B918D
:1020E00004230221C4E91C31894B2366884E012355
:1020F0000025C4F88460C4E91935C4E922134021DD
:10210000C4E900010621A160A4F5056404F65C039E
:102110003146079304F65C0680234FF0070EA6E8CD
:10212000094004F66808CDF83880C4F868180F260E
:10213000C4F870681103C4F86C187549C4F87418B1
:10214000811404F6640704F5076804F6740BC4F8F8
:10215000781804F67C0634460C2121606D49C4E9E8
:102160000112C4F830E0C4E90A1383156262C4E9BD
:102170000713C4E903C1411561610921A161A4F6F6
:102180007C040621FFF7B5F93888079B81B2082245
:102190001868FFF7AEF9B8F80000DDF8388081B2B2
:1021A0000822D8F80000FFF7A4F93088082281B28D
:1021B000DBF80000FFF79DF90021204600F0B3F89E
:1021C0005548806A03900020ADF81000ADF8120069
:1021D000ADF81400606881070FD0C143890704D0AF
:1021E000800705D54FF4807004E04FF4407001E0A3
:1021F0004FF40070ADF8180001E0ADF818500C2055
:10220000ADF8160003A9454800F052F9204600F049
:10221000E3F98DF8075004F50B648DF804506068FD
:10222000009069462068FFF713F98DF807508DF884
:102230000450A06A00906946606AFFF709F9012618
:102240008DF806608DF807508DF80460206902272C
:1022500000908DF805706946E068FFF7F9F80B9873
:10226000008881B20A980068FFF75CF98DF8066073
:102270008DF80750DFF894808DF8046000978DF892
:10228000057069464046FFF7E3F8009881B2404682
:10229000FFF748F98DF806608DF807508DF8046057
:1022A000E06900908DF805706946A069FFF7D0F8E5
:1022B0003220FFF733FCB9F8000081B2DAF80000F1
:1022C000FFF72EF9FA20FFF729FCB9F8000081B2D8
:1022D000DAF80000FFF726F93220FFF71FFC8DF82F
:1022E00006608DF8075030208DF8046000908DF85E
:1022F000057069464046FFF7ABF8009881B240464A
:10230000FFF710F911B0BDE8F08F0000000802409F
:1023100000180240000C024020010020001401407F
:102320002020FFF77BBA2DE9FC4100258DF80750EE
:1023300000F508648DF8045060680F460090694607
:102340002068FFF785F8A06A00906946606AFFF789
:102350007FF8E0690090A069A4F508646946FFF77A
:1023600077F84FF0010802263FB18DF806508DF83E
:1023700007808DF804608DF80560D4F8540800904B
:102380006946D4F85008FFF763F8D4F86008009065
:102390006946D4F85C08FFF75BF83FB18DF806504A
:1023A0008DF807508DF804808DF80560D4F89008FA
:1023B00000906946D4F88C08FFF74AF86FB18DF8A1
:1023C00006508DF807502079800702D58DF80460FB
:1023D00001E08DF804808DF80560D4F8780800904D
:1023E0006946D4F87408FFF733F84FB18DF80750F9
:1023F0002079C00702D08DF8046001E08DF8045008
:10240000D4F86C0800906946D4F86808FFF720F803
:10241000BDE8FC810A0A01219140C943018070474F
:102420000029818902D041F4005101E021F40051DA
:10243000818170470246002012880A4200D00120A4
:10244000704730B501F01F0201240025C1F342138B
:1024500004FA02F2012B0FD0022B0FD0838A4FEA2D
:1024600011210088134204FA01F400EA040001D0AB
:1024700000B10125284630BD8389F0E7038AEEE7E5
:1024800010B5C1F3421301F01F040121A140012B3B
:1024900007D0022B07D01430002A026805D00A4367
:1024A00004E00C30F8E71030F6E78A43026010BD14
:1024B0007FB50446008A0D4620F44051E888084361
:1024C0002082A08941F20C618843A9882A8911439E
:1024D0006A8902431143A181A08A20F44071A8892E
:1024E0000843A0826846FFF731FA1D48844202D0B3
:1024F0001C48844201D1039800E00298A189090494
:10250000002900EBC00101EB0010296802DA4FEA54
:10251000410101E04FEA8101B0FBF1F26420B2FB1E
:10252000F0F14FEA01114FEA11136FF018056B43F8
:1025300002EB8302A3891D044FF0320306D503EB9F
:10254000C202B2FBF0F000F0070005E003EB02125C
:10255000B2FBF0F000F00F00084320817FBD0000C7
:1025600000100140001401408088C0F3080070474B
:10257000C1F3080181807047F8B5056804462888D2
:1025800004F5866616E0A9888DF80010000703D0D0
:102590002069401C20610CE0A0696A46401CA061D3
:1025A00001213046FEF768FE012802D06069401C18
:1025B0006061288810F02F0FE5D140F66A15294692
:1025C0002068FFF73EFF002805D029462068BDE8B7
:1025D000F840FFF71FBFF8BD10B504460068224958
:1025E000884202D1012110201EE02049884202D1F8
:1025F0000121480410E01E49884202D101218804CB
:102600000AE01C49884202D10121C80404E01A49A9
:10261000884204D101210805FFF768F906E017494F
:10262000884203D101212020FFF778F90121206899
:10263000FFF7F6FE0120A060012240F2277120681A
:10264000FFF71EFF012240F225512068FFF718FF17
:102650002079C00707D02068BDE81040012240F66D
:102660006A11FFF70DBF10BD00100140004400408B
:1026700000480040004C0040005000400014014061
:10268000F8B5056804460E462888010706D0A988D3
:102690008DF80010216901F10101216116B1A168D5
:1026A00000291FD100061DD504F124000346FEF7C2
:1026B00018FE40F22777B0B16A4601211846FEF7AE
:1026C00070FD9DF80000A880206A401C2062A06870
:1026D00008B1002E06D0012239462068FFF7D0FE4F
:1026E0000120A060F8BDA068012801D0002EF9D01B
:1026F000002239462068FFF7C3FE0020F1E710B53D
:1027000000F1240402E06420FFF708FA2046FEF7F7
:10271000E8FD0028F7D110BD70B50D46044600F065
:1027200006F821462846BDE87040AFF3008024310A
:1027300000F58660FEF75CBD2DE9F04106460024F9
:102740008846C6F840482146C0F84448FFF7EBFDEC
:10275000FA20FFF7E3F9304600F0ACF8434D18B12A
:10276000304600F08CF898B90121304600F0BEF8F0
:102770000121304600F0A5F80027FA20FFF7CEF936
:10278000A86A64F30000A862641C7F1C042FF4DBB9
:102790000021304600F095F800270A2198FBF1F857
:1027A0004046FFF7BBF9A86A64F30000A862641C06
:1027B0007F1C0A2FF4DB0121304600F082F83046FE
:1027C00000F078F800284FD00027304600F05EF87F
:1027D00050B9FA20FFF7A2F9A86A64F30000A862D2
:1027E000641C7F1C282FF0DB304600F04FF80028D7
:1027F0003AD06420FFF792F901213046FFF793FDAC
:102800006420FFF78BF90027304600F04CF850B1F8
:10281000FA20FFF783F9A86A64F30000A862641C39
:102820007F1C0C2FF0DB304600F03DF800281BD059
:102830000027304600F01CF801280AD0FA20FFF7E4
:102840006DF9A86A64F30000A862641C7F1C0C2F59
:10285000EFDB304600F00CF8002805D06868C6F8B9
:102860003C080120C6F84008BDE8F08100000020C7
:10287000B0F89C18D0F8980889B2FEF74ABEB0F8B4
:10288000C018D0F8BC0889B2FEF743BE10B50446A4
:1028900000F009F8002805D0204600F00BF80028C9
:1028A00000D0012010BDB0F8B418D0F8B00889B23B
:1028B000FEF72FBEB0F8CC18D0F8C80889B2FEF7E2
:1028C00028BE00F6BC00002905C891B201D0FEF771
:1028D00029BEFEF725BE00F67400002905C891B296
:1028E00001D0FEF71FBEFEF71BBE000070B5044608
:1028F000D0F8CC08D4F8C828002981B2104623D0DB
:10290000FEF710FE5FF00005B4F8CC0881B2D4F8F1
:10291000C808FEF7FEFD012805D06420FFF7FEF889
:102920006D1C0A2DF0DB0025B4F8CC0881B2D4F878
:10293000C808FEF7EEFD012805D06420FFF7EEF889
:102940006D1C0A2DF0DB70BDFEF7EAFDBDE870409E
:102950007D20FFF7E3B870B50D4604464FF40E61D5
:10296000FDF795FC04F124002560FEF7ACFC04F5AE
:102970008660FEF7A8FC204670BD2DE9F0411746A1
:102980000D4600F1240613E03046FEF75AFCA8423B
:1029900000D32846040008D001463A463046FEF7E8
:1029A0006BFC10B12D1B274402E00120FFF7B6F8A5
:1029B000002DE9D1BDE8F08170B505460C4608460A
:1029C000FDF770FC014622462846BDE87040FFF73F
:1029D000D4BF70B504460079C0070AD040F66A1526
:1029E00029462068FFF72DFD18B129462068FFF71A
:1029F00011FD207900071FD5E06930B904F5866024
:102A00000546FEF71EFC202804D2E068012813D0FA
:102A100001210BE0E06900280ED1E06800280BD00E
:102A20002846FEF75EFC202806D200212046E16001
:102A3000BDE87040FFF74FBF70BDFEE72DE9F047DE
:102A40000546006891460F460624401C06D02946DC
:102A500021A000F085F82046BDE8F087FEF780FB56
:102A6000F320FEF71FFBFEF78DFB064608282FD14B
:102A7000DFF88080D8F8001021F44071C8F8001009
:102A8000D8F8001041F40071C8F80010D8F8001010
:102A900041F00101C8F800102C462F4410E0611BE2
:102AA00059F80100411C0AD02060FEF76BFB064676
:102AB000082804D0214610A000F052F802E0241D9E
:102AC000A742ECD8D8F8001021F00101C8F8001096
:102AD000FEF73EFB3046BFE7466C617368206E6FC1
:102AE0007420626C616E6B20617420253038580A46
:102AF00000000000103C0240464C415348205772F1
:102B0000697465204661696C2061742025303858ED
:102B10000A00000070B50446104DC0074FF4805104
:102B2000284602D0FEF7FEFC01E0FEF7F9FCA00704
:102B30004FF40051284602D5FEF7F4FC01E0FEF701
:102B4000EFFC60074FF48041284603D5BDE8704094
:102B5000FEF7E8BCBDE87040FEF7E2BC00100240A2
:102B60000FB4054B10B503A9044A029800F02CF8E5
:102B700010BC5DF814FB00004D3000083000002050
:102B80000FB4084B10B504A902AA039800F01CF872
:102B9000044602A9002000F046FA204610BC5DF869
:102BA00014FB00002730000802E008C8121F08C10B
:102BB000002AFAD170477047002001E001C1121FBE
:102BC000002AFBD1704700002DE9FF4F8DB00F4662
:102BD00005460026DEE1252874D100246D1CF1494C
:102BE000A246A14601222B78203B02FA03F00842BC
:102BF00002D004436D1CF6E728782A2810D06FF025
:102C00002F022878A0F13001092915D80AEB8A0192
:102C100002EB410144F0020400EB010A6D1CF0E7F5
:102C200057F804ABBAF1000F03DA44F40054CAF1C8
:102C3000000A44F002046D1C28782E2817D115F8DC
:102C4000010F44F004042A280ED06FF02F022878D8
:102C5000A0F1300109290AD809EB890102EB4101F1
:102C600000EB01096D1CF2E757F8049B6D1C2878F6
:102C70006C280FD006DC4C2817D068280DD06A28A5
:102C800014D104E0742810D07A280FD10DE044F458
:102C900000140AE044F4801401E044F4401469781C
:102CA000814202D16D1C04F580146D1C2A786E2AB5
:102CB00020D00DDC632A33D005DC002A6FD0582ADF
:102CC00012D1A2E011E0642A6AD0692A0CD167E02F
:102CD000732A2FD004DC6F2A6FD0702A04D199E0B8
:102CE000752A6BD0782A6AD01046DDE90F1290471A
:102CF000761C4EE1C4F30250022806D003280AD005
:102D0000042801CF0AD0066043E101CF4FEAE67103
:102D1000C0E900613DE101CF06803AE1067038E18B
:102D200017F8040B8DF8000000208DF80100EB4629
:102D3000012003E057F804BB4FF0FF3061074FF06C
:102D4000000102D40DE008F10101884649450FDA7F
:102D50008045F8DB1BF808100029F4D108E008F1E1
:102D6000010188468142FADB1BF808100029F6D1E0
:102D7000DDE90F23AAEB08008146214600F03BF96C
:102D8000304400EB080604E0DDE90F121BF8010BEC
:102D90009047B8F10108F7D221464846F4E0FDE03B
:102DA0000A21C4F302534FF0000B0891022B07D005
:102DB00001CFC117032B09D00AE034E023E024E05F
:102DC000FF1D27F00707F7E8020105E000B2C11771
:102DD000042B01D140B2C117002907DA4FF0000CD3
:102DE000D0EB0C006CEB01012D2302E0230504D590
:102DF0002B238DF82430012303E0E30701D02023A7
:102E0000F7E7984650E00A210EE010204FF0000B43
:102E100008900CE010214FF0000B44F004044FF038
:102E20000809089103E008214FF0000B0891C4F352
:102E30000253022B04D001CF0021032B06D006E061
:102E4000FF1D27F00707F7E8020103E080B2042B1B
:102E500000D1C0B24FF00008230725D5702A2AD030
:102E6000DDF820C08CF0100C5CEA0B0C09D150EAA4
:102E7000010306D030238DF824308DF8252002235D
:102E80009846DDF820C08CF0080C5CEA0B0C0BD1E6
:102E900050EA010301D1630706D530238DF82430B1
:102EA0004FF00108A9F10109582A09D03EA20B925E
:102EB00008AA0A9211E040238DF824300123DFE7AD
:102EC0003EA2F4E75B46089AFDF717FA0B9B9B5C62
:102ED0000A9AA2F101020A92137050EA0102F1D19A
:102EE0000A98ADEB000000F1200B600702D524F436
:102EF000803401E04FF00109D94502DDA9EB0B0058
:102F000000E0002000EB0B0141440890AAEB010A0D
:102F1000E00306D4DDE90F232146504600F06BF8AC
:102F20000644002008E009A911F80900DDE90F12A4
:102F30009047761C09F1010081464045F3DBE00330
:102F40000CD5DDE90F232146504600F054F8064425
:102F500004E0DDE90F1230209047761C0899481EE6
:102F600008900029F5DC08E00A980A990078491CC5
:102F70000A91DDE90F129047761CBBF10001ABF11D
:102F8000010BF1DC21465046DDE90F2300F020F86B
:102F900006446D1C287800287FF41DAE11B0304621
:102FA000BDE8F08F0928010030313233343536372F
:102FB0003839616263646566000000003031323385
:102FC0003435363738394142434445460000000025
:102FD0002DE9F041044600251E461746880405D415
:102FE00006E039462020B04705F10105641EF8D5FA
:102FF0002846BDE8F0812DE9F041044600251E4633
:103000009046C80301D5302700E02027880405D565
:1030100006E041463846B04705F10105641EF8D583
:103020002846BDE8F0810A68531C0B601070704799
:1030300030B50446044D04E0686900F58660FEF78B
:1030400008F9641EF8D230BD0000002070B5114CA4
:10305000114E05460A2810D1206A0D280DD00D20EA
:10306000206280213046FFF7E5F90028F9D0208C56
:1030700081B23046FFF77CFA00E0256280213046BD
:10308000FFF7D8F90028F9D0A9B23046FFF770FA57
:10309000284670BD00000020004800401CB50446D2
:1030A00011A0FFF75DFDE068009094E80E0012A00B
:1030B000FFF756FDE069009010341AA00ECCFFF720
:1030C0004FFD2349096822480C380068CDE900010A
:1030D0001F4810380368001F02681D48001F016860
:1030E0001CA0FFF73DFDFEE75B486172642046616E
:1030F000756C745D0A0000007230203D2025303868
:10310000582C207231203D20253038582C20723226
:10311000203D20253038582C207233203D2025308A
:1031200038580A007231323D20253038582C206C36
:1031300072203D20253038582C207063203D2025FA
:103140003038582C207073723D20253038580A00D2
:103150003CED00E0626661723D253038582C2063FA
:103160006673723D253038582C20686673723D2591
:103170003038582C20646673723D253038582C2026
:10318000616673723D253038580A000038B50A4C24
:1031900002E00120FEF7C2FC606900F58660FEF7E0
:1031A000A0F80028F5D060696A4601212430FDF7B7
:1031B000F8FF9DF8000038BD00000020FDF7E6FE96
:1031C00020484FF4E131816240F2E241C1620921BD
:1031D0000163FDF7D7FBFEF765FE1A485830FEF78E
:1031E0007BFE19A21BA11E48FFF7BAFC1D481E4A10
:1031F000016802601D48814202D11D48FDF7E8FECA
:10320000FDF7DEF810B1FDF753FC20B119A0FFF770
:10321000A7FCFDF791F920A0FFF7A2FC244C402168
:103220002046FFF707F90028F9D000212046FFF7D4
:10323000F7F800214FF48020FEF758FBFCF7E2FF7F
:10324000FEE700002001002031343A35343A3533AE
:10325000000000004D6172202034203230313500F2
:1032600064370008FCFF01205555AAAA0100FECAD8
:10327000004000085374617274696E6720426F6F7A
:1032800074204C6F61646572204170706C69636179
:1032900074696F6E0A0000004170706C696361743C
:1032A000696F6E205374617274696E670A00000062
:1032B0000048004031B5094C02E00120FEF72EFC29
:1032C00060692430FDF7BDFF0028F6D060696A46CA
:1032D00001212430FDF7D0FF38BD000000000020A0
:1032E000FFF7B4BE10B5044601E0FFF7AFFE14F8D7
:1032F000010B04490028F8D1BDE810400A20FFF76F
:10330000A5BE00003000002038B503460B4C0FE08E
:10331000606900F58660FDF7E4FF48B160696A46C0
:10332000012100F58660FDF73CFF9DF8000038BDE7
:103330005B1EEDD24FF0FF3038BD000000000020D2
:103340002DE9F04F0446ADF2044D4FF0010984A081
:10335000FFF7C8FF05E082A0FFF7C4FFB9F1000F37
:1033600001D0432000E01520FFF7A4FF8448FFF7B9
:10337000CBFF012806D0022861D004287ED01B286C
:103380007DD0EBE77F4F3846FFF7BEFFC6B2411C4A
:1033900004D03846FFF7B8FFC14300E0F143C9B29B
:1033A0008E424AD1401C48D04FF00008C2464546E4
:1033B000BB465846FFF7A8FF0746401C0ED0FEB29A
:1033C0000DF8056058FA87F000F0FF0831465046C6
:1033D000FDF742FD6D1C8246802DEADB802D07D073
:1033E00069A0FFF77FFF3B463246294669A0A5E06A
:1033F000B9F1000F1AD05E465846FFF785FFC5B2F7
:10340000411C04D03046FFF77FFFC1B200E02946DF
:1034100001EB052189B28A450DD1401C0BD06A46CB
:1034200080212046FFF70AFB803458E0FFF7AEFE0C
:10343000C0B28045F3D0152052E05AA066E0514F4B
:103440003846FFF761FFC6B2411C04D03846FFF78B
:103450005BFFC14300E0F143C9B28E4272D1401C10
:1034600070D04FF00008C24645464FF4806B454887
:10347000FFF74AFF0746401C11D001E068E040E03A
:10348000FEB20DF8056058FA87F000F0FF083146EB
:103490005046FDF7E1FC6D1C82465D45E7DB5D456E
:1034A00045D1B9F1000F38D0364E3046FFF72CFF2A
:1034B000C5B2411C04D03046FFF726FFC1B200E080
:1034C000294601EB052189B28A451ED1401C1CD03A
:1034D0006A4659462046FFF7B1FA04F58064062093
:1034E000FFF7E8FE3348FFF70FFF411C2CD00128FF
:1034F0003FF448AF0228A2D0042829D01B287FF42B
:103500002AAF0DF2044DBDE8F08F2BA0FFF7EAFEC5
:1035100042F21070FFF78CFD8DE71A48FFF7F4FEBA
:10352000C1B2884501D1401CD2D126A0EEE728A027
:10353000FFF7D8FE3B463246294628A0FFF710FB8E
:1035400079E7FFE729A0E1E72CA0FFF7CBFE02E730
:103550002FA0FFF7C7FE0620FFF7ACFEFBE600003A
:1035600057616974696E6720666F7220584D4F44C9
:10357000454D207472616E736665722E2E000000D8
:10358000A0252600404B4C0054696D656F75742072
:103590003132380025336420253032582025640A22
:1035A000000000004261642048656164657220315A
:1035B0003238000080F0FA0242616420314B20432F
:1035C0005243000042616420314B2053756D00006E
:1035D00054696D656F757420314B0000253464208B
:1035E000253032582025640A000000004261642022
:1035F00048656164657220314B00000054696D6557
:103600006F7574204E657874205061636B6574002B
:10361000446F6E6500000000303132333435363788
:103620003839414243444546000000002110422001
:1036300063308440A550C660E770088129914AA193
:103640006BB18CC1ADD1CEE1EFF100000000000004
:103650006410B71DC8206E3BAC30D9269041DC7693
:10366000F4516B6B5861B24D3C7105502083B8ED3D
:1036700044930FF0E8A3D6D68CB361CBB0C2649B61
:10368000D4D2D38678E20AA01CF2BDBD426F6F741B
:10369000204C6F616465720D0A45202D20457261D2
:1036A0007365204170706C69636174696F6E204648
:1036B0006C6173680D0A58202D20584D6F64656D3C
:1036C00020446F776E6C6F61640D0A44202D204496
:1036D000756D70204D656D6F72790D0A42202D2039
:1036E00053656C6563742042617564205261746532
:1036F0000D0A5A202D2053656C65637420466C6F4B
:103700007720436F6E74726F6C0D0A49202D205321
:10371000657420496E697469616C20415420636F3F
:103720006D6D616E640D0A43202D20436C6F636BD9
:1037300020446961676E6F737469630D0A46202DBA
:1037400020466972652044667553650D0A4D202D2B
:10375000204D6F64656D20436F6E736F6C650D0A4D
:10376000000000000A0A0A4A616E75732052656DF6
:103770006F746520436F6D6D756E69636174696FF9
:103780006E73202D205445524D494E555320322002
:1037900052312053544D33324634202D20426F6F26
:1037A00074204C6F616465720A46573A2025732075
:1037B0002573202876322E352D45290A0A0000006F
:1037C000E0370008000000207C000000A82B000863
:1037D0005C3800087C000020BC220000B82B0008E8
:1037E0000000000000000000041000E0001000E0F5
:1037F000FCED00E078010020580A002000000000E5
:1038000000000000000000000000000000000000B8
:10381000000000002C010000B0040000600900005E
:10382000C012000080250000004B00000096000040
:1038300000E1000000C2010000840300000807004E
:1038400000100E0000000000000000000102030450
:0C3850000102030406070809007A030ABD
:04000005080001915D
:00000001FF
