:020000040802F0
:10000000D0200020A1010208E1080208DD08020852
:10001000DF08020855020208D12102080000000092
:10002000000000000000000000000000E50B0208D6
:100030009D0702080000000099090208B10C02089F
:10004000C5010208C5010208C5010208C501020870
:10005000C5010208C5010208C5010208C501020860
:10006000C5010208C5010208C5010208C501020850
:10007000C5010208C5010208C5010208C501020840
:10008000C5010208C5010208C5010208C501020830
:10009000C5010208C5010208C5010208C501020820
:1000A000C5010208C5010208C5010208C501020810
:1000B000C5010208C5010208C5010208C501020800
:1000C000C5010208C5010208C5010208C5010208F0
:1000D000C5010208C5010208C5010208110D020888
:1000E000C5010208C501020869090208C501020824
:1000F000C5010208C5010208C5010208C5010208C0
:10010000C5010208C5010208C5010208C5010208AF
:10011000C5010208C5010208C5010208C50102089F
:10012000C5010208C5010208C5010208C50102088F
:10013000C5010208C5010208C5010208C50102087F
:10014000C5010208C5010208C50102085D090208CF
:10015000C5010208C5010208C5010208C50102085F
:10016000C5010208C5010208C5010208C50102084F
:10017000C5010208C5010208C5010208C50102083F
:10018000C5010208C5010208EFBEADDEDFF80CD0E4
:1001900000F020F800480047DD230208D0200020AE
:1001A00009488047094800470948D0F800D040680E
:1001B0000047FEE7FEE7FEE7FEE7FEE7FEE7FEE7B5
:1001C000FEE7FEE7FEE70000B50C02088D0102081D
:1001D00000000208064C074D06E0E06840F001030D
:1001E00094E8070098471034AC42F6D3FFF7D2FFEB
:1001F0006C2602088C26020870B501EB020410F888
:10020000015B15F0070301D110F8013B2A1106D15B
:1002100010F8012B03E010F8016B01F8016B5B1E75
:10022000F9D12B0705D40023521E0FD401F8013B4E
:10023000FAE710F8013B02F10202A1EB030303E02D
:1002400013F8015B01F8015B521EF9D5A142D6D328
:10025000002070BDFEE710B50A460C0601F07F03D2
:1002600003EB830100EBC10102D501F58E7101E0C2
:1002700001F55D71D2090B704A7001F095FD002007
:1002800010BD0A4610B5090602F07F0306D503EB40
:10029000830100EBC10101F58E7105E002EB8201E3
:1002A00000EBC10101F55D7100248C700B70D20967
:1002B0004A7001F060FD002010BD70B50C460E06BE
:1002C00001F07F0505EB850100EBC10102D501F5C9
:1002D0008E7101E001F55D71E4090D704C708A606A
:1002E000CB7000D0CD80022B01D100220A7101F029
:1002F00019FD002070BD10B501F07F0404EB8401EE
:1003000000EBC10101F55D714B61CA6000238B6197
:100310004B700C70C378012B00D10A6114F0FF0FF1
:1003200003D001F073FD002010BD01F08DFCFAE751
:100330000069002261F30A120168114301607047ED
:100340000A4610B5090602F07F0306D503EB8301C8
:1003500000EBC10101F58E7105E002EB820100EBBB
:10036000C10101F55D7101248C700B70D2094A70D6
:1003700001F034FD002010BD70B511F07F0404EBD6
:10038000840100EBC10101F58E714FF001054D7044
:100390000C70CA600A614FF00002C1E9053203D057
:1003A00001F034FD002070BD01F04EFCFAE70000C2
:1003B0002DE9F0410646002501F04DFE074655E0C7
:1003C000F80751D03069EAB20369416BD14006EBBE
:1003D000820201F00101926943EAC11194680C4064
:1003E000E1071AD00124426B04FA05F18A43426303
:1003F00006EB8500806984601F48E9B200684268A6
:1004000030469047F078012807D135B996F81101A8
:10041000042802D1304601F073FC200704D506EB16
:100420008500082480698460E00604D506EB850019
:10043000102480698460600604D506EB85004024A2
:1004400080698460A00704D506EB850002248069DA
:100450008460200608D52946304600F062F906EB94
:1004600085018020896988606D1C7F08002FA7D1D5
:100470000120BDE8F08100002C0000202DE9F041B2
:100480000646002401F0EDFD0746DFF8988043E0C2
:10049000F8073FD0E1B2304601F0E9FD0546C0075C
:1004A00025D006EB84000125416D8D60F17801298E
:1004B0000CD1406D016904EB840006EBC000C1F370
:1004C0001201D0F87C23511AC0F88C13D8F8000020
:1004D000E1B2026830469047F078012807D134B97C
:1004E00096F81101052802D1304601F009FCA80751
:1004F00004D506EB84000225406D8560280709D5E8
:10050000D8F8000081683046884706EB840108204F
:10051000496D8860641C7F08002FB9D10120BDE8B7
:10052000F08100002C00002070B50646C06881698B
:1005300021F010018161F068056A05F00F0000EB01
:10054000800006EBC004C5F3434004F55D74072842
:1005500021D2DFE800F0202004202020150047F6FB
:10056000F070054217D0C5F30A152A463046E168F7
:1005700001F085FDE0682844E060A069284409E0B6
:10058000082206F2CC51304601F079FDA069C5F38E
:100590000A110844A061F068816941F0100181618D
:1005A000012070BD38B5044600208DF8000094F895
:1005B00012018DF8000015480068416920468847FF
:1005C00020698068E2684FF400615161A17AD1B17D
:1005D000C00718D094F81501012814D19DF8000027
:1005E000032810D1D4F80C01016841F00101016029
:1005F000D4F80C01016841F003010160044801686E
:1006000041F006010160012038BD00002C000020EF
:1006100010ED00E070B50446006900250126416830
:1006200021F0010141602946204601F0CDFC002067
:10063000FF2106E004EB800293699960526D91609E
:10064000401C62788242F5D821694FF0FF30886102
:100650002846216966F30F0066F31F40C8612169CF
:1006600045F00B004861216945F00B0008612069E5
:10067000016821F4FE610160204601F041FBE16860
:100680004FF480504861034800680169204688475C
:10069000012070BD2C00002070B5044601F000FD63
:1006A0000122002384F8122184F8143119464025D0
:1006B0000EE000BF01EB810004EBC00000F58E707E
:1006C00042700170C180C370C0E90253491C43618C
:1006D00060788842EED800210EE000BF01EB810077
:1006E00004EBC00202F55D7253701170D180D370BB
:1006F000C2E90253491C536160788842EED8204613
:1007000001F07CFA204601F075F90021204601F045
:1007100027FD204601F0AEF92046BDE8704001F00B
:100720002FBC2DE9F0470D46064601EB850006EB90
:10073000C00404F58E74D4E90501421AA068904201
:1007400000D20246D21C970806EB850917E0A0EB01
:100750000108A068404500D2804608F103008708E0
:100760001FFA88F3EAB23046E16801F01DFDE16846
:1007700001EB0800E060A16901EB0800A061D9F875
:100780001800806980B2B84205D9D4E905018142D8
:1007900001D20028DBD10120BDE8F08770470000BE
:1007A0000149086070470000143C0140F0B5002387
:1007B000012403270D6804FA03F21540954242D143
:1007C000D0F800C05E0007FA06F52CEA050CC0F868
:1007D00000C091F804C0D0F800E00CFA06FC4CEA26
:1007E0000E0CC0F800C091F804C0BCF1010F02D09B
:1007F000BCF1020F1FD1D0F808C02CEA050CC0F8DC
:1008000008C091F805C0D0F808E00CFA06FC4CEAE4
:100810000E0CC0F808C0D0F804C02CEA020CC0F8D6
:1008200004C0426891F806C00CFA03FC1FFA8CFC65
:1008300042EA0C024260C268AA43C260CA79C56833
:10084000B2402A43C2605B1C102BB3D3F0BD4B07F0
:10085000DB0E9A40C90810B500EB8100016A0F2435
:100860009C40A1430162016A1143016210BD0183F2
:1008700070470000F0B417490A78012A0AD0CA6804
:100880000025B2F5006F00D1CD60D1E902329A4265
:1008900002D10D70F0BC704702D9C2F5006301E0CF
:1008A000A3EB02031C460B61402B96B205D94023F3
:1008B0004032403CC1E9032403E02244C1E903255E
:1008C000A3B201220A7004498A19F0BC8121FFF702
:1008D00053BD0000B0000020CC080020FEE7FEE77A
:1008E0007047000070B50F21C478027801234FF0E3
:1008F000E026E4B1124C246804F4E064C4F5E0643A
:10090000C4F30724C4F10405E1404478AC40857881
:100910000D4025430B4C29011155007800F01F01B3
:100920008B40400906EB8000C0F8003170BD02F03A
:100930001F008340500906EB8000C0F8803170BD75
:100940000CED00E000E400E00249084302490860C1
:10095000704700000000FA050CED00E0014800F0CF
:100960006BBC000088010020094810B5807A48B1AE
:100970000848016821F00601016000F09BF9044875
:1009800001F003FCBDE810404FF48020FFF708BFE2
:100990008801002010ED00E070470000044A0029A3
:1009A000116801D0014300E08143116070470000ED
:1009B00030380240044A0029116801D0014300E0A8
:1009C000814311607047000034380240044A002916
:1009D000116801D0014300E08143116070470000BD
:1009E00040380240044A0029116801D0014300E068
:1009F00081431160704700004438024030B51D4A01
:100A000011681D4B11F00C0103D0042901D00829F5
:100A100001D0036015E01749091F0C68C4F3805525
:100A20000C6804F03F04B3FBF4F30C680968C4F3EA
:100A300088146343C1F30141491C4900B3FBF1F140
:100A4000016011680F2303EA11110C4B5C5C016813
:100A5000E14041601468072505EA94241C5D21FAF1
:100A600004F48460126805EA52329A5CD140C16095
:100A700030BD0000083802400024F4007801002056
:100A80002DE9FC478A4604463A493A480C3150F869
:100A9000240051F8241008430121FFF77FFF354857
:100AA00000260C384FF001090225ECB350F8240061
:100AB0000121FFF797FF2F482F4F3238025D801F2B
:100AC000015D57F82400FFF7C2FE2A4807F10C0821
:100AD0002F38025D801F015D58F82400FFF7B7FE34
:100AE00024488DF806608DF8079026388DF804505C
:100AF00030F8140000908DF8055057F8240069462E
:100B0000FFF754FE1B488DF804502038694630F832
:100B10001400009058F82400FFF748FEA7F10C05D8
:100B2000514655F8240000E008E000F053F955F86C
:100B30002400012100F006F9BDE8FC8700680121CE
:100B4000FFF744FF01212020FFF728FF8DF8066002
:100B50008DF807601820094F8DF8049000908DF8EB
:100B6000055069463846FFF721FE18213846FFF741
:100B70007EFEA0E754260208600100200014024017
:100B80001CB504460E48012150F82400FFF706FF6B
:100B90000B480021143830F81400009001208DF823
:100BA00004008DF806108DF8070002208DF805006E
:100BB0000448694650F82400FFF7F8FD1CBD00000A
:100BC0003C26020848010020044951F820104A69D7
:100BD000034B33F8100042404A617047480100203F
:100BE00028260208704700000CB500212A48019110
:100BF0000091026842F4803202604FF4A043026820
:100C000002F400320092019A521C0192009A12B929
:100C1000019A9A42F3D102689303204A03D5012135
:100C200000911F4905E003689B0733D5022100911D
:100C30001C49116019493C310A6842F080520A602F
:100C400019490A6842F440420A601449091D0A68B9
:100C50000A600A6842F400420A600A6842F4A0523C
:100C60000A60026842F08072026002689201FCD55C
:100C70000E4A40F205701060086820F0030008601A
:100C8000086840F0020008600868C0F3810002288C
:100C9000FAD10CBD00910CBD00380240043802406E
:100CA000105440071054000700700040003C024000
:100CB00070470000114810B5016841F470010160EF
:100CC0000F48016841F0010101600D4A002108321E
:100CD000116002680B4B1A400260031D0A4A1A6039
:100CE000026822F48022026005480C300160FFF7A0
:100CF0007BFF024905488039086010BD88ED00E09F
:100D000000380240FFFFF6FE103000240000020809
:100D100010B50B4C40F22551204600F024F818B1D4
:100D20000021084601F0F6FA0821204600F014F8E8
:100D3000002804D02046BDE8104000F0A7B810BD40
:100D4000004800400029818902D041F4005101E0AF
:100D500021F40051818170470246002012880A4226
:100D600000D00120704730B501F01F02012400259A
:100D7000C1F3421304FA02F2012B0FD0022B0FD061
:100D8000838A4FEA11210088134204FA01F400EA31
:100D9000040001D000B10125284630BD8389F0E769
:100DA000038AEEE710B5C1F3421301F01F040121DD
:100DB000A140012B07D0022B07D01430002A026873
:100DC00005D00A4304E00C30F8E71030F6E78A4318
:100DD000026010BD7FB50446008A0D4620F44051E4
:100DE000E88808432082A08941F20C618843A988E1
:100DF0002A8911436A8902431143A181A08A20F400
:100E00004071A8890843A0826846FFF7F7FD1D4896
:100E1000844202D01C48844201D1039800E0029829
:100E2000A1890904002900EBC00101EB0010296829
:100E300002DA4FEA410101E04FEA8101B0FBF1F231
:100E40006420B2FBF0F14FEA01114FEA11136FF089
:100E500018056B4302EB8302A3891D044FF0320394
:100E600006D503EBC202B2FBF0F000F0070005E08C
:100E700003EB0212B2FBF0F000F00F0008432081F8
:100E80007FBD000000100140001401408088C0F3C5
:100E900008007047C1F308018180704710B5D0F891
:100EA000E42552689047002010BD10B51346002479
:100EB0000A462146FFF71FFA204610BD10B513461B
:100EC00000240A462146FFF757FA204610BD10B508
:100ED00004468021FFF734FA00212046FFF730FA5C
:100EE0002046BDE8104000F00BBF10B5C0F89423B9
:100EF0000323C0F8902380F81131134600240A46DA
:100F00002146FFF7F8F9204610BD70B505460024CC
:100F1000052085F811012346224621462846FFF781
:100F2000EAF9284600F0ECFE204670BD10B5C0F886
:100F30003C210223C0F8382180F8113113460024E7
:100F40000A462146FFF718FA204610BD70B505463F
:100F50000024042085F81101234622462146284614
:100F6000FFF70AFA284600F0CBFE204670BD0000CD
:100F700070B5054641B1D5F8E40542698AB395F8E4
:100F80001201032846D047E095F81101002605F527
:100F90008E74022833D1E169A06881420FD9081A02
:100FA000E061E878012803D1D4E902100844E06048
:100FB000A08BE16882B22846FFF780FF1FE0216A1C
:100FC000B1FBF0F200FB121262B981420AD3606AEF
:100FD000814207D2002211462846FFF76FFF666262
:100FE0000DE016E0D5F8E405C16829B195F81201C5
:100FF000032801D1284688472846FFF786FF95F841
:101000001601012808D1054800682969486085F85B
:10101000166101E028469047002070BD3000002096
:1010200070B5054641B1D5F8E40582690AB395F873
:10103000120103282CD02DE095F8110105F55D74FF
:10104000032827D1E169A068814213D9081AE06119
:10105000E878012803D1D4E902100844E060E1698E
:10106000A068814200D2084682B22846E168FFF7B4
:101070001CFF0FE0D5F8E405016929B195F81201CC
:10108000032801D1284688472846FFF75FFF01E083
:1010900028469047002070BD10B50446D0F8E805FA
:1010A00040698047012084F81501002010BD10B56B
:1010B0000446D0F8E80580698047D4F8E4050021AB
:1010C000426820469047002084F8150110BD38B5CD
:1010D000044648880D46010A04295CD2DFE801F085
:1010E0005B021420D4F8EC15A0780A686946904792
:1010F0000146E888402803D094F81201012837D12E
:101100000820ADF8000037E0D4F8E415A0788A6A2A
:1011100069469047014602204870C4F8F01527E060
:10112000C0B2062837D2DFE800F003080D12171C02
:10113000D4F8EC15A0784A6817E0D4F8EC15A0783C
:101140008A6812E0D4F8EC15A078CA680DE0D4F8EB
:10115000EC15A0780A6908E0D4F8EC15A0784A6983
:1011600003E0D4F8EC15A0788A69694690470146F7
:10117000BDF8000000280DD0E88800280AD0BDF88E
:101180000020904200D91046ADF8000082B22046FF
:10119000FFF7CCFE38BD29462046FFF798FE38BD44
:1011A00070B5002300281DD00446002502E06D1C08
:1011B000EDB2641C2678002EF9D1022404EB45041C
:1011C0001480CC545B1C0322CA545B1C002406E030
:1011D000CA545B1CDAB2401C8C54521CD3B2027845
:1011E000002AF5D170BD2DE9F0411D46174688460D
:1011F0000446069E00F09AFBC4F8E45504F5BD656C
:10120000414685E8C0002046FFF746FA2868006896
:1012100080472046BDE8F04100F074BB10B5D0F81F
:10122000E415096A8847002010BD10B5D0F8E41510
:10123000496A8847002010BD2DE9F0470446002583
:1012400000F0FBFE00287DD0204600F0FFFE0600E7
:1012500079D0300303D52046FFF710F90546700317
:1012600003D52046FFF7A4F80543B0074FF0000A66
:1012700002D5E168022048614C4F4FF00109002E71
:1012800017DAA07A30B1D4F80C01D4F80C1120F0A0
:10129000030008602069416821F00101416038685D
:1012A000816920468847E1684FF00040486145F079
:1012B0000105300503D52046FFF774F905433007D3
:1012C00008D53868C16820468847E1680820486129
:1012D00045F00105F00603D52046FFF725F9054343
:1012E000F00403D52046FFF795F90543B0041AD55D
:1012F000204600F08BFCE068D0F80C80204600F01F
:1013000083FE032847D084F80290402128F47050CF
:10131000A18000F5A050E168C860E1684FF400507A
:10132000486145F00105F00209D53868C1692046D9
:101330008847E1684FF48010486145F00105B0022C
:101340000CD501E024E024E03868016A2046884793
:10135000E1684FF40010486145F00105700009D5BF
:101360003868416A20468847E1684FF0804048610C
:1013700045F0010570070BD5E0684668700703D596
:101380003868816A20468847E068466045F0010574
:101390002846BDE8F08784F802A04FF4007128F4D5
:1013A0007050A18000F51050B5E700002C0000201F
:1013B00090F8CC250A7090F8CD254A7090F8CE258B
:1013C00090F8CF3502EB03224A8090F8D02590F8B0
:1013D000D13502EB03228A8090F8D22590F8D335DC
:1013E00002EB032292B2CA800121C0F8402180F8AA
:1013F0001111704710B50023044640221946FEF72C
:101400005CFF0023402280212046FEF756FF01208A
:1014100084F81201D4F8E815A078496888470020BC
:1014200010BD10B50446D0F8E805006980470320D8
:1014300084F81201002010BD10B5D0F8E415C96978
:1014400001B18847002010BD10B50446D0F8E4056E
:10145000026820469047D4F8E8058068804700205D
:1014600010BD000070B50A461A4D897804462970EF
:10147000012905D894F81201022807D003280CD0BE
:101480002046BDE870401146FFF721BDA1B184F8A8
:101490001011032084F812010BE091B194F81001AF
:1014A000884209D001462046FFF7F8FC297884F8E5
:1014B00010112046FFF7C8FF2046BDE87040FFF737
:1014C00045BD022084F8120184F810112046FFF770
:1014D000E5FCF1E76800002010B5044648880122C9
:1014E00001280FD0022831D1888810F0FF0F2DD1AC
:1014F00021694968000A06281FD2DFE800F01E0BA8
:101500000F13171BC4F81821D4F8E405826820468D
:10151000904716E021F0700110310EE021F07001CB
:1015200020310AE021F07001303106E021F0700135
:10153000403102E021F0700150310548016084F82B
:1015400016212046BDE81040FFF700BD10BD000089
:10155000300000201CB504466946FFF729FF9DF8BE
:10156000001011F01F000AD001280DD0022810D061
:1015700001F080012046FEF7E3FE00201CBD694615
:10158000204600F00BF8F8E76946204600F0E8F83E
:10159000F3E76946204600F079F8EEE72DE9F041DF
:1015A0004A78002601250A2A42D2DFE802F03B559C
:1015B0004152410805412A27FFF789FD61E00446B1
:1015C0008888C8B9C888B8B9887800F07F0794F8C7
:1015D0001201032810D084F8147139462046FEF712
:1015E000A7FE2046FFF7B2FC1FB1022084F81201CB
:1015F00047E084F8125144E0204619E0FFF732FF3B
:101600003FE0CA88012A13D190F81221022A02D0A1
:10161000032A0DD102E001221B4917E0012200F547
:10162000887113E090F81221022A04D0032A02D014
:10163000FFF74DFC25E014490839CD60D0F818219A
:101640000AB10322CA6010490222091DFFF76EFC8D
:1016500017E0FFF741FF14E0044690F8120102285A
:1016600001D00328C8D1488801280AD10020C4F835
:101670001801D4F8E4058268204690472046FFF719
:1016800065FC3046BDE8F0817000002070B50D4665
:10169000044609796878002658B3012816D0032833
:1016A00031D194F8120102282FD0032827D168885D
:1016B00028B921B1802902D02046FEF741FED4F896
:1016C000E40529468268204690470EE094F812010E
:1016D00002281AD0032812D16888A0B929B180291C
:1016E00003D02046FEF7CDFDE9E72046FFF72EFCAC
:1016F00009E094F81201022807D003280DD02946EA
:101700002046FFF7E4FB304670BD0029FBD080295E
:10171000F9D02046FEF714FEF5E710480D064FF00D
:1017200000034FF0010208D501F07F0101EB8101B8
:1017300004EBC10191F81E1105E001EB810104EBFE
:10174000C10191F8761309B1426000E0436003499A
:101750000222091D2046FFF7E9FBD4E768000020BC
:1017600070B5054690F8120100260C4603280DD1ED
:10177000207901280AD8D5F8E405826828469047E0
:10178000E08830B92846FFF7E1FB02E02846FFF782
:101790009EFB304670BD10B500F589700178417030
:1017A00004210170D0F8D604C0688047002010BD25
:1017B00010B50A46024903A0FFF7F2FC004810BD2D
:1017C0007C07002056435020436F6E666967000017
:1017D000704770471220088000487047540000206E
:1017E000704770477047704710B50020FFF7C8F981
:1017F0000120FFF7C5F9BDE810400220FFF7C0B98E
:1018000010B50A46024903A0FFF7CAFC004810BD04
:101810007C07002056435020496E746572666163F0
:101820006500000004200880004870475000002038
:1018300010B50A46024903A0FFF7B2FC004810BDEC
:101840007C07002053544D6963726F656C65637447
:10185000726F6E69637300000A4610B5044928B1BF
:1018600004A000BFFFF79CFC014810BD0AA0F9E7E7
:101870007C07002053544D333220566972747561D1
:101880006C20436F6D506F727420696E2046532038
:101890004D6F64650000000053544D33322056698B
:1018A000727475616C20436F6D506F727420696E35
:1018B000204853206D6F6465000000000A4610B593
:1018C000044928B104A000BFFFF76AFC014810BD1D
:1018D00005A0F9E77C070020303030303030303060
:1018E00030353043000000003030303030303030A0
:1018F0003035304200000000432008800048704727
:10190000D800002008B54FF4C060FFF71DF8432051
:101910008DF8000001208DF8010003218DF80210E0
:101920008DF803006846FEF7DDFF08BD2DE9FC4198
:1019300001210846FFF732F84FF4C8500325009004
:101940008DF8055002208DF804000024204F8DF8FA
:1019500006408DF8074069463846FEF727FF0A2201
:1019600008213846FEF773FF0A220B213846FEF79E
:101970006EFF0A220C213846FEF769FF8DF80550EC
:1019800078158DF80440012600908DF806608DF8DA
:10199000074069463846FEF709FFB0028DF8066039
:1019A00000908DF807608DF8055069463846FEF7BF
:1019B000FDFE0A2211463846FEF749FF0121880341
:1019C000FFF710F801218020FEF7F4FFBDE8FC814D
:1019D000000002404FF47A714843AFF30080C0EB3F
:1019E00000100021C0000722B0FBF2F0491C814228
:1019F000FCD9704770B50446017A0025C0680129FA
:101A000015D0C16841F04001C160204600F0CAF81D
:101A1000617A4FF4502009B14FF4E810E16888630F
:101A20001420FFF7D7FFE078012819D020E0816B60
:101A3000627A21F480310AB141F480118163E06857
:101A4000C16821F0401121F42021C160204600F03E
:101A5000A9F8E07801280BD1E1682A208860E2E744
:101A6000E068816821F01E010A3141F020018160A7
:101A7000284670BD2DE9F04104460027D0F80C013E
:101A80003E46354607602069016821F4C051016077
:101A9000E07A012829D10321204600F0C8FAE06845
:101AA0008022426220212846E36861F31F4062F3EE
:101AB0000F00986200EB104060F30F05E06862F3DE
:101AC0001F45C0F8045105EB154060F30F05E068B1
:101AD00061F31F45C0F8085105EB154060F30F0591
:101AE000E06866F31F45C0F80C511021204600F055
:101AF0006BFA204600F04CFA2069066120694661C5
:101B000021694FF0FF3088612069C66100214FF0E4
:101B10009040FF2312E000BF04EB8105D5F818C008
:101B2000DCF80020002A01DA024600E03246CCF858
:101B30000020AA691661AA699360491C62788A42EA
:101B4000EAD8002212E000BF04EB8205D5F854C0A9
:101B5000DCF80010002901DA014600E03146CCF83B
:101B60000010696D0E61696D8B60521C6178914245
:101B7000EAD82069016941F480710161E0780128A7
:101B800009D10320402161F38A0040F4803061F3E1
:101B9000594021690863204600F0CAF93846BDE87B
:101BA000F0810000F8B5002704463E460097124D2C
:101BB0000320FFF714FFE06800690090761CAE4236
:101BC00001D90020F8BD00980028F1DA0099002022
:101BD00041F0010100910099E2681161E1680A6930
:101BE0000092401CA84202D8009AD207F7D10320E5
:101BF000FFF7F5FE3846F8BD400D0300C068002130
:101C0000826822F0010282600846704710B50169BF
:101C100000238C6882691168C4F341042CB1012C43
:101C200003D0022C04D0032C05D16FF30A0102E08B
:101C30006FF30A01C91C11600069416841F48071A9
:101C40004160184610BD0000F0B54A7800254C6987
:101C5000012A15D00A7800EB82035A6D16681269C2
:101C6000DCB38C68C1F8144064F306025B6D22F4A7
:101C7000C01202F500221A61C278012A30D035E084
:101C800083691F681A6934B18E68B44206D966F355
:101C900006024E6104E022F07F0201E064F30602D6
:101CA00022F4C01202F500221A61C278012A05D17D
:101CB0000C780A6900EB8404A469626147F004426D
:101CC0001A60C278CAB94A69BAB10A7800690121B2
:101CD0009140426B0A4342630FE0FFE70C7AC3E78F
:101CE0000B780A6900EB83035B6D5A61097846F053
:101CF000044200EB8100406D02602846F0BD000008
:101D0000426D07491161C178012908D1426D00F285
:101D1000CC515161406D01684FF0802101607047E6
:101D2000180008C0F0B50E7800254F780122B240A7
:101D30002B4600EB8604012F19D0646D62F31F431C
:101D4000226816040DD40E8966F30A02CE788979CA
:101D500066F3934261F3995242F0805141F400419D
:101D600021600069C1691943C1612846F0BDA469B9
:101D700062F30F03E4E710B502464C780B780020BD
:101D800002EB8302012C09D0526D1368C97823F449
:101D90000013032904D0022902D003E09269F4E77A
:101DA00043F08053136010BD30B50C7803464D7876
:101DB00001220020A24003EB8401012D09D04C6DCB
:101DC000014662F31F4120601A69D3698B43D361D6
:101DD00030BD8C69014662F30F01F4E702464B788F
:101DE0000978002002EB8101012B05D0496D0A68BA
:101DF00042F400120A6070478A691168002901DA0A
:101E000041F0804141F4001111607047F0B54B780A
:101E10000A78002401264F6900EB8202012B15D0BD
:101E2000556D2B682A69002F62D08E6837447F1E5B
:101E3000B7FBF6F767F3DC42C2F3C947774367F3B2
:101E400012022A61C278012A58D05DE095692B6898
:101E50002A696FB1D1F808C067F3120267447F1E88
:101E6000B7FBFCF767F3DC42CF78012F05D008E021
:101E70006FF3120266F3DC4203E022F0C04202F18B
:101E800000522A61C278012A0ED0CA78012A12D0E3
:101E90004A69C2B10A7896400269556B3543556369
:101EA000CA78012A07D00EE00D780A6900EB850593
:101EB000AD696A61F4E702699268C2F30D22D20744
:101EC0000CD043F0805343F004420B7800EB8303C3
:101ED0009B691A60CA78012A03D026E043F00053B8
:101EE000F1E78A8A93B20A78C96800F05DF91CE0CC
:101EF0008F6867F3120266F3DC42A2E70D780A6985
:101F000000EB85056D6D6A61CA78012A06D14A79B0
:101F100012B143F0005301E043F08053097843F0DD
:101F2000044200EB8100406D02602046F0BD0000DD
:101F300030B5C368002211469A61C4686FF08043CF
:101F40006361C568541E6C60C4686361C4680B4BF0
:101F5000A361C37803B9102141F48721C06841F01F
:101F6000081141F4401141F08041836941F00401BE
:101F70008B430B438361104630BD00000008008096
:101F8000C0680021826842F0010282600846704702
:101F900038B5002421460094009A42F010020092C5
:101FA000009AC3681A61074AC06803690093491C14
:101FB000914202D8009BDB06F7D40320FFF70FFD08
:101FC000204638BD400D030038B500242246009459
:101FD000009B43F020030093009B61F38A1300935E
:101FE0000099C36819610749C06803690093521CCE
:101FF0008A4202D8009B9B06F7D40320FFF7EFFC30
:10200000204638BD400D030001460020096989685B
:10201000C1F3410139B1012903D0022905D00329B7
:1020200000D10220704703207047012070470269E9
:10203000106861F3010010607047C068406910F0DB
:10204000010F01D00020704701207047C06841692E
:1020500080690840704700698169C069084080B2A2
:10206000704700698169C0690840000C704700EB47
:102070008101496D896800694069084070470346DD
:1020800010B50020D21C9208D3F8D03003E01C68B1
:1020900041F8044B401C9042F9D3084610BD0000A3
:1020A00070B500220125C270402685701446134683
:1020B0008680012901D061B114E0C5720821017048
:1020C00004214FF0A04241709115C180022101729C
:1020D00008E0C3720C210170062141701F4A4FF4C1
:1020E000A061C18002F50061C0E9032100210AE07E
:1020F00002EB411303F5106600EB810503F5306335
:10210000AE61491C6B6543788B42F1D802F5806162
:1021100041614031C0F8CC10002108E002EB4113CE
:1021200000EB810503F5A063491CC5F890300378E6
:102130008B42F3D8002108E002EB013300EB81056C
:1021400003F58053491CC5F8D03003788B42F3D88F
:1021500002F56062C0F80C21204670BD000004400A
:1021600010B5C0680024C268012922F0C04201D025
:1021700019B104E042F0005201E042F08042C26036
:102180003220FFF727FC204610BD817A00290AD0B3
:1021900001698968C90706D0D0F80C11D0F80C0184
:1021A00021F003010160704730B5C47800256CB997
:1021B00000EB82000024DB1C9B08D0F8D00003E079
:1021C00051F8042B0260641C9C42F9D3284630BDB0
:1021D000FEE7000070B50C2327494FF4C0640022CD
:1021E00038B126480579BDB1012D17D0022D2CD16B
:1021F00017E04FF4E13008608A80CA800C818A8140
:102200004B811D490020FEF73BFC012240F2255185
:102210001B48FEF7C7FD2CE0CA8005E04FF440558F
:1022200001E04FF40055CD80457925B1012D04D052
:10223000022D0AD103E00A8102E04FF480640C8190
:102240008479072C0CD0082C04D00020FFF7C2FFA3
:10225000022070BD0C891CB14FF480548C8000E0CA
:102260008A80006808608A814B8103490020FEF75C
:1022700007FC002070BD00007C08002094000020B6
:102280000048004010B5042825DD144A202802D05B
:10229000212820D10EE0CB78086863F31F6010601E
:1022A0000879107148795071887990710120FFF791
:1022B00091FF10E0107808701088000A48701068CC
:1022C000000C88701068000EC87010790871507981
:1022D000487190798871002010BD000094000020A2
:1022E0002DE9F0410E4607460024094D0AE0395D0C
:1022F0002846FEF7CFFD80212846FEF72DFD002859
:10230000F9D0641CB442F2D30020BDE8F081000093
:102310000048004070B50E480F4D104C81790D48B3
:10232000072902D0082905D008E0FEF7AFFD00F02C
:102330007F0001E0FEF7AAFD216868542068401C78
:102340002060B0F5006F01D100202060002070BD3A
:102350009400002000480040CC080020B800002075
:102360000020704738B513484FF4E1310024016074
:102370008480C4804FF4C061018184810C2141813B
:1023800001462046FEF77CFB012240F225510A4817
:10239000FEF708FD27208DF800008DF801408DF82C
:1023A000024001208DF803006846FEF79BFA0020EA
:1023B00038BD00007C0800200048004002E008C84A
:1023C000121F08C1002AFAD170477047002001E0AF
:1023D00001C1121F002AFBD1704700001CB5002468
:1023E0000D48CDE900040D4B0D4A01210D48FEF7C3
:1023F000FAFE4FF480150198411C0191A842FAD1D0
:102400000020FEF7E1FB0120FEF7DEFB0220FEF7D5
:10241000DBFB0194EFE70000780000201C010020A6
:10242000340000208801002070B50F490A78012A85
:1024300018D10A69002652B10B46402ADD68ACB2B9
:1024400007D940234035403AC1E9035205E00E70F8
:1024500008E093B22A44C1E9032604490A198121FC
:10246000FDF78AFF002070BDB0000020CC080020DE
:1024700010B5044601EB810004EBC000B0F88C03FA
:1024800081B206480269064890474023044A012168
:102490002046FDF730FF002010BD00009C0000200A
:1024A0008C08002010B504468121FDF7D4FE0121DF
:1024B0002046FDF7D0FE82212046FDF7CCFE0248E3
:1024C00040688047002010BD9C00002010B5074CDC
:1024D0006069FF2807D00649A2698B6804F12001D2
:1024E0009847FF206061002010BD0000B000002070
:1024F0009C00002010B50446022340228121FDF7F4
:10250000DCFE0223402201212046FDF7D6FE0323F4
:10251000082282212046FDF7D0FE084902200871DA
:10252000002048710648016888474023054A012178
:102530002046FDF7E0FE002010BD00005400002002
:102540009C0000208C080020064910B5CA69521C66
:10255000CA61062A03D10022CA61FEF78BF9002066
:1025600010BD0000B000002070B50C46054629499A
:1025700020783A2210F06006A1F1310322D0202EFB
:1025800005D021462846FEF7A2FC022070BD224954
:10259000E2888E688AB10006607806D51D49113937
:1025A000B0471C49E28811391FE0C3E90502194907
:1025B00028461139FEF799FC27E000226078114681
:1025C000B04722E06078062804D00A2811D00B28F2
:1025D0001BD112E060882123B3EB102F05D10D49E8
:1025E000E28809313A2A00D93A222846FEF79EFCB1
:1025F0000BE0084901222D39F7E7608810F0FF0F42
:1026000005D021462846FEF762FC002070BDC0B20E
:102610005860FAE7E10000209C0000200A06060B43
:1026200007070708070708070010002000400004FC
:102630004000400000088000800000001000000002
:102640001000000010000000000004002000000046
:102650001000000002000000040000000200000062
:102660000200000004000000020000008C260208A6
:102670000000002088010000F801020894270208E9
:1026800088010020481F0000CC230208181A2110DE
:102690000208710F02085515020839140208F513D3
:1026A000020897170208230C1E1D1202082B041A99
:1026B00099241AAF043142201AD5201E2518020889
:1026C00031041A59041ABD041AB1141A0108170466
:1026D0000309041201320216408304405706120215
:1026E000010203011AE9301AE3041AD1041AE704BB
:1026F0001AE5041AD3041AE104112AC23112081E81
:102700006523020861041E8522020815081AE108E3
:1027100001140213FF1C0902437B1125C032090476
:102720001B01020B130524161001052401100901D9
:1027300004240202052406170107058203081CFF72
:102740000904B1320A2E0705010240072A81071148
:102750001EF5240208A5044B6925781ACD0C1A2908
:10276000041A71045A4914411AF9F8111A103369FC
:1027700004124812401B14010C19041A04101A0800
:10278000042908A90C312D010203040405000607E1
:042790000809000034
:040000050802018D5F
:00000001FF
