:020000040802F0
:10000000982100209D0102087D0902087909020853
:100010007B090208E3020208272902080000000009
:10002000000000000000000000000000810C020839
:100030002908020800000000350A0208350D0208F0
:10004000B7010208B7010208B7010208B7010208A8
:10005000B7010208B7010208B7010208B701020898
:10006000B7010208B7010208B7010208B701020888
:10007000B7010208B7010208B7010208B701020878
:10008000B7010208B7010208B7010208B701020868
:10009000B7010208B7010208B7010208B701020858
:1000A000B7010208B7010208B7010208B701020848
:1000B000B7010208B7010208B7010208B701020838
:1000C000B7010208B7010208B7010208B701020828
:1000D000B7010208B7010208B7010208B701020818
:1000E000B7010208B7010208050A0208B7010208B1
:1000F000B7010208B7010208B7010208B7010208F8
:10010000B7010208B7010208B7010208B7010208E7
:10011000B7010208B7010208B7010208B7010208D7
:10012000B7010208B7010208B7010208B7010208C7
:10013000B7010208B7010208B7010208B7010208B7
:10014000B7010208B7010208B7010208F90902085D
:10015000B7010208B7010208B7010208A11002089E
:10016000B7010208B7010208B7010208B701020887
:10017000B7010208B7010208B7010208B701020877
:10018000B7010208EFBEADDEDFF80CD000F04AF890
:1001900000480047D12F02089821002006488047D8
:1001A00006480047FEE7FEE7FEE7FEE7FEE7FEE75C
:1001B000FEE7FEE7FEE7FEE7450D020889010208BB
:1001C0002DE9F05F0546002092469B46884606468C
:1001D000814640241BE0284641464746224600F01F
:1001E00042F853465A46C01A914110D31146184658
:1001F000224600F029F82D1A67EB01084F462246E7
:100200000120002100F020F817EB00094E41201ECC
:10021000A4F10104DFDC484631462A464346BDE8E6
:10022000F09F0000064C074D06E0E06840F0010337
:1002300094E8070098471034AC42F6D3FFF7A8FFC4
:10024000E032020800330208202A04DB203A00FAD8
:1002500002F1002070479140C2F1200320FA03F31D
:10026000194390407047202A04DB203A21FA02F01B
:100270000021704721FA02F3D040C2F120029140E0
:1002800008431946704770B501EB020410F8015B92
:1002900015F0070301D110F8013B2A1106D110F81F
:1002A000012B03E010F8016B01F8016B5B1EF9D123
:1002B0002B0705D40023521E0FD401F8013BFAE7A7
:1002C00010F8013B02F10202A1EB030303E013F873
:1002D000015B01F8015B521EF9D5A142D6D3002083
:1002E00070BDFEE710B50A460C0601F07F0303EB74
:1002F000830100EBC10102D501F58E7101E001F52A
:100300005D71D2090B704A7001F06CFF002010BDC6
:100310000A4610B5090602F07F0306D503EB8301F8
:1003200000EBC10101F58E7105E002EB820100EBEB
:10033000C10101F55D7100248C700B70D2094A7007
:1003400001F037FF002010BD70B50C460E0601F01D
:100350007F0505EB850100EBC10102D501F58E712A
:1003600001E001F55D71E4090D704C708A60CB709D
:1003700000D0CD80022B01D100220A7101F0F0FEE5
:10038000002070BD10B501F07F0404EB840100EB88
:10039000C10101F55D714B61CA6000238B614B7037
:1003A0000C70C378012B00D10A6114F0FF0F03D049
:1003B00001F04AFF002010BD01F064FEFAE7006979
:1003C000002261F30A1201681143016070470A4676
:1003D00010B5090602F07F0306D503EB830100EB9D
:1003E000C10101F58E7105E002EB820100EBC10154
:1003F00001F55D7101248C700B70D2094A7001F017
:100400000BFF002010BD70B511F07F0404EB8401D8
:1004100000EBC10101F58E714FF001054D700C70BC
:10042000CA600A614FF00002C1E9053203D001F051
:100430000BFF002070BD01F025FEFAE72DE9F04129
:100440000646002502F025F8074655E0F80751D08A
:100450003069EAB20369416BD14006EB820201F0D8
:100460000101926943EAC11194680C40E1071AD076
:100470000124426B04FA05F18A43426306EB8500CE
:10048000806984601F48E9B200684268304690473E
:10049000F078012807D135B996F81101042802D166
:1004A000304601F04BFE200704D506EB85000824FA
:1004B00080698460E00604D506EB8500102480691D
:1004C0008460600604D506EB850040248069846062
:1004D000A00704D506EB850002248069846020060D
:1004E00008D52946304600F062F906EB85018020E8
:1004F000896988606D1C7F08002FA7D10120BDE8A5
:10050000F08100005C0000202DE9F0410646002447
:1005100001F0C5FF0746DFF8988043E0F8073FD0B9
:10052000E1B2304601F0C1FF0546C00725D006EB19
:1005300084000125416D8D60F17801290CD1406D59
:10054000016904EB840006EBC000C1F31201D0F88E
:100550007C23511AC0F88C13D8F80000E1B202686D
:1005600030469047F078012807D134B996F8110148
:10057000052802D1304601F0E1FDA80704D506EBBD
:1005800084000225406D8560280709D5D8F8000051
:1005900081683046884706EB84010820496D8860F1
:1005A000641C7F08002FB9D10120BDE8F081000054
:1005B0005C00002070B50646C068816921F010011A
:1005C0008161F068056A05F00F0000EB800006EB22
:1005D000C004C5F3434004F55D74072821D2DFE869
:1005E00000F0202004202020150047F6F07005427E
:1005F00017D0C5F30A152A463046E16801F05DFFC1
:10060000E0682844E060A069284409E0082206F276
:10061000CC51304601F051FFA069C5F30A110844DE
:10062000A061F068816941F010018161012070BD15
:1006300038B5044600208DF8000094F812018DF8BA
:100640000000154800684169204688472069806895
:10065000E2684FF400615161A17AD1B1C00718D0AE
:1006600094F81501012814D19DF80000032810D139
:10067000D4F80C01016841F001010160D4F80C01CB
:10068000016841F0030101600448016841F006017E
:100690000160012038BD00005C00002010ED00E08A
:1006A00070B50446006900250126416821F001016A
:1006B00041602946204601F0A5FE0020FF2106E00A
:1006C00004EB800293699960526D9160401C6278DE
:1006D0008242F5D821694FF0FF30886128462169B0
:1006E00066F30F0066F31F40C861216945F00B00F7
:1006F0004861216945F00B0008612069016821F417
:10070000FE610160204601F019FDE1684FF4805060
:10071000486103480068016920468847012070BD90
:100720005C00002070B5044601F0D8FE01220023D1
:1007300084F8122184F81431194640250EE000BFD8
:1007400001EB810004EBC00000F58E704270017077
:10075000C180C370C0E90253491C4361607888427C
:10076000EED800210EE000BF01EB810004EBC002D7
:1007700002F55D7253701170D180D370C2E90253DB
:10078000491C536160788842EED8204601F054FC41
:10079000204601F04DFB0021204601F0FFFE2046DF
:1007A00001F086FB2046BDE8704001F007BE2DE950
:1007B000F0470D46064601EB850006EBC00404F544
:1007C0008E74D4E90501421AA068904200D2024614
:1007D000D21C970806EB850917E0A0EB0108A0687A
:1007E000404500D2804608F1030087081FFA88F3CD
:1007F000EAB23046E16801F0F5FEE16801EB08007D
:10080000E060A16901EB0800A061D9F818008069D7
:1008100080B2B84205D9D4E90501814201D200284D
:10082000DBD10120BDE8F087704700000149086076
:1008300070470000143C0140F0B500230124032759
:100840000D6804FA03F21540954242D1D0F800C079
:100850005E0007FA06F52CEA050CC0F800C091F816
:1008600004C0D0F800E00CFA06FC4CEA0E0CC0F80C
:1008700000C091F804C0BCF1010F02D0BCF1020F1E
:100880001FD1D0F808C02CEA050CC0F808C091F8B8
:1008900005C0D0F808E00CFA06FC4CEA0E0CC0F8D3
:1008A00008C0D0F804C02CEA020CC0F804C04268AA
:1008B00091F806C00CFA03FC1FFA8CFC42EA0C0209
:1008C0004260C268AA43C260CA79C568B2402A437E
:1008D000C2605B1C102BB3D3F0BD4B07DB0E9A40FC
:1008E000C90810B500EB8100016A0F249C40A143A8
:1008F0000162016A1143016210BD024600201269C3
:100900000A4200D00120704741837047018370473D
:10091000F0B417490A78012A0AD0CA680025B2F54E
:10092000006F00D1CD60D1E902329A4202D10D7040
:10093000F0BC704702D9C2F5006301E0A3EB0203EB
:100940001C460B61402B96B205D940234032403CF7
:10095000C1E9032403E02244C1E90325A3B2012233
:100960000A7004498A19F0BC8121FFF74CBD0000D0
:10097000E000002094090020FEE7FEE77047000039
:1009800070B50F21C478027801234FF0E026E4B15E
:10099000124C246804F4E064C4F5E064C4F3072452
:1009A000C4F10405E1404478AC4085780D4025430E
:1009B0000B4C29011155007800F01F018B404009B4
:1009C00006EB8000C0F8003170BD02F01F008340CC
:1009D000500906EB8000C0F8803170BD0CED00E0DE
:1009E00000E400E002490843024908607047000043
:1009F0000000FA050CED00E0014800F03BBE0000ED
:100A0000A8010020094810B5807A48B1084801685B
:100A100021F00601016000F095F9044801F0D3FDD2
:100A2000BDE810404FF48020FFF700BFA801002070
:100A300010ED00E070470000044A0029116801D061
:100A4000014300E0814311607047000030380240EC
:100A5000044A0029116801D0014300E0814311607C
:100A60007047000034380240044A0029116801D060
:100A7000014300E0814311607047000040380240AC
:100A8000044A0029116801D0014300E0814311604C
:100A9000704700004438024030B51D4A11681D4BB4
:100AA00011F00C0103D0042901D0082901D0036002
:100AB00015E01749091F0C68C4F380550C6804F051
:100AC0003F04B3FBF4F30C680968C4F38814634370
:100AD000C1F30141491C4900B3FBF1F10160116808
:100AE0000F2303EA11110C4B5C5C0168E14041608B
:100AF0001468072505EA94241C5D21FA04F4846037
:100B0000126805EA52329A5CD140C16030BD0000E3
:100B1000083802400024F400200000202DE9FC47A2
:100B20008A4604463A493A480C3150F8240051F8B4
:100B3000241008430121FFF77FFF354800260C38B9
:100B40004FF001090225ECB350F824000121FFF712
:100B500097FF2F482F4F3238025D801F015D57F8F5
:100B60002400FFF7BAFE2A4807F10C082F38025D6F
:100B7000801F015D58F82400FFF7AFFE24488DF870
:100B800006608DF8079026388DF8045030F8140070
:100B900000908DF8055057F824006946FFF74CFE89
:100BA0001B488DF804502038694630F81400009036
:100BB00058F82400FFF740FEA7F10C05514655F800
:100BC000240000E008E000F023FB55F82400012198
:100BD00000F0D6FABDE8FC8700680121FFF744FF6A
:100BE00001212020FFF728FF8DF806608DF80760AF
:100BF0001820094F8DF8049000908DF80550694633
:100C00003846FFF719FE18213846FFF77FFEA0E7A8
:100C1000C832020890010020001402401CB50446AE
:100C20000E48012150F82400FFF706FF0B48002171
:100C3000143830F81400009001208DF804008DF86D
:100C400006108DF8070002208DF80500044869465B
:100C500050F82400FFF7F0FD1CBD0000B032020880
:100C600078010020044951F820104A69034B33F8F9
:100C7000100042404A617047780100209C3202080F
:100C8000704700000CB500212148019100910268D5
:100C900042F4803202604FF4A063026802F4003232
:100CA0000092019A521C0192009A12B9019A9A423A
:100CB000F3D10268920329D501210091144908312A
:100CC0000A680A600A6842F400420A600A6842F44C
:100CD000A0520A600B1F0F4A1A60026842F080722D
:100CE000026002689201FCD50B4A40F2037010606A
:100CF000086820F003000860086840F002000860FF
:100D00000868C0F381000228FAD10CBD00910CBD27
:100D100000380240103C4005003C0240044B10B536
:100D20001A6830BF19688C1A8442FADB881A10BD21
:100D30000000002002480168491C01607047000063
:100D4000000000200E4810B5016841F0010101606B
:100D50000B4A00210832116002680A4B1A400260F7
:100D6000031D094A1A60026822F4802202600448C6
:100D70000C300160FFF786FF05490448086010BD8C
:100D800000380240FFFFF6FE103000240000020889
:100D900008ED00E0F0B587B001212A20FFF74CFEF6
:100DA00001218804FFF760FE00248DF806408DF8CD
:100DB000074001208DF804001820294E02250090DC
:100DC0008DF8055069463046FFF736FD182130464C
:100DD000FFF79CFD234E07220A213046FFF77DFDD9
:100DE00007220B213046FFF778FD1F4F07220B210A
:100DF0003846FFF772FD07220C213846FFF76DFDDC
:100E00008DF806408DF807404FF440608DF804508F
:100E100000908DF8055069463046FFF70DFD4FF400
:100E2000C050009069463846FFF706FD4FF4E130A8
:100E3000ADF80C400290ADF80E40ADF81040ADF8A2
:100E400014400C20094CADF8120002A9204600F015
:100E5000DFF90121204600F093F907B0F0BD000052
:100E60000014024000040240000C02400048004010
:100E70002DE9F04F044687B001215E20FFF7DCFD2D
:100E800001212020FFF7FCFD8048DFF804A24FF08D
:100E900008092060C4E924A92834DFF8F881C4F8DF
:100EA0005CA004200227C4F85080C4E9180701267A
:100EB0000025C4E915650321C4E91C184003C4E9F1
:100EC00002800F20C4E904083003A0610C20E06117
:100ED000A1627148C4E908098021C4E91101072110
:100EE000E16404F138028115A2E803024FF4007BAB
:100EF000C4E90B0B09206063C4E91E7608220621B1
:100F00005046FFF7EAFC082207215046FFF7E5FCB0
:100F1000208A082281B2A068283CFFF7DEFC00216D
:100F2000204600F0D7F84FF4E1300290ADF80C50B5
:100F3000ADF810500C205834ADF80E50ADF814B088
:100F4000ADF8120054F8580C02A900F061F954F8F9
:100F5000580C012100F014F98DF807508DF8045059
:100F6000606A00906946206AFFF766FC8DF80750BA
:100F70008DF80450A06C00906946606CFFF75CFC33
:100F80008DF806608DF8075030208DF804600090D1
:100F90008DF8057069465046FFF74EFC8DF80660E7
:100FA0008DF807508DF8046000978DF8057069463C
:100FB0005046FFF741FC8DF806608DF807508DF81C
:100FC0000460206B00908DF805706946E06AFFF7B9
:100FD00033FC8DF806608DF807508DF80460CDF86D
:100FE00000908DF805706946A06BFFF725FC4FF463
:100FF000FE708DF8075000908DF804506946404609
:10100000FFF71AFC4FF47040009069462348FFF741
:1010100013FC10215046FFF777FC20215046FFF7C4
:1010200073FC208E81B2E06AFFF76EFCA08F81B264
:10103000A06BFFF769FC02215046FFF765FCFA2020
:10104000FFF76CFE208E81B2E06AFFF75FFCA08F95
:1010500081B2A06BFFF75AFC02215046FFF756FC05
:10106000FA20FFF75BFEA08F81B2A06BFFF74CFC6C
:10107000FA20FFF753FEA08F81B2A06BFFF746FC6A
:10108000FA20FFF74BFE07B0BDE8F08F00140140D7
:101090000008024000180240000C02400004024018
:1010A00010B50B4C40F22551204600F07AF818B1EB
:1010B0000021084601F0D8FC0821204600F06AF81B
:1010C000002804D02046BDE8104000F0FDB810BD57
:1010D000001401402DE9FC414FF002088DF8058015
:1010E00000258DF8075004468DF80450C06C0E465C
:1010F00000906946A06CFFF79FFB206F0090694647
:10110000E06EFFF799FB606E00906946206EFFF776
:1011100093FB01272EB18DF806508DF807708DF8DE
:101120000480C020009069461448FFF785FB2EB16B
:101130008DF806508DF807508DF80470A06D009062
:101140006946606DFFF778FB2EB18DF806508DF87B
:1011500007508DF80470206C00906946E06BFFF733
:101160006BFB1EB18DF807508DF80450606B00903A
:101170006946206BFFF760FBBDE8FC810008024078
:101180000029818902D041F4005101E021F400518D
:10119000818170470246002012880A4200D0012057
:1011A000704730B501F01F0201240025C1F342133E
:1011B00004FA02F2012B0FD0022B0FD0838A4FEAE0
:1011C00011210088134204FA01F400EA040001D05E
:1011D00000B10125284630BD8389F0E7038AEEE798
:1011E00010B5C1F3421301F01F040121A140012BEE
:1011F00007D0022B07D01430002A026805D00A431A
:1012000004E00C30F8E71030F6E78A43026010BDC6
:101210007FB50446008A0D4620F44051E888084313
:101220002082A08941F20C618843A9882A89114350
:101230006A8902431143A181A08A20F44071A889E0
:101240000843A0826846FFF727FC1D48844202D06D
:101250001C48844201D1039800E00298A189090446
:10126000002900EBC00101EB0010296802DA4FEA07
:10127000410101E04FEA8101B0FBF1F26420B2FBD1
:10128000F0F14FEA01114FEA11136FF018056B43AB
:1012900002EB8302A3891D044FF0320306D503EB52
:1012A000C202B2FBF0F000F0070005E003EB02120F
:1012B000B2FBF0F000F00F00084320817FBD00007A
:1012C00000100140001401408088C0F308007047FE
:1012D000C1F308018180704710B5D0F8E425526849
:1012E0009047002010BD10B5134600240A46214641
:1012F000FFF748F8204610BD10B5134600240A46F3
:101300002146FFF780F8204610BD10B50446802125
:10131000FFF75DF800212046FFF759F82046BDE8A9
:10132000104000F00BBF10B5C0F894230323C0F8A1
:10133000902380F81131134600240A462146FFF716
:1013400021F8204610BD70B505460024052085F81B
:1013500011012346224621462846FFF713F8284666
:1013600000F0ECFE204670BD10B5C0F83C21022311
:10137000C0F8382180F81131134600240A4621466E
:10138000FFF741F8204610BD70B505460024042043
:1013900085F811012346224621462846FFF733F8F7
:1013A000284600F0CBFE204670BD000070B5054613
:1013B00041B1D5F8E40542698AB395F812010328D2
:1013C00046D047E095F81101002605F58E740228F5
:1013D00033D1E169A06881420FD9081AE061E87849
:1013E000012803D1D4E902100844E060A08BE16831
:1013F00082B22846FFF780FF1FE0216AB1FBF0F2BE
:1014000000FB121262B981420AD3606A814207D29C
:10141000002211462846FFF76FFF66620DE016E0D6
:10142000D5F8E405C16829B195F81201032801D166
:10143000284688472846FFF786FF95F816010128B9
:1014400008D1054800682969486085F8166101E0FF
:1014500028469047002070BD6000002070B505460A
:1014600041B1D5F8E40582690AB395F81201032861
:101470002CD02DE095F8110105F55D74032827D1D6
:10148000E169A068814213D9081AE061E87801286F
:1014900003D1D4E902100844E060E169A068814208
:1014A00000D2084682B22846E168FFF71CFF0FE031
:1014B000D5F8E405016929B195F81201032801D195
:1014C000284688472846FFF75FFF01E028469047F7
:1014D000002070BD10B50446D0F8E805406980478B
:1014E000012084F81501002010BD10B50446D0F885
:1014F000E80580698047D4F8E40500214268204669
:101500009047002084F8150110BD38B5044648887E
:101510000D46010A04295CD2DFE801F05B021420C9
:10152000D4F8EC15A0780A68694690470146E88827
:10153000402803D094F81201012837D10820ADF8D3
:10154000000037E0D4F8E415A0788A6A694690472D
:10155000014602204870C4F8F01527E0C0B2062802
:1015600037D2DFE800F003080D12171CD4F8EC1591
:10157000A0784A6817E0D4F8EC15A0788A6812E0E1
:10158000D4F8EC15A078CA680DE0D4F8EC15A07872
:101590000A6908E0D4F8EC15A0784A6903E0D4F8A9
:1015A000EC15A0788A69694690470146BDF80000AD
:1015B00000280DD0E88800280AD0BDF8002090420D
:1015C00000D91046ADF8000082B22046FFF7CCFEED
:1015D00038BD29462046FFF798FE38BD70B5002378
:1015E00000281DD00446002502E06D1CEDB2641CED
:1015F0002678002EF9D1022404EB45041480CC5443
:101600005B1C0322CA545B1C002406E0CA545B1C0A
:10161000DAB2401C8C54521CD3B20278002AF5D1A5
:1016200070BD2DE9F0411D46174688460446069ECA
:1016300000F09AFBC4F8E45504F5BD65414685E821
:10164000C0002046FFF76EF82868006880472046F3
:10165000BDE8F04100F074BB10B5D0F8E415096A9C
:101660008847002010BD10B5D0F8E415496A8847B6
:10167000002010BD2DE9F0470446002500F0FBFED8
:1016800000287DD0204600F0FFFE060079D0300310
:1016900003D52046FEF738FF0546700303D52046E4
:1016A000FEF7CCFE0543B0074FF0000A02D5E16813
:1016B000022048614C4F4FF00109002E17DAA07A42
:1016C00030B1D4F80C01D4F80C1120F003000860FC
:1016D0002069416821F00101416038688169204634
:1016E0008847E1684FF00040486145F0010530054A
:1016F00003D52046FEF79CFF0543300708D5386820
:10170000C16820468847E1680820486145F0010526
:10171000F00603D52046FEF74DFF0543F00403D540
:101720002046FEF7BDFF0543B0041AD5204600F061
:101730008BFCE068D0F80C80204600F083FE032884
:1017400047D084F80290402128F47050A18000F521
:10175000A050E168C860E1684FF40050486145F06E
:101760000105F00209D53868C16920468847E1685B
:101770004FF48010486145F00105B0020CD501E03E
:1017800024E024E03868016A20468847E1684FF485
:101790000010486145F00105700009D53868416ABC
:1017A00020468847E1684FF08040486145F00105D8
:1017B00070070BD5E0684668700703D53868816A02
:1017C00020468847E068466045F001052846BDE8A8
:1017D000F08784F802A04FF4007128F47050A180C3
:1017E00000F51050B5E700005C00002090F8CC2513
:1017F0000A7090F8CD254A7090F8CE2590F8CF3534
:1018000002EB03224A8090F8D02590F8D13502EB04
:1018100003228A8090F8D22590F8D33502EB032278
:1018200092B2CA800121C0F8402180F8111170479E
:1018300010B50023044640221946FEF785FD00231B
:10184000402280212046FEF77FFD012084F812010E
:10185000D4F8E815A07849688847002010BD10B575
:101860000446D0F8E80500698047032084F8120197
:10187000002010BD10B5D0F8E415C96901B1884742
:10188000002010BD10B50446D0F8E40502682046DB
:101890009047D4F8E80580688047002010BD00001C
:1018A00070B50A461A4D897804462970012905D871
:1018B00094F81201022807D003280CD02046BDE876
:1018C00070401146FFF721BDA1B184F8101103202B
:1018D00084F812010BE091B194F81001884209D00C
:1018E00001462046FFF7F8FC297884F810112046BD
:1018F000FFF7C8FF2046BDE87040FFF745BD022056
:1019000084F8120184F810112046FFF7E5FCF1E796
:101910009800002010B504464888012201280FD005
:10192000022831D1888810F0FF0F2DD12169496834
:10193000000A06281FD2DFE800F01E0B0F13171B4A
:10194000C4F81821D4F8E40582682046904716E0D0
:1019500021F0700110310EE021F0700120310AE019
:1019600021F07001303106E021F07001403102E0D9
:1019700021F0700150310548016084F8162120469D
:10198000BDE81040FFF700BD10BD00006000002062
:101990001CB504466946FFF729FF9DF8001011F0B9
:1019A0001F000AD001280DD0022810D001F08001BC
:1019B0002046FEF70CFD00201CBD6946204600F0C5
:1019C0000BF8F8E76946204600F0E8F8F3E76946C7
:1019D000204600F079F8EEE72DE9F0414A7800263C
:1019E00001250A2A42D2DFE802F03B554152410864
:1019F00005412A27FFF789FD61E004468888C8B9B8
:101A0000C888B8B9887800F07F0794F812010328D5
:101A100010D084F8147139462046FEF7D0FC2046D9
:101A2000FFF7B2FC1FB1022084F8120147E084F8EE
:101A3000125144E0204619E0FFF732FF3FE0CA8828
:101A4000012A13D190F81221022A02D0032A0DD1C3
:101A500002E001221B4917E0012200F5887113E022
:101A600090F81221022A04D0032A02D0FFF74DFC7D
:101A700025E014490839CD60D0F818210AB10322B5
:101A8000CA6010490222091DFFF76EFC17E0FFF73C
:101A900041FF14E0044690F81201022801D0032807
:101AA000C8D1488801280AD10020C4F81801D4F808
:101AB000E4058268204690472046FFF765FC3046E3
:101AC000BDE8F081A000002070B50D4604460979FC
:101AD0006878002658B3012816D0032831D194F82D
:101AE000120102282FD0032827D1688828B921B1F4
:101AF000802902D02046FEF76AFCD4F8E405294686
:101B00008268204690470EE094F8120102281AD00D
:101B1000032812D16888A0B929B1802903D02046B2
:101B2000FEF7F6FBE9E72046FFF72EFC09E094F804
:101B30001201022807D003280DD029462046FFF7BE
:101B4000E4FB304670BD0029FBD08029F9D0204647
:101B5000FEF73DFCF5E710480D064FF000034FF08F
:101B6000010208D501F07F0101EB810104EBC10105
:101B700091F81E1105E001EB810104EBC10191F820
:101B8000761309B1426000E0436003490222091D57
:101B90002046FFF7E9FBD4E79800002070B5054622
:101BA00090F8120100260C4603280DD12079012857
:101BB0000AD8D5F8E405826828469047E08830B90D
:101BC0002846FFF7E1FB02E02846FFF79EFB304680
:101BD00070BD10B500F58970017841700421017065
:101BE000D0F8D604C0688047002010BD10B50A4662
:101BF000024903A0FFF7F2FC004810BD4408002092
:101C000056435020436F6E66696700007047704707
:101C100012200880004870478400002070477047F9
:101C20007047704710B50020FEF7F8FF0120FEF75F
:101C3000F5FFBDE810400220FEF7F0BF10B50A46E0
:101C4000024903A0FFF7CAFC004810BD4408002069
:101C500056435020496E74657266616365000000EA
:101C600004200880004870478000002010B50A4614
:101C7000024903A0FFF7B2FC004810BD4408002051
:101C800053544D6963726F656C656374726F6E69EE
:101C9000637300000A4610B5044928B104A000BFD0
:101CA000FFF79CFC014810BD0AA0F9E7440800209A
:101CB00053544D3332205669727475616C20436FF2
:101CC0006D506F727420696E204653204D6F6465AD
:101CD0000000000053544D33322056697274756110
:101CE0006C20436F6D506F727420696E20485320D2
:101CF0006D6F6465000000000A4610B5044928B104
:101D000004A000BFFFF76AFC014810BD05A0F9E779
:101D100044080020303030303030303030353043FF
:101D2000000000003030303030303030303530425C
:101D30000000000043200880004870470801002090
:101D400008B54FF4C060FEF74DFE43208DF800004B
:101D500001208DF8010003218DF802108DF8030099
:101D60006846FEF70DFE08BD2DE9FC41012108463D
:101D7000FEF762FE4FF4C850032500908DF8055021
:101D800002208DF804000024204F8DF806408DF8C5
:101D9000074069463846FEF74FFD0A2208213846BB
:101DA000FEF79BFD0A220B213846FEF796FD0A221C
:101DB0000C213846FEF791FD8DF8055078158DF809
:101DC0000440012600908DF806608DF807406946B2
:101DD0003846FEF731FDB0028DF8066000908DF8B0
:101DE00007608DF8055069463846FEF725FD0A2242
:101DF00011463846FEF771FD01218803FEF740FECB
:101E000001218020FEF724FEBDE8FC810000024095
:101E10004FF47A714843AFF30080C0EB001000210B
:101E2000C0000722B0FBF2F0491C8142FCD9704788
:101E300070B50446017A0025C068012915D0C16833
:101E400041F04001C160204600F0CAF8617A4FF4C9
:101E5000502009B14FF4E810E16888631420FFF7BF
:101E6000D7FFE078012819D020E0816B627A21F455
:101E700080310AB141F480118163E068C16821F0CA
:101E8000401121F42021C160204600F0A9F8E0783B
:101E900001280BD1E1682A208860E2E7E0688168C8
:101EA00021F01E010A3141F020018160284670BDF9
:101EB0002DE9F04104460027D0F80C013E46354696
:101EC00007602069016821F4C0510160E07A0128AF
:101ED00029D10321204600F0C8FAE068802242623E
:101EE00020212846E36861F31F4062F30F009862E7
:101EF00000EB104060F30F05E06862F31F45C0F887
:101F0000045105EB154060F30F05E06861F31F45D0
:101F1000C0F8085105EB154060F30F05E06866F363
:101F20001F45C0F80C511021204600F06BFA2046E6
:101F300000F04CFA206906612069466121694FF082
:101F4000FF3088612069C66100214FF09040FF2377
:101F500012E000BF04EB8105D5F818C0DCF80020C2
:101F6000002A01DA024600E03246CCF80020AA69D5
:101F70001661AA699360491C62788A42EAD80022F5
:101F800012E000BF04EB8205D5F854C0DCF8001065
:101F9000002901DA014600E03146CCF80010696DF5
:101FA0000E61696D8B60521C61789142EAD820699C
:101FB000016941F480710161E078012809D10320B1
:101FC000402161F38A0040F4803061F35940216977
:101FD0000863204600F0CAF93846BDE8F0810000E9
:101FE000F8B5002704463E460097124D0320FFF740
:101FF00014FFE06800690090761CAE4201D9002011
:10200000F8BD00980028F1DA0099002041F00101A4
:1020100000910099E2681161E1680A690092401C30
:10202000A84202D8009AD207F7D10320FFF7F5FEA5
:102030003846F8BD400D0300C0680021826822F0D8
:10204000010282600846704710B5016900238C6860
:1020500082691168C4F341042CB1012C03D0022C15
:1020600004D0032C05D16FF30A0102E06FF30A01DB
:10207000C91C11600069416841F4807141601846D3
:1020800010BD0000F0B54A7800254C69012A15D032
:102090000A7800EB82035A6D16681269DCB38C680B
:1020A000C1F8144064F306025B6D22F4C01202F51D
:1020B00000221A61C278012A30D035E083691F6896
:1020C0001A6934B18E68B44206D966F306024E61CD
:1020D00004E022F07F0201E064F3060222F4C01261
:1020E00002F500221A61C278012A05D10C780A692A
:1020F00000EB8404A469626147F004421A60C2786C
:10210000CAB94A69BAB10A78006901219140426BA3
:102110000A4342630FE0FFE70C7AC3E70B780A69D2
:1021200000EB83035B6D5A61097846F0044200EBD3
:102130008100406D02602846F0BD0000426D0749F5
:102140001161C178012908D1426D00F2CC51516171
:10215000406D01684FF0802101607047180008C091
:10216000F0B50E7800254F780122B2402B4600EBE7
:102170008604012F19D0646D62F31F432268160490
:102180000DD40E8966F30A02CE78897966F39342FC
:1021900061F3995242F0805141F40041216000699D
:1021A000C1691943C1612846F0BDA46962F30F03F8
:1021B000E4E710B502464C780B78002002EB83026E
:1021C000012C09D0526D1368C97823F40013032938
:1021D00004D0022902D003E09269F4E743F080536F
:1021E000136010BD30B50C7803464D7801220020F5
:1021F000A24003EB8401012D09D04C6D014662F32E
:102200001F4120601A69D3698B43D36130BD8C694B
:10221000014662F30F01F4E702464B78097800208B
:1022200002EB8101012B05D0496D0A6842F40012CE
:102230000A6070478A691168002901DA41F080411B
:1022400041F4001111607047F0B54B780A78002412
:1022500001264F6900EB8202012B15D0556D2B68CA
:102260002A69002F62D08E6837447F1EB7FBF6F7CD
:1022700067F3DC42C2F3C947774367F312022A616E
:10228000C278012A58D05DE095692B682A696FB140
:10229000D1F808C067F3120267447F1EB7FBFCF752
:1022A00067F3DC42CF78012F05D008E06FF312020C
:1022B00066F3DC4203E022F0C04202F100522A61E0
:1022C000C278012A0ED0CA78012A12D04A69C2B156
:1022D0000A7896400269556B35435563CA78012ADE
:1022E00007D00EE00D780A6900EB8505AD696A61DB
:1022F000F4E702699268C2F30D22D2070CD043F0D2
:10230000805343F004420B7800EB83039B691A600F
:10231000CA78012A03D026E043F00053F1E78A8A05
:1023200093B20A78C96800F05DF91CE08F6867F322
:10233000120266F3DC42A2E70D780A6900EB85051C
:102340006D6D6A61CA78012A06D14A7912B143F0EB
:10235000005301E043F08053097843F0044200EB5E
:102360008100406D02602046F0BD000030B5C368BA
:10237000002211469A61C4686FF080436361C568AA
:10238000541E6C60C4686361C4680B4BA361C3785E
:1023900003B9102141F48721C06841F0081141F4CC
:1023A000401141F08041836941F004018B430B43AC
:1023B0008361104630BD000000080080C068002125
:1023C000826842F0010282600846704738B50024F6
:1023D00021460094009A42F010020092009AC368CD
:1023E0001A61074AC06803690093491C914202D8E8
:1023F000009BDB06F7D40320FFF70FFD204638BD16
:10240000400D030038B5002422460094009B43F0A1
:1024100020030093009B61F38A1300930099C36823
:1024200019610749C06803690093521C8A4202D8A7
:10243000009B9B06F7D40320FFF7EFFC204638BD36
:10244000400D03000146002009698968C1F341017C
:1024500039B1012903D0022905D0032900D1022076
:10246000704703207047012070470269106861F3CC
:10247000010010607047C068406910F0010F01D082
:102480000020704701207047C0684169806908409A
:10249000704700698169C069084080B2704700696F
:1024A0008169C0690840000C704700EB8101496DEB
:1024B00089680069406908407047034610B50020EC
:1024C000D21C9208D3F8D03003E01C6841F8044BCA
:1024D000401C9042F9D3084610BD000070B50022A0
:1024E0000125C27040268570144613468680012956
:1024F00001D061B114E0C5720821017004214FF0D0
:10250000A04241709115C1800221017208E0C3729E
:102510000C210170062141701F4A4FF4A061C18057
:1025200002F50061C0E9032100210AE002EB41133A
:1025300003F5106600EB810503F53063AE61491CBD
:102540006B6543788B42F1D802F58061416140317F
:10255000C0F8CC10002108E002EB411300EB81052C
:1025600003F5A063491CC5F8903003788B42F3D87B
:10257000002108E002EB013300EB810503F58053F5
:10258000491CC5F8D03003788B42F3D802F560625D
:10259000C0F80C21204670BD0000044010B5C06892
:1025A0000024C268012922F0C04201D019B104E020
:1025B00042F0005201E042F08042C2603220FFF758
:1025C00027FC204610BD817A00290AD0016989685C
:1025D000C90706D0D0F80C11D0F80C0121F0030186
:1025E0000160704730B5C47800256CB900EB8200FB
:1025F0000024DB1C9B08D0F8D00003E051F8042B2A
:102600000260641C9C42F9D3284630BD70B5054673
:10261000002922D000F045F9104C012817D010A154
:10262000204600F075FA284600F01EF9012810D067
:1026300010A1204600F06CFA284600F028F9012885
:1026400009D011A12046BDE8704000F061BA13A185
:10265000E6E717A1EDE71BA1F4E770BD7856341249
:102660004D6F64656D205265736574204C6F772CD7
:10267000202000004D6F64656D204F6E4F66662010
:102680004C6F772C202000004D6F64656D205077D3
:10269000724D6F6E204C6F770D0A00004D6F6465B0
:1026A0006D20526573657420486967682C200000AE
:1026B0004D6F64656D204F6E4F6666204869676890
:1026C0002C2000004D6F64656D205077724D6F6E49
:1026D00020486967680D0A002DE9F0470646002486
:1026E0008946F46121464462FEF7F4FCFA20FEF7C5
:1026F00015FB304600F0D5F8DFF83C8118B13046C4
:1027000000F0B2F8A0B90121304600F0D9F801215B
:10271000304600F0CCF800254746FA20FEF7FEFAD6
:1027200078686D1C64F30000641C7860042DF4DB91
:102730000021304600F0BBF800250A2199FBF1F793
:102740003846FEF7EBFAD8F804106D1C64F300016C
:10275000641CC8F804100A2DF2DB0121304600F099
:10276000A6F8304600F09DF8002863D0D8F8007035
:102770000025304600F07EF860B9FA20FEF7CEFA68
:10278000D8F804106D1C64F30001641CC8F8041030
:10279000282DEEDBD8F800004546DFF8AC80C21BE0
:1027A00026A1404600F0B4F901213046FFF72EFF84
:1027B000304600F05FF800283CD06420FEF7AEFA07
:1027C00001213046FEF786FC6420FEF7A7FA0027B9
:1027D000304600F05CF850B1FA20FEF79FFA6868C6
:1027E0007F1C64F30000641C68600C2FF0DB304633
:1027F00000F04DF800281DD00027304600F02EF8DC
:1028000001280AD0FA20FEF789FA68687F1C64F371
:102810000000641C68600C2FEFDB304600F01EF8EF
:10282000002807D009A1404600F072F928683062FC
:102830000120F061BDE8F087000000200D0A486526
:1028400072652025640D0A00785634124D6F646558
:102850006D20697320474F2E2E0D0A00B0F86410CA
:10286000006E89B2FEF749B884308188006889B269
:10287000FEF743B810B5044600F009F8002805D06B
:10288000204600F00EF8002800D0012010BD826F15
:102890002AB1B0F87C0081B21046FEF72EB80020B5
:1028A000704790308188006889B2FEF726B884307E
:1028B000002905C891B201D0FEF728B8FEF724B868
:1028C00070B504460029D4E9242081B2104623D0F3
:1028D000FEF71CF85FF00005B4F8940081B2D4F85C
:1028E0009000FEF70AF8012805D06420FEF716FADA
:1028F0006D1C0A2DF0DB0025B4F8940081B2D4F8E9
:102900009000FDF7FAFF012805D06420FEF706FAD3
:102910006D1C0A2DF0DB70BDFDF7F6FFBDE87040C1
:102920007D20FEF7FBB9FEE770B50C2327494FF475
:10293000C064002238B126480579BDB1012D17D0F9
:10294000022D2CD117E04FF4E13008608A80CA8054
:102950000C818A814B811D490120FEF7DFF801229D
:1029600040F225511B48FEF73BFC2CE0CA8005E0F5
:102970004FF4405501E04FF40055CD80457925B125
:10298000012D04D0022D0AD103E00A8102E04FF4A8
:1029900080640C818479072C0CD0082C04D0002092
:1029A000FFF7C2FF022070BD0C891CB14FF48054A8
:1029B0008C8000E08A80006808608A814B8103492E
:1029C0000120FEF7ABF8002070BD00004409002094
:1029D000C40000200014014010B5042825DD144A6D
:1029E000202802D0212820D10EE0CB78086863F39C
:1029F0001F60106008791071487950718879907162
:102A00000120FFF791FF10E0107808701088000A8D
:102A100048701068000C88701068000EC87010793B
:102A200008715079487190798871002010BD0000BC
:102A3000C40000202DE9F0410E4607460024094D50
:102A40000AE0395D2846FEF743FC80212846FEF760
:102A5000A1FB0028F9D0641CB442F2D30020BDE8E9
:102A6000F08100000014014070B50E480F4D104C6D
:102A700081790D48072902D0082905D008E0FEF722
:102A800023FC00F07F0001E0FEF71EFC2168685483
:102A90002068401C2060B0F5006F01D1002020604C
:102AA000002070BDC40000200014014094090020E3
:102AB000E80000200020704738B513484FF4E1319A
:102AC000002401608480C4804FF4C061018184814E
:102AD0000C21418101460120FEF720F8012240F23D
:102AE00025510A48FEF77CFB47208DF800008DF841
:102AF00001408DF8024001208DF803006846FDF783
:102B00003FFF002038BD00004409002000140140B0
:102B10000FB4024610B504A9034B039800F016F851
:102B200010BC5DF814FB0000AD2F020802E008C8DD
:102B3000121F08C1002AFAD170477047002001E037
:102B400001C1121F002AFBD1704700002DE9FF4F81
:102B50008DB00F4605460026DEE1252874D10024FD
:102B60006D1CF149A246A14601222B78203B02FAB6
:102B700003F0084202D004436D1CF6E728782A28A7
:102B800010D06FF02F022878A0F13001092915D854
:102B90000AEB8A0102EB410144F0020400EB010A56
:102BA0006D1CF0E757F804ABBAF1000F03DA44F4F8
:102BB0000054CAF1000A44F002046D1C28782E2843
:102BC00017D115F8010F44F004042A280ED06FF035
:102BD0002F022878A0F1300109290AD809EB8901D0
:102BE00002EB410100EB01096D1CF2E757F8049B71
:102BF0006D1C28786C280FD006DC4C2817D068286C
:102C00000DD06A2814D104E0742810D07A280FD18E
:102C10000DE044F400140AE044F4801401E044F4AC
:102C200040146978814202D16D1C04F580146D1C3A
:102C30002A786E2A20D00DDC632A33D005DC002AE6
:102C40006FD0582A12D1A2E011E0642A6AD0692A12
:102C50000CD167E0732A2FD004DC6F2A6FD0702A62
:102C600004D199E0752A6BD0782A6AD01046DDE944
:102C70000F129047761C4EE1C4F30250022806D092
:102C800003280AD0042801CF0AD0066043E101CF0F
:102C90004FEAE671C0E900613DE101CF06803AE10B
:102CA000067038E117F8040B8DF8000000208DF84D
:102CB0000100EB46012003E057F804BB4FF0FF3062
:102CC00061074FF0000102D40DE008F101018846D0
:102CD00049450FDA8045F8DB1BF808100029F4D1CC
:102CE00008E008F1010188468142FADB1BF8081070
:102CF0000029F6D1DDE90F23AAEB08008146214621
:102D000000F03BF9304400EB080604E0DDE90F1267
:102D10001BF8010B9047B8F10108F7D2214648464D
:102D2000F4E0FDE00A21C4F302534FF0000B0891D8
:102D3000022B07D001CFC117032B09D00AE034E0E2
:102D400023E024E0FF1D27F00707F7E8020105E074
:102D500000B2C117042B01D140B2C117002907DA14
:102D60004FF0000CD0EB0C006CEB01012D2302E0C6
:102D7000230504D52B238DF82430012303E0E3073A
:102D800001D02023F7E7984650E00A210EE01020FA
:102D90004FF0000B08900CE010214FF0000B44F0B6
:102DA00004044FF00809089103E008214FF0000BDC
:102DB0000891C4F30253022B04D001CF0021032B4E
:102DC00006D006E0FF1D27F00707F7E8020103E041
:102DD00080B2042B00D1C0B24FF00008230725D5E4
:102DE000702A2AD0DDF820C08CF0100C5CEA0B0CA5
:102DF00009D150EA010306D030238DF824308DF834
:102E0000252002239846DDF820C08CF0080C5CEAEF
:102E10000B0C0BD150EA010301D1630706D5302317
:102E20008DF824304FF00108A9F10109582A09D082
:102E30003EA20B9208AA0A9211E040238DF824309A
:102E40000123DFE73EA2F4E75B46089AFDF7B8F9F5
:102E50000B9B9B5C0A9AA2F101020A92137050EA42
:102E60000102F1D10A98ADEB000000F1200B6007E0
:102E700002D524F4803401E04FF00109D94502DD88
:102E8000A9EB0B0000E0002000EB0B01414408908F
:102E9000AAEB010AE00306D4DDE90F2321465046E0
:102EA00000F06BF80644002008E009A911F80900B9
:102EB000DDE90F129047761C09F10100814640457B
:102EC000F3DBE0030CD5DDE90F232146504600F08B
:102ED00054F8064404E0DDE90F1230209047761CD8
:102EE0000899481E08900029F5DC08E00A980A991C
:102EF0000078491C0A91DDE90F129047761CBBF15E
:102F00000001ABF1010BF1DC21465046DDE90F2356
:102F100000F020F806446D1C287800287FF41DAED0
:102F200011B03046BDE8F08F09280100303132334E
:102F300034353637383961626364656600000000F5
:102F400030313233343536373839414243444546DF
:102F5000000000002DE9F041044600251E461746FA
:102F6000880405D406E039462020B04705F1010564
:102F7000641EF8D52846BDE8F0812DE9F0410446ED
:102F800000251E469046C80301D5302700E02027C3
:102F9000880405D506E041463846B04705F10105ED
:102FA000641EF8D52846BDE8F081000070B5074DD5
:102FB000044680212846FEF7EDF80028F9D0A1B29A
:102FC0002846FEF785F9204670BD00000048004005
:102FD00086B0002402A80194FDF75EFD03984FF42B
:102FE0007A71B0FBF1F0B0F1807F0BD220F07F411D
:102FF0004FF0E020491E4161164AF02111708461B2
:1030000007210161FDF7C6FE13A000F035F8154851
:10301000FDF72EFF40F2E2411248FFF75DFB124838
:103020000090124B124A01211248FEF7FAFA4FF4AF
:1030300080150198411C0191A842FAD10020FDF7AA
:1030400011FE0120FDF70EFE0220FDF70BFE01949C
:10305000EFE7000023ED00E05432205643502044B7
:10306000656D6F009C070020A80000204C01002027
:1030700064000020A801002010B5044601E0FFF71D
:1030800095FF14F8010B04490028F8D1BDE8104061
:103090000A20FFF78BBF00001C00002070B50F490D
:1030A0000A78012A18D10A69002652B10B46402A33
:1030B000DD68ACB207D940234035403AC1E903523C
:1030C00005E00E7008E093B22A44C1E903260449E2
:1030D0000A198121FDF797F9002070BDE00000205A
:1030E0009409002010B5044601EB810004EBC000F8
:1030F000B0F88C0381B20648026906489047402325
:10310000044A01212046FDF73DF9002010BD0000D2
:10311000CC0000205409002010B504468121FDF7A1
:10312000E1F801212046FDF7DDF882212046FDF778
:10313000D9F8024840688047002010BDCC0000202C
:1031400010B5074C6069FF2807D00649A2698B6853
:1031500004F120019847FF206061002010BD0000AD
:10316000E0000020CC00002010B5044602234022DD
:103170008121FDF7E9F80223402201212046FDF7D5
:10318000E3F80323082282212046FDF7DDF80849F1
:1031900002200871002048710648016888474023D2
:1031A000054A01212046FDF7EDF8002010BD000082
:1031B00084000020CC00002054090020064910B5EE
:1031C000CA69521CCA61062A03D10022CA61FDF7EE
:1031D0009FFB002010BD0000E000002070B50C46F1
:1031E0000546294920783A2210F06006A1F1310302
:1031F00022D0202E05D021462846FEF786F8022050
:1032000070BD2249E2888E688AB10006607806D5D2
:103210001D491139B0471C49E28811391FE0C3E943
:103220000502194928461139FEF77DF827E00022EA
:1032300060781146B04722E06078062804D00A285A
:1032400011D00B281BD112E060882123B3EB102F83
:1032500005D10D49E28809313A2A00D93A22284697
:10326000FEF782F80BE0084901222D39F7E7608864
:1032700010F0FF0F05D021462846FEF746F8002043
:1032800070BDC0B25860FAE711010020CC000020E8
:103290000A06060B070707080707080700100020A3
:1032A0000040000440004000000880008000000052
:1032B00010000000100000001000000000000400DA
:1032C00020000000100000000200000004000000C8
:1032D00002000000020000000400000002000000E4
:1032E0000033020800000020A80100008602020846
:1032F00010340208A8010020F01F00003C2B020837
:103300008113041012E019041BFCED08F12D0102D9
:103310000304041816060708095D140208AD130219
:1033200008911902087518020831041ED31B0208FF
:103330005F081E5916020867041AD5241AEB0422E6
:103340003042201E111C020861041A6D041A9504F3
:103350001AF9041AED341A3D08170403090412017E
:1033600032021640830440571A026A0212011A25DB
:103370002C1A1F041A0D041A23041A21041A0F040C
:103380001A1D04112AC23112081EB92A0208B504F6
:103390001ED929020869081A350401140213FF1CFA
:1033A0000902437B112DC0320904F1190B130524C6
:1033B0001610010524011009010424020205240647
:1033C000170107058203081CFF0904B1320A2E0702
:1033D00005010240072A8107111E693102081904FC
:1033E0001ADD04411A41081E9D300208E5045ABD49
:1033F00014411B351D0C1A10336904124812401B6E
:1034000014010C19041A04101A08042908990C0054
:040000050802018963
:00000001FF
