:020000040802F0
:1000000078280020A901020849140208E501020825
:10001000CD0D0208E9090208594A02080000000053
:100020000000000000000000000000000D21020898
:10003000110A020800000000611902081D250208CB
:100040000702020807020208070202080702020864
:100050000702020807020208070202080702020854
:100060000702020807020208070202080702020844
:100070000702020807020208070202080702020834
:100080000702020807020208070202080702020824
:100090000702020807020208070202080702020814
:1000A0000702020807020208070202080702020804
:1000B00007020208070202080702020807020208F4
:1000C00007020208070202080702020807020208E4
:1000D0000702020807020208070202084942020852
:1000E00007020208070202080702020807020208C4
:1000F00007020208070202080702020807020208B4
:1001000007020208851D020807020208070202080A
:100110000702020807020208070202080702020893
:100120000702020807020208070202080702020883
:100130000702020807020208070202080702020873
:100140000702020807020208070202080702020863
:10015000070202080702020807020208ED4402082B
:100160000702020807020208070202080702020843
:100170000702020807020208070202080702020833
:100180000702020807020208EFBEADDEDEC0DEC0D5
:1001900000000200DFF80CD000F046FA00480047EB
:1001A000D150020878280020174880471748004798
:1001B000174918480860FEE77047000016484FF4DA
:1001C0008041016015484FF0010101601448D0F8EA
:1001D00000D04068004700001248D0F800D04068C6
:1001E0000047FEE71EF0040F0CBFEFF30880EFF3AB
:1001F000098004F0F5BEFEE7FEE7FEE7FEE7FEE756
:10020000FEE7FEE7FEE7FEE731250208950102085A
:100210000CED00E00400FA054438024000380140CB
:100220000000FF1F00000208A0F16101192900D899
:100230002038704740EA01039B0703D009E008C952
:10024000121F08C0042AFAD203E011F8013B00F89B
:10025000013B521EF9D27047D2B201E000F8012BE7
:10026000491EFBD270470022F6E710B513460A4636
:1002700004461946FFF7F0FF204610BD30B505468D
:100280002A460B4612F8010B13F8014B08B1A042A5
:10029000F8D01CB1002802D06D1CF1E7284630BD13
:1002A000421C10F8011B0029FBD1801A704703463D
:1002B00011F8012B00F8012B002AF9D118467047DC
:1002C00030B505460020034600E05B1C934205D292
:1002D000EC5CC85C201A01D1002CF6D130BD0000C6
:1002E0000FB400B58DB010A909900B9000914FF09C
:1002F000FF300A9000200C900548069005480790B2
:100300006A4609A80F9900F061F90DB05DF814FB79
:10031000E9050208070602082DE9FF5F1D464FF0B8
:10032000FF3BD5E9014691465F464FF00008A969B9
:100330007F1C01988847296A824688470028F6D1A1
:100340001AF101000CD024F4C064002E19DD6006FF
:1003500014D5BAF12B0F09D0BAF12D0F0ED103E04D
:10036000584604B0BDE8F09F44F48064A9697F1C3E
:1003700001988847761E8246002E02DDBAF1300FC2
:1003800003D0B9F1000F26D032E0761EA96944F4FB
:1003900000747F1C019888478246002E05DDBAF163
:1003A000780F06D0BAF1580F03D0B9F1000F10D072
:1003B0001EE0B9F1000F02D0B9F1100F18D1761E6E
:1003C000A96924F400747F1C019888478246102094
:1003D00002E0082000E00A20814609E008FB090845
:1003E000761EA96944F400747F1C019888478246F0
:1003F000002E05DD4946504600F0D4F80028EDDA1D
:10040000E96901988847A00502D46FF00100A8E7C8
:10041000E00727D1600614D5600502D5C8F10000B9
:1004200000E04046296801F104022A6009682205BB
:1004300001D5087016E0220701D5088012E0086097
:1004400010E0286800F1040129600068210502D548
:1004500080F8008006E0210702D5A0F8008001E0C6
:10046000C0F8008038467CE72DE9FF5FD2E901A79C
:100470004FF00008916999461446DDF838B04646B9
:1004800001988847054659EA0B0005D009E0A169A3
:10049000761C019888470546216A28468847002827
:1004A000F5D1681C03D05FEACA7005D015E04FF0A3
:1004B000FF3004B0BDE8F09F2068011D2160D0F836
:1004C00000800AE05FEACA7001D108F8015B7F1E74
:1004D000A169761C019888470546002F1ADD681C23
:1004E00018D0B9F1000F0DD0E81705EBD06042111C
:1004F00020F01F0059F822102A1A012090400142D2
:10050000E0D107E0BBF1000FDCD1216A2846884723
:100510000028D7D0E169019888470AF0010050EA25
:100520000B0002D1002188F80010A068B84203DD5A
:10053000BBF1000F03D017B16FF00100B9E73046EF
:10054000B7E72DE9F05F0546002092469B468846B6
:100550000646814640241BE028464146474622463F
:1005600000F083F853465A46C01A914110D3114601
:100570001846224600F06AF82D1A67EB01084F462C
:1005800022460120002100F061F817EB00094E41DE
:10059000201EA4F10104DFDC484631462A464346CA
:1005A000BDE8F09F3A2800D2303820F02002412ADE
:1005B00001D3A2F13700884201D34FF0FF307047DA
:1005C000026811441378016018467047D1600449ED
:1005D00051610449116200211161114600F05AB8BD
:1005E000C10502088B060208426842B1016811F891
:1005F000013B23B1521EC0E9001218467047012189
:10060000C160881E704742685AB1C368016843B927
:1006100083688B4205D0491E521CC0E9001200209D
:1006200070474FF0FF307047064C074D06E0E0681A
:1006300040F0010394E8070098471034AC42F6D329
:10064000FFF7ACFD9C550208BC550208202A04DBCC
:10065000203A00FA02F1002070479140C2F12003D5
:1006600020FA03F3194390407047202A04DB203A14
:1006700021FA02F00021704721FA02F3D040C2F1C2
:1006800020029140084319467047C0B24FF4F05120
:1006900000F096B92DE9F34F8BB04FF0000801F14F
:1006A0000C000C464FF0010B46460DF1080A019074
:1006B000626901210198904705002DD0252D2CD08D
:1006C000216A8847C0B16269012101989047216A77
:1006D00088470028F7D1411E62690198904700E0E1
:1006E000761CA1690B988847216A88470028F7D1B2
:1006F000E1690B988847DBE7A1690B9888470746B3
:10070000A84201D1761CD3E7E1690B9888477F1C8A
:1007100002D1B8F1000F6FD045E1002762693D4674
:100720003946019890472A2804D16269012101982D
:1007300090470125DFF88492626901210198904772
:10074000A0F130010A290AD24F45E5DC07EB870109
:1007500000EB4107303FDFD445F01005ECE7E90638
:1007600001D46FF000476C280AD04C2814D06828B8
:1007700015D06A280DD074281CD07A281AD01DE014
:1007800062690121019890476C2802D045F0040568
:1007900014E045F002050DE045F020050AE062692D
:1007A000012101989047682802D045F0080505E02E
:1007B00045F400656269012101989047C4E9015739
:1007C00065283DD019DC582879D00CDC452837D075
:1007D00004DC252826D0412831D131E046282FD00D
:1007E00047282CD12CE05B287FD0612828D06328B3
:1007F0007BD0642823D159E0CFE06F2847D008DCB4
:1008000066281DD067281BD0692821D06E2816D1F4
:1008100027E0702844D0732867D0752846D0782800
:100820000DD14CE0A1690B988847054625283FF477
:1008300069AFE1690B9888476D1C3FF46AAFB2E07D
:1008400023466A466FF001000B99AFF300809DE0EC
:1008500045F040006060A80723464FF0000235D401
:100860003DE0206800F1040121600068290501D500
:1008700006701DE7290701D5068019E7A90704D5E9
:100880004FEAE671C0E9006112E7066010E745F043
:1008900040006060A80723464FF0080216D41EE00F
:1008A00040F60E0125EA0100606016E045F04000C8
:1008B0006060A80723464FF00A0207D40FE045F016
:1008C00040006060A80708D5234610226FF00100A1
:1008D0000B99AFF3008059E007E0234610226FF038
:1008E00001000B99FFF718FD50E04FF000094F464B
:1008F0004B46632802D05B2806D040E0E80601D4CE
:100900000120A06001273AE0626901210198904727
:100910005E2805D14FF00109626949460198904768
:10092000216939B900210B46524642F82130491C51
:100930000829FADBB0B3216969B9C11700EBD161AD
:100940004B110AEB830221F01F01411A01201368A9
:1009500088400343136062690121019890475D2834
:10096000E8D1B9F1000F09D00020514651F82020FC
:10097000D24341F82020401C0828F7DB02AB224676
:1009800000976FF001000B99FFF76EFD00280CDA5D
:10099000401C08D1BBF1000F05D04FF0FF300DB067
:1009A000BDE8F08FFFE74046F9E7E90701D108F11C
:1009B000010806444FF0000B7AE60000CCCCCC0CCA
:1009C0007F2801D9002208E0064A02EB5002C00746
:1009D000127800D1120902F00F0201209040084065
:1009E0007047000059550208FEE7000007480168FB
:1009F00011F0450FFBD0054940F2FF50091D08607A
:100A000002482038006800F008007047342C01408C
:100A1000704700001FB50E4CE068002816D16846EC
:100A200001F096F80B490198B0FBF1F0A061A068C5
:100A3000016841F0807101602168002008606068F1
:100A4000016841F0010101600120E0601FBD00006C
:100A500038000020400D03002DE9F04117460E46F6
:100A6000044600F0FDF8B04219D20020BDE8F08144
:100A7000D4E901010D1AB54200D9354604F10C0143
:100A800001442A463846FFF7D5FB60682844606079
:100A9000A168884201D100206060761B2F44002E9F
:100AA000E6D10120E2E74168016070472DE9F0419D
:100AB00088B00F46804600F0D3F80646384600F06E
:100AC0001EF80546AE4212D3044613E0202C00D394
:100AD00020246A4621464046FFF7BEFF6A4621466B
:100AE000384600F027F8361B2D1BAE4201D23446A3
:100AF00000E02C46002CE9D108B0BDE8F08100B53B
:100B0000034600F0ADF89968081A401E00BD00B514
:100B1000034600F0A5F800280BD0596803F10C0239
:100B2000481C5860895C9A68904201D10020586046
:100B3000084600BD2DE9F04117460E460446FFF772
:100B4000DEFFB04219D20020BDE8F081A168206824
:100B50000D1AB54200D9354604F10C0108442A4665
:100B60003946FFF767FB206828442060A168884267
:100B700001D100202060761B2F44002EE6D10120F9
:100B8000E2E710B5044640F20C41FFF76CFB002091
:100B9000206060604FF48060A060204610BD0000BF
:100BA000F0B5034600F05CF8020020D05C6800203D
:100BB0009E6801462546401C641CA64200D10024C4
:100BC0001F193F7B0D2F03D00A2F01D09042F2D383
:100BD000441A4FF0000EB4F5167F06D36D1C5D600D
:100BE000B54204D1C3F804E001E0904201D10020F5
:100BF000F0BD0024DFF850C003F10C050DE05E6885
:100C0000771C5F60765D0CF80460D3E90167641CB3
:100C1000BE4201D1C3F804E0491C8142EFD30CF875
:100C200004E0111A07E0401C58609A68491E90427F
:100C300001D1C3F804E029B15868425D0D2AF2D011
:100C40000A2AF0D00048F0BD1815002000B5034670
:100C500000F006F8002802D058680C33C05C00BDD4
:100C6000D0E900218A4201D3501A704780681044AD
:100C7000401A70472DE9FC410121142000F044FF87
:100C800000248DF8064001258DF807504FF4E04010
:100C90008DF80450022600908DF8056069461348CF
:100CA00000F028F8002003F0D9FE6803104F8DF8FB
:100CB000074000908DF804406946384600F01AF865
:100CC0008DF806508DF807400A208DF804500090EA
:100CD0008DF805606946384600F00CF8009881B23E
:100CE000384600F06FF8BDE8FC81000000100240BB
:100CF00000080240F0B50023012403270D6804FA20
:100D000003F21540954242D1D0F800C05E0007FAC8
:100D100006F52CEA050CC0F800C091F804C0D0F824
:100D200000E00CFA06FC4CEA0E0CC0F800C091F88A
:100D300004C0BCF1010F02D0BCF1020F1FD1D0F8EA
:100D400008C02CEA050CC0F808C091F805C0D0F81E
:100D500008E00CFA06FC4CEA0E0CC0F808C0D0F80B
:100D600004C02CEA020CC0F804C0426891F806C026
:100D70000CFA03FC1FFA8CFC42EA0C024260C268C7
:100D8000AA43C260CA79C568B2402A43C2605B1CEC
:100D9000102BB3D3F0BD4B07DB0E9A40C90810B53A
:100DA00000EB8100016A0F249C40A1430162016AAB
:100DB0001143016210BD0246002012690A4200D0B0
:100DC000012070474183704701837047FEE70000B0
:100DD00010B5044602223CA1FFF772FA00284FD05A
:100DE00004223AA12046FFF76BFA002849D00522D9
:100DF00038A12046FFF764FA002844D0072237A123
:100E00002046FFF75DFA002840D0052235A1204694
:100E1000FFF756FA00283CD0012234A12046FFF704
:100E20004FFA002838D00B2231A12046FFF748FAAC
:100E3000002836D00B2231A12046FFF741FA70B3CB
:100E40000A2231A12046FFF73BFA48B30C2231A118
:100E50002046FFF735FA58B3092231A12046FFF7A3
:100E60002FFA40B3042231A12046FFF729FA28B314
:100E7000072230A12046FFF723FA10B34FF07F403E
:100E800010BD2E4810BD2D48401C10BD2B48801CA5
:100E900010BD2A48001F10BD2848401D10BD02E0AB
:100EA00003E02748FAE72748F8E72448C01EF5E79B
:100EB0002248C01CF2E72148001DEFE71F48401EF2
:100EC000ECE71E480838E9E74F4B000052494E470F
:100ED000000000005352494E47000000434F4E4E61
:100EE000454354004552524F520000003E0000005E
:100EF0002B434D53204552524F523A002B434D4500
:100F0000204552524F523A004E4F204341525249CF
:100F1000455200004E4F204449414C544F4E45002D
:100F20004E4F20414E5357455200000042555359F1
:100F30000000000054494D454F5554000A0000FF81
:100F4000000010FF000020FFF0B5C5B00F4640F2D2
:100F5000DC536A462BA101F0EAF806004ED12CA121
:100F60006846FFF78BF9002540ACB8B105702AA19F
:100F70006846FFF783F9010010D00020042204E046
:100F80002354521C401C102802DA8B5C002BF7D132
:100F9000255440A93846FFF78AF92FE020A168467A
:100FA000FFF76CF990B105701FA16846FFF766F96D
:100FB00001000BD00020022204E02354521C401CEC
:100FC0001028E5DA8B5C002BF7D1E1E717A1684622
:100FD000FFF754F990B1057016A16846FFF74EF976
:100FE00002000BD00020042104E02354491C401CC3
:100FF0001028CDDA535C002BF7D1C9E745B0304655
:10100000F0BD000041542B434E554D0D0A00000029
:10101000222C313239000000222C22310000000045
:101020002C31323900000000222C00002C313435E4
:1010300000000000222C2B3100000000B0F8D8186E
:10104000D0F8D40889B2FFF7B6BEB0F81419D0F8BA
:10105000100989B2FFF7AFBEB0F8FC18D0F8F80855
:1010600089B2FFF7A8BEB0F8F018D0F8EC0889B242
:10107000FFF7A1BEB0F80819D0F8040989B2FFF74C
:101080009ABE10B50446002100F0D4F9FA2001F010
:101090000FF90121204600F0CDF9BDE81040FA20FB
:1010A00001F006B970B50E460446002103F021FA9E
:1010B000642001F0FDF82046FFF7DCFF90B32046E6
:1010C000FFF7CAFF70B32046FFF7CDFF00282ED0F0
:1010D0000021204600F09AF900250A2096FBF0F640
:1010E000304601F0E5F86D1C0A2DF9DB01212046A0
:1010F00000F08CF900252046FFF7B5FF28B1FA2053
:1011000001F0D6F86D1C282DF5DB2046FFF7ABFF6C
:1011100090B119A003F0D6FC0121204603F0E9F9B3
:10112000002070BDFFE71AA003F0CCFCF8E721A176
:10113000254803F0B9FC1CE02448006804F63C0490
:1011400023A1A0600020206020616061A061E062B6
:1011500020636063A063A4F63C0404F65800FFF724
:10116000A6F86320C4F87808C4F87C081CA003F033
:10117000A9FC0120D5E700004469646E2774207043
:101180006F776572206F66662072696768740A00FF
:101190005265736574206F72204F4E2F4F46462064
:1011A000416C726561647920417373657274656422
:1011B0002E0D0A004D6F64656D20616C726561646F
:1011C00079204F66660D0A00785634120000002020
:1011D0003030302E3030302E3030302E3030300045
:1011E0004D6F64656D206973204F66662E0D0A0091
:1011F0002DE9F04100250F4604462946C0F83C5829
:1012000003F077F9642001F053F82046FFF732FF2E
:1012100018B12046FFF720FF50B90121204600F009
:1012200009F90121204600F0F1F8FA2001F040F818
:101230002046FFF71FFF78B12046FFF70DFF58B19A
:101240002046FFF710FF48B128A003F03BFC012126
:10125000204603F04EF940E029A042E0002120465C
:1012600000F0D4F800260A2097FBF0F7384601F08A
:101270001FF8761C0A2EF9DB0121204600F0C6F883
:101280000026FA2001F014F8761C0C2EF9DB20461B
:10129000FFF7E9FE20B30121204603F02AF964207C
:1012A00001F006F81EA003F00DFC2148006804F6CA
:1012B0003C0420A16060256165610120A56120607A
:1012C00084F82C50A4F63C0404F65800FEF7EFFF17
:1012D0006320C4F87808C4F87C080120BDE8F081D8
:1012E00018A003F0EFFB0020F8E700004D6F6465E5
:1012F0006D20416C7265616479204F6E2E0D0A007D
:101300005265736574206F72204F4E2F4F464620F2
:10131000556E726573706F6E736976652E0D0A0077
:101320004D6F64656D206973204F6E2E0D0A0000AD
:10133000000000203030302E3030302E3030302E53
:10134000303030004469646E277420706F776572A6
:10135000206F6E2072696768740A000070B50A4DCC
:101360000446D0F84008296842F21076081AB042C4
:1013700003DB70BD7D2000F09BFFD4F84008296896
:10138000081AB042F6DB70BD000000202DE9F047DE
:10139000154E8AB005463768002040F2DC594FF4FC
:1013A000FA7A42F21078C5F8480810E04B466A46CF
:1013B0000EA1284600F0BBFE040005D10C220EA1B0
:1013C0006846FEF77DFF50B1504600F071FF30686F
:1013D000C11B4145EADB0C480AB0BDE8F08701209B
:1013E000C5F848082046F7E70000002041542B4389
:1013F00050494E3F0D0A00002B4350494E3A2052AF
:101400004541445900000000020000FF00F6F800CA
:10141000002905C891B201D0FFF7D6BCFFF7D2BCB6
:1014200000F50B60002905C891B201D0FFF7CCBCD4
:10143000FFF7C8BC00F60410002905C891B201D01E
:10144000FFF7C2BCFFF7BEBC7047000038B50021F3
:10145000164800F07BF84FF4E06000F05DF80020E3
:101460008DF8010027218DF800108DF8020001246D
:101470008DF80340684600F01DF847208DF8000005
:101480008DF8024002258DF80340684600F012F8FE
:1014900031208DF800008DF8025003258DF80340AF
:1014A000684600F007F80248057038BD00000208E1
:1014B0000400002070B50F21C478027801234FF09A
:1014C000E026E4B1124C246804F4E064C4F5E0645E
:1014D000C4F30724C4F10405E1404478AC408578A6
:1014E0000D4025430B4C29011155007800F01F01D8
:1014F0008B40400906EB8000C0F8003170BD02F05F
:101500001F008340500906EB8000C0F8803170BD99
:101510000CED00E000E400E00249084302490860E5
:10152000704700000000FA050CED00E00907090E05
:10153000002803DA00F00F00024A00E0024A81545A
:101540007047000014ED00E000E400E0024A1140A2
:10155000014302480160704780FFFF1F08ED00E073
:1015600010B50446D0F85408AAB068B913460A4624
:1015700008A1684603F0B6FA0D4B20AA694620463A
:1015800000F0D5FD002802D1204600F0CFF82AB0A7
:1015900010BD000041542353474143543D312C3189
:1015A0002C222573222C222573220D0A0000000014
:1015B0006836020030B58BB0044640F2DC536A4610
:1015C00019A100F0B4FD05004FF00000C4F84C086C
:1015D00027D118A16846FEF751FE10B10120C4F8CA
:1015E0004C0815A16846FEF749FE10B10220C4F868
:1015F0004C0812A16846FEF741FE10B10320C4F862
:101600004C080FA16846FEF739FE10B10420C4F85B
:101610004C080CA16846FEF731FE10B10520C4F855
:101620004C080BB0284630BD41542B435245473F30
:101630000D0A00002C3100002C3200002C33000079
:101640002C3400002C35000030B58BB0044640F23D
:10165000DC536A4619A100F06AFD05004FF0000056
:10166000C4F8500827D118A16846FEF707FE10B14C
:101670000120C4F8500815A16846FEF7FFFD10B11F
:101680000220C4F8500812A16846FEF7F7FD10B119
:101690000320C4F850080FA16846FEF7EFFD10B113
:1016A0000420C4F850080CA16846FEF7E7FD10B10D
:1016B0000520C4F850080BB0284630BD41542B43D8
:1016C000475245473F0D0A002C3100002C320000E4
:1016D0002C3300002C3400002C35000070B505467A
:1016E000D0F854084FF4FA66012808D0304600F0CC
:1016F000DFFD284600F01AF80446204670BD064A71
:1017000006A1284600F003FD0446304600F0D0FD57
:10171000002CEED0F1E7000068360200415423535C
:10172000474143543D312C300D0A0000F0B58BB0D9
:10173000044640F2DC536A4616A100F0F8FC054668
:10174000002618A104F65800C4F85468FEF7AFFD4F
:10175000EDB918A16846FEF791FDC0B116A1684623
:10176000FEF78CFD020012D00020012106E02718B0
:10177000491C401C87F85838102802DA535C222B89
:10178000F5D1204480F858680120C4F854080BB003
:101790002846F0BD415423434750414444523D3113
:1017A0000D0A00003030302E3030302E3030302EE8
:1017B000303030002E00000022000000F0B58BB069
:1017C000044640F2DC536A4610A100F0B0FC05006C
:1017D00018D111A16846FEF751FD2B46020084F88E
:1017E00068380FD00021022006E06718401C491C11
:1017F00087F86868102902DA165C222EF5D1601885
:1018000080F868380BB02846F0BD000041542B43E7
:101810004F50533F0D0A00002C220000F0B58DB050
:10182000044614A740F2DC536A4614A100F07FFC82
:1018300006004FF06300C4F878084FF00000C4F8C9
:101840007C0814D139466846FEF718FD05000ED015
:101850003846FEF725FD28440BAB0AAA0AA1FEF77D
:101860003FFD0A98C4F878080B98C4F87C080DB0BE
:101870003046F0BD2B4353513A20000041542B43D6
:1018800053510D0A0000000025642C20256400003F
:1018900010B5A0B004460A4605A1684603F022F937
:1018A00040F2DC526946204600F031FC20B010BD09
:1018B00041542B434744434F4E543D312C22495011
:1018C000222C222573222C22302E302E302E302234
:1018D0002C302C300D0A00002DE9F0410D4C0E4645
:1018E000804625684FF4FA770CE04046FFF762FE29
:1018F00028B9D8F84C18012909D0052907D038464D
:1019000000F0D6FC2068401BB042EEDB0248BDE888
:10191000F081000000000020020000FF2DE9F041EE
:101920000D4C0E46804625684FF4FA770CE0404691
:10193000FFF78AFE28B9D8F85018012909D00529DF
:1019400007D0384600F0B4FC2068401BB042EEDB04
:101950000248BDE8F081000000000020020000FF06
:101960007047000010B5042834D020283BD0002850
:101970002FD10121274802F05BFF0121264802F008
:1019800057FF244803F034F8234803F031F8234C80
:10199000E068FFF75AFB0128A06930D020F0020070
:1019A000A061E068FFF75FFB0128A0692AD020F062
:1019B0000400A0610020E168C1F83C08A06903F0C0
:1019C0004DF8E068FFF73AFB08B30020E168C1F882
:1019D000800810BD0F4802F0A7FE00210D4802F05C
:1019E00027FF0C4807E00C4802F09EFE00210A4841
:1019F00002F01EFF0848BDE8104002F0F9BF40F0B9
:101A00000200CDE740F00400A0610120D3E70120EF
:101A1000DCE700007C010020980A00200400002080
:101A200010B50446022223A1FEF74AFC00283ED04E
:101A3000042221A12046FEF743FC002837D00522CE
:101A40001FA12046FEF73CFC002830D007221EA133
:101A50002046FEF735FC002829D005221CA120468F
:101A6000FEF72EFC002822D00A221BA12046FEF7FA
:101A700027FCE0B10A221BA12046FEF721FCB0B1F1
:101A800009221BA12046FEF71BFC80B10A221BA1E4
:101A90002046FEF715FC50B10DA12046FEF7EEFBE7
:101AA00028B916A12046FEF7E9FB002800D0012046
:101AB00010BD00004F4B000052494E47000000008F
:101AC0005352494E47000000434F4E4E4543540089
:101AD0004552524F520000002B434D532045525265
:101AE0004F5200002B434D45204552524F520000AB
:101AF0004E4F20414E535745520000004E4F204359
:101B00004152524945520000044A0029116801D04F
:101B1000014300E08143116070470000303802400B
:101B2000044A0029116801D0014300E0814311609B
:101B30007047000040380240044A0029116801D073
:101B4000014300E0814311607047000044380240C7
:101B500030B51D4A11681D4B11F00C0103D004294A
:101B600001D0082901D0036015E01749091F0C684E
:101B7000C4F380550C6804F03F04B3FBF4F30C6825
:101B80000968C4F388146343C1F30141491C490047
:101B9000B3FBF1F1016011680F2303EA11110C4B43
:101BA0005C5C0168E14041601468072505EA942403
:101BB0001C5D21FA04F48460126805EA52329A5CD2
:101BC000D140C16030BD0000083802400024F4005C
:101BD000540000202DE9F0470E46184900250F68F3
:101BE00000F5866988464846FEF7DAFF00F088FC73
:101BF000040009D0FFF714FF98B911A12046FEF7A1
:101C00003DFB70B9002404E04846FFF71FF83E286A
:101C10000CD00A2000F04CFBD8F80000C51BB542E0
:101C2000E1DBB54207DB07A0BDE8F0874846FEF7D9
:101C30006EFF03A0F8E72046F6E700000000002052
:101C40003E00000054494D454F5554002DE9F047E2
:101C5000DFF8849017460E46D9F80080002400F57E
:101C6000866A5046FEF79CFF00F04AFC050018D03B
:101C7000FFF7D6FE18BB2846FEF712FB04000ED075
:101C8000024629463046FEF7D5FA01E0641E06D02A
:101C9000301910F8010C0D28F8D00A28F6D00025CC
:101CA00004E05046FEF7D2FF3E280DD00A2000F097
:101CB000FFFAD9F80010A1EB0804BC42D1DBBC420A
:101CC00007DB06A0BDE8F0875046FEF720FF05A021
:101CD000F8E72846F6E700000000002054494D458B
:101CE0004F5554003E0000002DE9F047DFF86880B2
:101CF00016468A46D8F80070002400F586694846E2
:101D0000FEF74EFF00F0FCFB050016D0FFF788FE43
:101D1000D8B92846FEF7C4FA04000DD00D20285586
:101D200029190A204870A21C29465046FEF782FA5B
:101D30000AEB040000F1020A00250A2000F0B8FABC
:101D4000D8F80000C41BB442D9DBB44202DB03A0C4
:101D5000BDE8F0872846FBE70000002054494D45C8
:101D60004F5554000149086070470000382C01406D
:101D7000034A0146002012680A4200D00120704741
:101D8000342C014000F00CB8044A0029116801D03D
:101D9000014300E081431160704700003C2C01408A
:101DA00070B5104CE1680020012908D10E49086087
:101DB000091D40F24C4008600C20FEF717FE207011
:101DC0004FF480752846FFF7D3FF40B12846FFF750
:101DD000C9FF00212846FFF7D7FF012020612078A6
:101DE00070BD000024000020082C0140F0B5CFB0E9
:101DF0000F46054601244FF496716846FEF733FA04
:101E00000020386048F6B8036A460EA1284600F064
:101E1000A0F9060012D10FA1684607E0641C224613
:101E20000FA14BA802F05EFE4BA92846FEF726FA4A
:101E30000500F3D1002C00DD641E3C604FB030463D
:101E4000F0BD000041542B434D474C3D22414C4CCA
:101E5000220D0A002B434D474C3A20310000000070
:101E60002B434D474C3A20256400000010B586B046
:101E700004460A4605A1684602F034FE40F2DC52F0
:101E80006946204600F043F906B010BD41542B438B
:101E90004D47443D25642C300D0A00002DE9F047E4
:101EA000D0B00C468046002715463E464FF496714A
:101EB0006846FEF7D8F92A4641A14BA802F012FE67
:101EC00048F6B8036A464BA9404600F042F95FEA7B
:101ED000000971D13EA16846FEF7D0F95FEA00081B
:101EE0006AD065600025A560E56025616561A56132
:101EF000E56125626562A562E56225636563A563A8
:101F0000E56325646564A564E564256504F1600006
:101F1000FF2182466565FEF7A6F908F10800E56530
:101F200003E0E219761C11727F1C815D2229F8D131
:101F30008219D21C0021084603E06518401C2B764C
:101F4000491C135C222BF8D10244D21C0021084604
:101F500004E06518401C85F82830491C135C222BCE
:101F6000F7D10244D21C0021084604E06518401C49
:101F700085F83830491C135C2C2BF7D10244521CD5
:101F80000021084604E06518401C85F84830491CCB
:101F9000135C222BF7D10244D21C0021084604E036
:101FA0006518401C85F86030491C135C0D2BF7D177
:101FB0005046FEF775F9E06550B04846BDE8F08739
:101FC00041542B434D47523D25640D0A000000004B
:101FD0002B434D47523A202200000000F0B597B045
:101FE000074600201490C1F860010D461C461646B5
:101FF00028216846FEF737F922461DA10AA802F0FB
:1020000071FD40F2DC520AA9384600F080F81C4904
:102010000446884228D13146384602F0DCFC384676
:1020200002F047FC1A208DF8540015AA0121384609
:1020300002F0B2FC384602F03CFC48F6B8026946B1
:102040003846FFF703FEFEF7C3FE04000CD10DA1D6
:102050006846FEF713F920B1C01D14AA0BA1FEF7C4
:102060003FF91498C5F8600117B02046F0BD000094
:1020700041542B434D47533D222573220D0A000046
:102080000F0000FF2B434D47533A2000256400000A
:1020900070B540F2DC54054622460DA100F037F839
:1020A000002814D122460DA1284600F030F800285F
:1020B0000DD122460EA1284600F029F8002806D1AD
:1020C00022462846BDE870400DA100F020B870BD42
:1020D00041542B434D47463D310D0A0041542B439B
:1020E0004E4D493D302C302C302C302C300D0A0018
:1020F00041542B43504D533D22534D220D0A0000B5
:1021000041542B435344483D300D0A00704770B58D
:102110001546044602F05FFC204602F0CAFB294641
:102120002046FFF757FDBDE87040FEF751BE70B581
:102130001D461646044602F04EFC204602F0B9FB4E
:102140002A4631462046FFF781FDBDE87040FEF784
:102150003FBE70B51D461646044602F03CFC2046C4
:1021600002F0A7FB2A4631462046FFF7BDFDBDE839
:102170007040FEF72DBE00000CB500212A480191E9
:102180000091026842F4803202604FF4A06302685A
:1021900002F400320092019A521C0192009A12B984
:1021A000019A9A42F3D102689303204A03D5012190
:1021B00000911F4905E003689B0733D50221009178
:1021C0001C49116019493C310A6842F080520A608A
:1021D00019490A6842F480420A601449091D0A68D4
:1021E0000A600A6842F400420A600A6842F4A05297
:1021F0000A60026842F08072026002689201FCD5B7
:102200000E4A40F205701060086820F00300086074
:10221000086840F0020008600868C0F381000228E6
:10222000FAD10CBD00910CBD0038024004380240C8
:10223000105440071054000700700040003C02405A
:102240004FF4E13109A002F03DFC184C02E064209B
:1022500000F02EF8A0682430FEF702FD0028F6D129
:1022600030BFD4E9021002F031FBF9E70D0A466FE6
:102270007277617264696E672055534152543320FE
:1022800028444239202D2031313532303029207414
:102290006F20555341525436202847534D204D4FFF
:1022A00044454D202564290D0A000000040000204B
:1022B000044B10B51A6830BF19688C1A8442FADBD7
:1022C000881A10BD000000201FB504460A4606A16A
:1022D000684602F007FC48F6B80269462046FFF758
:1022E00016FF04B010BD000041542353413D256446
:1022F0000D0A000030B58DB005460020109CC5F8D1
:102300008008CDE900240A460AA102A802F0EAFBEF
:1023100048F6B80202A92846FFF7F9FE24B90C498D
:10232000884201D1002001E0002801D1C5F884488D
:102330000DB030BD41542353443D25642C302C2531
:10234000732C222573222C302C302C25640D0A008E
:102350000C0000FF2DE9F041054698B000208846AA
:10236000C5F88008174628216846FDF77CFF3B46E4
:10237000424614A10AA802F0B5FB40F2DC563246F0
:102380000AA92846FFF7C3FE044610F5600F15D1D1
:1023900033466A460FA12846FFF7C9FE04000DD157
:1023A0003B4642460EA114A802F09CFB14A96846C5
:1023B000FDF764FF01460EA002F084FB18B0204632
:1023C000BDE8F081415423534C3D25642C312C252C
:1023D000730D0A00415423534C3F0D0A00000000C6
:1023E000415423534C3A2025642C257300000000EF
:1023F000722076616C75653A205B25735D0A00007A
:10240000F0B58BB007460E460A4613A1684602F0A7
:1024100069FB40F2DC552A4669463846FFF777FEED
:10242000044628216846FDF71EFF324611A1684682
:1024300002F058FB64B92A4669463846FFF767FE42
:10244000040005D12A4612A13846FFF760FE044673
:102450000BB02046F0BD0000415423534346473D96
:1024600025642C312C313530302C302C3330302C4D
:10247000310D0A00415423534346474558543D25E6
:10248000642C302C302C33302C302C300D0A0000D2
:10249000415423534B49504553433D310D0A0000ED
:1024A0002DE9F04115460E4640F2DC578AB08046D1
:1024B0003A460AA1FFF72BFE04462B4632460AA1F4
:1024C000684602F00FFB2CB93A4669464046FFF7D2
:1024D0001EFE04460AB02046BDE8F0814154234662
:1024E00052574C3D320D0A004154234652574C3D41
:1024F000312C222573222C222573220D0A00000084
:1025000008B97047401C01780D29FBD00A29F9D081
:102510002029F7D00929F5D0704700000348016849
:10252000491C01600020FFF71DBA000000000020D8
:10253000114810B5016841F4700101600F4801684D
:1025400041F0010101600D4A00210832116002686A
:102550000B4B1A400260031D0A4A1A60026822F4FB
:102560008022026005480C300160FFF705FE024939
:1025700005488039086010BD88ED00E00038024051
:10258000FFFFF6FE103000240000020810B526A25E
:1025900028A12BA002F096FA39A002F093FA3CA0F1
:1025A00002F090FA42A002F08DFA4AA002F08AFAF4
:1025B00051A002F087FA56A002F084FA5DA002F062
:1025C00081FA68A002F07EFA6BA002F07BFA75A097
:1025D00002F078FA82A002F075FA90A002F072FA86
:1025E00092A002F06FFA9BA002F06CFAA4A002F095
:1025F00069FAACA002F066FAAD4802F063FAADA049
:1026000002F060FAB4A002F05DFABBA002F05AFA40
:10261000C1A002F057FAA648483002F053FABDE8CC
:102620001040C1A002F04EBA4A756E2031382032F7
:102630003031350031343A33393A34320000000059
:102640005465726D696E616C204D6F6465204865DC
:102650006C70202D205553415254332044656275CF
:102660006720506F727420285465726D696E75739F
:102670002032292025732025730D0A0D0A00000041
:102680002D2D5554494C49544945532D2D0D0A00C3
:102690003F2C2048202020202020202020202054B3
:1026A0006869732068656C7020706167650D0A0049
:1026B000512C2051554954202020202020202045F5
:1026C000786974205465726D696E616C204D6F6419
:1026D000650D0A004E554B4520202020202020204B
:1026E0002020204572617365204170706C696361C0
:1026F00074696F6E0D0A00005245424F4F542020FE
:10270000202020202020205265626F6F740D0A0067
:1027100044465553452020202020202020202052B0
:1027200065626F6F7420772F2044667553650D0ABC
:1027300000000000464F52574152442020202020E4
:10274000202020466F7277617264205345524941C0
:102750004C3A204442393C2D3E4D4F44454D0D0AE4
:10276000000000002D2D4241534943204D4F444568
:102770004D2D2D0D0A0000004D4F44454D20782071
:10278000202020202020204E6F6E653D5374617400
:1027900075732C20303D4F66662C20313D4F6E0DF9
:1027A0000A000000494E49542020202020202020EB
:1027B000202020496E697469616C697A65204D6FCB
:1027C00064656D20576974682042617369632041B4
:1027D0005420636F6D6D616E64730D0A000000001C
:1027E0004944454E54494659202020202020204964
:1027F00064656E74696669636174696F6E20496EA1
:10280000666F726D6174696F6E206F6620746865A3
:10281000204D6F64656D0D0A000000002D2D4E45A2
:1028200054574F524B2D2D0D0A0000005245474979
:102830005354455220202020202020526567697380
:10284000746572206F6E204E6574776F726B0D0A1F
:10285000000000004143544956415445207820204F
:10286000202020416374697661746520436F6E7423
:1028700065787420772F20782041504E0D0A000093
:10288000444541435449564154452020202020448A
:1028900065616374697661746520436F6E746578F1
:1028A000740D0A002D2D534D532D2D0D0A000000DF
:1028B0006C540208434845434B534D53202020207D
:1028C000202020436865636B20534D53204D657372
:1028D00073616765730D0A00474554534D53207863
:1028E0002020202020202050726F636573732053B6
:1028F0004D5320780D0A000044454C534D53207829
:102900002020202020202044656C65746520534DD4
:102910005320780D0A0000002D2D534F434B455492
:102920002D2D0D0A00000000534F434B45544C2001
:10293000312020202020204F70656E206120736F91
:10294000636B6574206C697374656E3A20313D5019
:102950006F72740D0A0000002DE9FF4F0646014614
:10296000C1B015460024FE4802F0ACF8FD4FD7F880
:1029700000A0FDA002F0A6F805F658003690429897
:10298000A0462430379006EB4600C0EBC61901F094
:1029900011B87DD1399803E0429800F586603990EE
:1029A000FEF7FEF8FFF7ACFD060000F0FC8730787C
:1029B0000028FAD0EEA1304602F0F4FC002801F025
:1029C0000180ECA1304602F0EDFC0028F7D0EBA12D
:1029D000304602F0E7FC0028F1D0EAA1304602F0D0
:1029E000E1FC00287ED0E8A1304602F0DBFC0028A4
:1029F000F8D0E6A1304602F0D5FC00287FD00622B0
:102A0000E4A1304602F0E7FC00287DD0E3A1304687
:102A100002F0C8FC002867D0E2A1304602F0C2FCF8
:102A200000286FD00522E1A1304602F0D4FC002836
:102A300069D00422DFA1304602F0CDFC002873D01B
:102A40000922DEA1304602F0C6FC00286DD0DEA1CE
:102A5000304602F0A7FC002868D00822DDA13046ED
:102A600002F0B9FC002874D0DDA1304602F09AFCD7
:102A700000286FD00722DDA1304602F0ACFC002810
:102A800069D0DCA1304602F08DFC002879D000E04E
:102A900031E00622DAA1304602F09DFC002871D018
:102AA0000622D9A1304602F096FC00286BD00722FE
:102AB000D7A1304602F08FFC002871D00722D6A1A2
:102AC000304602F088FC00286BD0D5A1304602F0D9
:102AD00069FC002800F06487D3A000BF01F0F2FF7A
:102AE000A1A002E00BE00FE021E001F0EBFF08F114
:102AF000010800F05BBF429801F0F8FE52E7FFF7D3
:102B000045FDEDE728E03FE0D0A001F0DBFF01E06C
:102B1000FFF7CEFB3798FEF7A3F800284FF06400CC
:102B2000F6D1FFF7C5FB29E070E07FE0D3E0CBA052
:102B300001F0C8FF02E000BFFFF7BAFB3798FEF7CD
:102B40008FF800284FF06400F6D1FFF7B1FBC649BB
:102B500012E0D1E212E333E3C4A001F0B3FF01E0DD
:102B6000FFF7A6FB3798FEF77BF800284FF06400CC
:102B7000F6D1FFF79DFBC049C0480160FDF718FB87
:102B8000AEE76EE388E3E4E301AABDA1701DFDF7A3
:102B9000A7FB012806D0D5F83C0878B3B9A133E0EB
:102BA000E6E3E6E30198012814D002281FD00328A9
:102BB0001FD0052823D0002892D1B3A001F082FFB6
:102BC00040F6E4412846FEF76DFA0221B448FEF7CC
:102BD000F9F885E7B3A001F075FF0221B048FEF7D0
:102BE000F3F841F288312846FEF702FB78E700212E
:102BF00000E001212846FEF71DFC71E703E02846AE
:102C0000FEF73FFA6CE7ADA1ADA042E3D5F83C0872
:102C100050B1AFA001F056FF284601F003F80400C0
:102C2000AED00146B3A034E3BBA057E7D5F83C08CB
:102C30000028F9D0BCA001F045FF2821C248FDF7CB
:102C400012FB2821C148FDF70EFB2821C048FDF7E3
:102C50000AFB2821BF48FDF706FB40F2DC5633464D
:102C6000B94ABDA12846FFF762FA040017D13346DE
:102C7000B64ABCA12846FFF75AFA04000FD13346E2
:102C8000B34ABBA12846FFF752FA040007D13346E6
:102C9000B04ABAA12846FFF74AFA040002D001461A
:102CA000B9A0F6E2C3A001F00DFFC7A001F00AFF32
:102CB000D24EA54ACDA1304601F0F6FEA34AD0A1DE
:102CC000304601F0F1FEA34AD1A1304601F0ECFEFE
:102CD0009F4AD3A10BE2D5F83C080028A4D0D4A089
:102CE00001F0F0FE48F6B80631462846FEF7F4FD3E
:102CF000040015D131462846FEF710FE04000FD11E
:102D00002846FEF78BFD04000AD10522D0A18F488A
:102D1000FDF7D6FA38B92846FEF750FD040002D078
:102D20000146CDA0B5E2D5A001F0CCFEA6A001F0F1
:102D3000C9FEB24ED7A13046D5F84C2801F0B4FEFA
:102D4000D9A13046D5F8502801F0AEFED5F8782844
:102D50006FF0700000EB4203D8A13046BCE10000E8
:102D6000005502080000002052454144590D0A0058
:102D70007100000071756974000000006578697465
:102D8000000000003F0000006800000068656C70F3
:102D9000000000007265626F6F7400006E756B65F5
:102DA0000000000064667573650000006D6F646567
:102DB0006D000000696E6974000000006964656E52
:102DC00074696679000000007265676973746572E2
:102DD00000000000616374697661746500000000A2
:102DE00064656163746976617465000073656E641F
:102DF000736D7300636865636B736D73000000002F
:102E0000676574736D73000064656C736D730000A7
:102E1000736F636B65746400736F636B65746C00D0
:102E2000666F727761726400556E6B6E6F776E209D
:102E3000636F6D6D616E642C205479706520512034
:102E4000746F20717569740D0A0000005265626F1D
:102E50006F74696E672E2E0D0A0000004E756B6947
:102E60006E672E2E0D0A00000100FECA44667553DF
:102E7000652E2E0D0A000000EFBEEFBEFCFF012004
:102E8000202578004F6E00005368757474696E6772
:102E900020646F776E206D6F64656D2E2E0A0000C2
:102EA000000802404272696E67696E672075702083
:102EB0006D6F64656D2E2E0A000000004F6666007F
:102EC0004D6F64656D2053746174652025730A002D
:102ED00052756E6E696E6720696E697469616C699E
:102EE0007A6174696F6E20726F7574696E652E0DEC
:102EF0000A0000004572726F723A204D6F64656D72
:102F000020496E697469616C697A6174696F6E3A9F
:102F100020253038580A00004D6F64656D204E6FD3
:102F200074206F6E2E0D0A00476174686572696EB9
:102F300067204D6F64656D20496E666F726D6174B8
:102F4000696F6E2E0D0A0000640000208C000020C6
:102F5000B4000020DC00002041542B43474D490DB4
:102F60000A00000041542B43474D4D0D0A0000005C
:102F700041542B43474D520D0A00000041542B434E
:102F800047534E0D0A0000004572726F723A204797
:102F90006174686572696E67204D6F64656D204964
:102FA0006E666F726D6174696F6E3A2025303858A5
:102FB0000A0000004D6F64656D20496E666F726D8A
:102FC0006174696F6E0D0A002D2D2D2D2D2D2D2D67
:102FD0002D2D2D2D2D2D2D2D2D2D2D2D2D2D2D2D21
:102FE0002D2D2D2D2D2D0D0A000000004D616B653E
:102FF0003A20202020202025730D0A007856341214
:103000004D6F64656C3A202020202025730D0A0046
:1030100053657269616C3A2020202025730D0A00E7
:103020004669726D776172653A202025730D0A003A
:1030300052756E6E696E672052656769737472614E
:1030400074696F6E20526F7574696E652E0D0A007B
:1030500048453931300000004572726F723A205590
:103060006E61626C6520746F207265676973746548
:10307000723A20253038580A000000004E657477F7
:103080006F726B20496E666F726D6174696F6E0D41
:103090000A00000043656C6C205265673A202020CE
:1030A00025690D0A000000004461746120526567C3
:1030B0003A20202025690D0A000000005253534990
:1030C0003A20202020202020256920282564206403
:1030D000426D290D0A00000001F0E6FCA6A1304671
:1030E000D5F87C2801F0E0FC05F66802A7A130467F
:1030F00001F0DAFCAAA0F1E4142104A8FDF7B3F86A
:10310000D5F84C08B8B304A8FDF7CAF83044093024
:1031100004AAACA1FDF7E4F8012804D0AAA000BFDE
:1031200001F0D0FC25E0ADA001F0CCFC04A92846BC
:10313000FEF7AEFB040003D12846FEF7F7FA04467B
:10314000D5F85408204305D18FA28FA12846FEF759
:1031500007FA044624B12146A6A001F0B3FC08E01A
:10316000ACA001F0AFFCD5F85418AFA0369A01F02E
:10317000A9FC1D217FE3FFE7B2A0D1E7D5F84C08F9
:10318000E0B1B6A001F09EFC2846FEF7CFFA044657
:10319000D5F8540820B124B92846FEF79FFA044612
:1031A00014B12146B3A074E0BBA001F08BFCD5F8AC
:1031B00054189DA0369A01F085FC91E4A1A08DE4FD
:1031C000C82104A8FDF74FF800203C903D903E90A8
:1031D0003F90D5F84C08002841D03CAA79A106F1CF
:1031E0000800FDF77DF8012803D0AFA001F06AFCCC
:1031F0002EE03CA8FDF754F83044093004AA71A130
:10320000FDF76EF8012813D0AEA001F05BFCB948C1
:10321000B64AB7498DE80700B7A3BAA2BCA104A873
:1032200001F060FC2846FEF733FF040004D00BE0F9
:10323000C4A001F047FCF5E73CAB04AA284644993A
:10324000FEF7CCFE040005D00146C5A001F03AFC13
:10325000E1219FE34498D0F86011C8A0F6E779A077
:10326000C4E7D5F84C080028A8D0CDA001F02AFC6E
:103270002846FEF70DFF040005D128464499FEF7C5
:10328000B5FD040002D00146CCA002E044980168DC
:10329000D1A001F017FC23E4D5F84C08002853D046
:1032A00001AAAFF22441B01DFDF71AF801280BD195
:1032B000019949B1CFA001F005FC14B9019A4499D4
:1032C0000CE02146D2A04BE244980168D8A001F05E
:1032D000F9FB002CF5D14498014602682846FEF718
:1032E000DDFD0400EDD1DCA001F0ECFBAFF22830F5
:1032F00001F0E8FB44984168DDA001F0E3FB44994C
:10330000E2A0083101F0DEFB4499E7A0183101F09A
:10331000D9FB4499EBA0283101F0D4FB4499F0A0EB
:10332000383101F0CFFB4499F4A0483101F0CAFBD9
:103330004499F9A0603101F0C5FB4498C16DFDA02E
:1033400001F0C0FB16A01DE23EA01BE20199C91DC1
:1033500020E3D5F84C080028F6D001AAAFF2E041EE
:10336000B01DFCF7BDFF012804D1019911B1EFE1B7
:103370000BE283E2F7E100004245523A2020202090
:103380002020202025690D0A000000004E6574777A
:103390006F726B3A2020202025730D0A0000000078
:1033A0002D2D2D2D2D2D2D2D2D2D2D2D2D2D2D2D4D
:1033B0002D2D2D2D2D2D2D2D2D2D2D2D2D2D0D0A80
:1033C0000D0A0000257300004E6F2041504E20452D
:1033D0006E74657265642E0D0A00000041637469A5
:1033E000766174696E6720436F6E746578742E0D14
:1033F0000A0000004572726F723A20437265617470
:10340000696E6720436F6E746578743A2025303892
:10341000580A0000436F6E746578742073657420D9
:1034200075702E0D0A00000053746174653A205BBC
:1034300025645D207C7C2049503A205B25735D0D1E
:103440000A0000004D6F64656D204E6F7420526558
:1034500067697374657265642E0D0A004465616363
:103460007469766174696E6720436F6E74657874F1
:103470002E0D0A004572726F723A205465617269AE
:103480006E6720446F776E20436F6E746578743A70
:1034900020253038580A0000436F6E746578742018
:1034A000646F776E2E0D0A004E6F2050686F6E6548
:1034B000204E756D62657220466F756E642E0D0A22
:1034C000000000004E6F204D6573736167652046F4
:1034D0006F756E642C2053656E64696E672042615F
:1034E00073696320534D532E0D0A00002C010020F8
:1034F00004010020DC00002031343A33393A343200
:10350000000000004A756E2031382032303135001D
:10351000506F77657265642055703A0A20257320D4
:103520002573200A494D45493A2025730A494D53D0
:10353000493A2025730A49434349443A2025730AEE
:103540000000000053656E64696E67205370656308
:10355000696669656420534D532E0D0A0000000012
:103560004572726F723A2053656E64696E672053BC
:103570004D533A20253038580A000000534D53204F
:1035800053656E742C205265666572656E636520A6
:10359000496E6465783A205B25645D2E0D0A000053
:1035A000436865636B696E6720666F722053746F42
:1035B00072656420534D532E0D0A00004572726FE0
:1035C000723A20436865636B696E6720534D533AC6
:1035D00020253038580A00005B25645D204D657356
:1035E000736167657320417661696C61626C652EF9
:1035F0000D0A000050726F63657373696E67204D2A
:103600006573736167653A205B25645D0D0A000090
:103610004572726F723A2050726F63657373696E90
:103620006720534D533A20253038580A00000000D7
:1036300050726F63657373696E67204C6173742099
:103640004D6573736167652053746F7265643A20CA
:103650005B25645D2E0D0A000D0A4D65737361676D
:103660006520496E666F726D6174696F6E0D0A0038
:10367000496E6465782076616C75653A202020205B
:1036800020202020205B25645D0D0A0053746174A6
:103690002076616C75653A20202020202020202093
:1036A000205B25735D0A00004F726967696E617463
:1036B000696E67504E2076616C75653A205B2573A4
:1036C0005D0A0000416C7068612076616C75653A36
:1036D0002020202020202020205B25735D0A000070
:1036E000446174652076616C75653A202020202045
:1036F00020202020205B25735D0A000054696D6541
:103700002076616C75653A20202020202020202022
:10371000205B25735D0A0000446174612076616C52
:1037200075653A202020202020202020205B257352
:103730005D0A00004C656E6774682076616C756583
:103740003A20202020202020205B25645D0A0000F4
:103750009FA001F0B7F90CB901990DE02146A3A093
:1037600001F0B0F9F2E544980168A7A001F0AAF9C8
:10377000002CF3D1449801682846FEF777FB04003B
:10378000ECD1ABA001F09EF9E0E54FF0040B01276E
:10379000282104A8FCF767FD00200E900F90D5F8B3
:1037A0005008002868D0D5F85408002864D004AA2E
:1037B000A4A106F10800FCF793FD012801D0A3A005
:1037C00056E004A8FCF76CFD304409300EAAAFF2B5
:1037D0000C41FCF785FD012801D0A0A048E00121A3
:1037E0002846FEF70DFE040041D10EAA04A9A0A0B0
:1037F00001F068F95946A8A001F064F914E030BF5F
:10380000002000900EAB04AA01212846FEF772FDAD
:10381000040007F101070CD05F4503DC3946A5A081
:1038200001F050F95F4522DCD5F880080028E6D089
:10383000ECB9D5F88008D0B1A9A001F043F904E0B3
:1038400030BF2846429901F041F8D5F88008002899
:10385000F6D102E06420FEF72BFD3798FDF700FA61
:103860000028F7D1D5F8800820B9A5A000E0AAA0CB
:1038700001F028F939218DE0AEA0F9E7002004908D
:1038800001900290D5F85008002873D0D5F854085C
:1038900000286FD001AAAFF2D44106F10800FCF76E
:1038A0001FFD012801D06DA071E001212846FEF71F
:1038B000A7FD040012D1ACA2ABA12846FEF7F0FD93
:1038C00004000BD101AAAAA0369901F0FBF801AAC5
:1038D00001212846FEF73EFD040001D08EA056E0EF
:1038E000ACA001F0EFF805F58660DFF8DCB20690D9
:1038F00031E030BF0698FDF753F9FEF701FE0700EF
:103900000ED0FDF765FA0446584508D1F81D04AA03
:10391000AEA1FCF7E5FC0498C5F8880807E024B9D7
:103920002846FDF703FF040015D05C4505D1284665
:10393000D5F88818FEF7C8FC0446A348401C84420A
:1039400013D1A3A0D5F8881801F0BCF8A9A001F004
:10395000B9F8002409E0D5F854080028C9D104E0DA
:1039600030BF2846429900F0B1FFD5F88008002802
:10397000F6D103E012E06420FEF79AFC3798FDF7D9
:103980006FF90028F7D1D5F8800810B95CA001F0D4
:1039900099F811213046FCF766FC0EE465A0F6E7C5
:1039A000FEF74EFC09E46420FEF782FCB8F1000F3C
:1039B0007EF4EFAF94480168A1EB0A01B1EBC90FA7
:1039C000FEF6EAAF45B091A0BDE8F04F01F07AB83D
:1039D00044656C6574696E67204D657373616765D6
:1039E0003A205B25645D0D0A000000004572726F8D
:1039F000723A2044656C6574696E6720534D533A82
:103A000020253038580A000044656C6574696E677B
:103A1000204C617374204D65737361676520537426
:103A20006F7265643A205B25645D2E0D0A0000000C
:103A30000D0A4D6573736167652044656C65746537
:103A4000640D0A00255B5E3A5D0000004E6F204960
:103A50005020466F756E642E0D0A00004E6F205088
:103A60006F727420466F756E642E0D0A00000000A0
:103A70004F70656E696E6720536F636B6574207459
:103A80006F20736572766572205B25735D3A5B25E6
:103A9000735D2E0D0A0000004C696D697465642029
:103AA000746F205B25645D2074726965732E0D0A46
:103AB000000000004661696C656420746F206F70BF
:103AC000656E2C20747279696E6720616761696E1A
:103AD0002028547279205B25645D290D0A000000BE
:103AE000536F636B6574206F70656E2C20666F7208
:103AF00077617264696E6720554152542E0D0A0039
:103B00000D0A536F636B657420436C6F7365642E8D
:103B10000D0A0D0A00000000536F636B6574205599
:103B20006E61626C6520746F204F70656E2E0D0A99
:103B3000000000004D6F64656D204E6F742052656B
:103B40006769737465726564204F52206E6F7420CC
:103B5000636F6E74657874206973206E6F74206F64
:103B600070656E2E0D0A0000302E302E302E300083
:103B70004F70656E696E6720536F636B6574204C80
:103B8000697374656E205B25735D3A5B25735D2EEA
:103B90000D0A00004C697374656E6572204F706584
:103BA0006E2C2077616974696E6720666F7220637E
:103BB0006C69656E7420636F6E6E656374696F6E99
:103BC0002E2E2E0D0A0000000B0000FF25640000C1
:103BD000536F636B6574204F70656E206F6E20634A
:103BE0006F6E6E656374696F6E205B25645D0D0A90
:103BF00000000000466F7277617264696E6720553D
:103C00004152542E0D0A00000000002045786974CE
:103C1000696E67205465726D696E616C204D6F64CA
:103C2000650D0A002DE9F041064628218148FCF780
:103C30001AFB804828212830FCF715FB7D482821F5
:103C40005030FCF710FB7B4828217830FCF70BFB49
:103C500078482821A030FCF706FB76482821C83098
:103C6000FCF701FB73482821F030FCF7FCFA06F55D
:103C70008660FCF718FF40F2DC573A466EA13046EA
:103C8000FEF745FA04466E486E4D844206D16EA199
:103C9000284600F009FF601EBDE8F08114BB3B46DA
:103CA000644A71A13046FEF742FA04001AD1614A13
:103CB0003B4628326FA13046FEF739FA040011D195
:103CC0005C4A3B4650326EA13046FEF730FA0400A3
:103CD00008D1584A3B4678326CA13046FEF727FAA5
:103CE000040002D021466CA01DE03A4675A1304682
:103CF000FEF70DFA040005D13A4675A13046FEF7ED
:103D000006FA04464B48052275A12830FCF7D8FA7C
:103D100030B934B93A4674A13046FEF7F8F9044692
:103D200024B1214673A000F0CDFE81E04148052278
:103D30006BA12830FCF7C4FA00283AD13046FDF7D1
:103D400025FB040002D0014672A0ECE73949304659
:103D5000F031FDF7F9F8374A4FF4FA542346A03210
:103D600071A13046FEF7E3F958B93248072271A134
:103D7000A030FCF7A5FA20B92E49A731C81FFCF7DF
:103D800096FA2C4A2346C8326CA13046FEF7CFF98A
:103D9000040002D001466CA0C5E72648072274A1A2
:103DA000C830FCF78DFA20B92249CF31C81FFCF783
:103DB0007EFA71A000F086FE74A000F083FE1D4A1A
:103DC0007BA1284600F070FE1A4A7DA128322846C1
:103DD00000F06AFE174A7EA17832284600F064FEA1
:103DE000144A7FA15032284600F05EFE1148052299
:103DF0003BA12830FCF764FAB8B97DA000F062FE60
:103E000080A000F05FFE0B4A71A1A032284600F0AE
:103E10004BFE084A80A1C832284600F045FE054AFC
:103E200081A1F032284600F03FFE83A000F04AFE58
:103E3000204631E764000020415445300D0A00005F
:103E4000020000FF785634124572726F723A204DAC
:103E50006F64656D206E6F7420726573706F6E7322
:103E60006976650A0000000041542B43474D490D17
:103E70000A00000041542B43474D4D0D0A0000003D
:103E800041542B43474D520D0A00000041542B432F
:103E900047534E0D0A0000004572726F723A204778
:103EA0006174686572696E67204D6F64656D204945
:103EB0006E666F726D6174696F6E3A202530385886
:103EC0000A00000041542B434D45453D320D0A0088
:103ED00041542353454C494E543D320D0A000000D5
:103EE0004845393130000000415423454E533D319F
:103EF0000D0A00004572726F723A2047656E657256
:103F0000616C2053657474696E67733A202530388C
:103F1000580A000053494D204572726F723A2025AD
:103F20003038580A0000000041542343494D490DE0
:103F30000A0000002343494D493A200041542343DD
:103F40004349440D0A0000004572726F723A2047DF
:103F50006174686572696E672053494D20496E66C9
:103F60006F726D6174696F6E3A20253038580A009F
:103F700023434349443A20004D6F64656D20496EE8
:103F8000666F726D6174696F6E0D0A002D2D2D2D97
:103F90002D2D2D2D2D2D2D2D2D2D2D2D2D2D2D2D51
:103FA0002D2D2D2D2D2D2D2D2D2D0D0A0000000038
:103FB0004D616B653A20202020202025730D0A00DA
:103FC0004D6F64656C3A202020202025730D0A0077
:103FD00053657269616C3A2020202025730D0A0018
:103FE0004669726D776172653A202025730D0A006B
:103FF0002D2D2D2D2D2D2D2D2D2D2D2D2D2D2D0D11
:104000000A00000053494D20496E666F726D61745D
:10401000696F6E0D0A00000049434349443A20206D
:1040200020202025730D0A0050686F6E6520233A0A
:1040300020202025730D0A002D2D2D2D2D2D2D2D09
:104040002D2D2D2D2D2D2D2D2D2D2D2D2D2D2D2DA0
:104050002D2D2D2D2D2D0D0A0D0A000010B507490F
:10406000074800F087FC06490020486005490648DB
:1040700000F080FC04490920486010BD0048004061
:104080007C01002000140140980A00202DE9F04F27
:1040900004468BB001212A20FDF736FD012188045A
:1040A000FDF73EFD00258DF806508DF807500120E4
:1040B0008DF804001820604E4FF0020800908DF833
:1040C000058069463046FCF715FE18213046FCF79E
:1040D0007BFE5A4804F68C010791091DC4F88C0830
:1040E00008910215C4F890280A2104F69807C4F82C
:1040F0009418C4F898083A1D069204F69C09C61450
:104100004FF00B0CA9E8401008324D4B099289E89A
:104110004810C4F8B0388214C4F8B4280C2304F54D
:104120000A6B04F6AC0A04F50B6604F6B80907221C
:10413000C4F8B838FCF72FFEBBF80000072281B2A4
:104140003868FCF728FEBAF80000099A81B21068B6
:104150000722FCF720FEB9F80000072281B2306880
:10416000FCF719FE8DF806508DF8075008998DF868
:1041700004808DF8058008680799009008686946F2
:10418000FCF7B8FD069A6946106800903868FCF79D
:10419000B1FD2079C00702D08DF8048001E08DF8D0
:1041A0000450D4F8A80800906946D4F8A408FCF795
:1041B000A1FD2079800702D58DF8048002E001205E
:1041C0008DF80400D4F8B40800906946D4F8B0081B
:1041D000FCF790FD009881B23068FCF7F3FD4FF4D6
:1041E000E130ADF80C500290ADF80E50ADF8105023
:1041F000606881070FD0C143890704D0800705D5C7
:104200004FF4807004E04FF4407001E04FF4007010
:10421000ADF8140001E0ADF814500C20094CADF8D5
:10422000120002A9204600F023FA0121204600F0E6
:10423000DDF90BB0BDE8F08F00140240000402402D
:10424000000C0240004800400420FDF78BBB00003A
:104250002DE9F04F04468FB001215C20FDF754FC9E
:1042600001212020FDF768FC9B4804F68C024021C8
:104270004FF0060EA2E8034004F6A40980239749F4
:104280004D461A0206C50F22C4F8AC2804F6980B56
:10429000C4F8B0188114C4F8B418D8464FF0070C0D
:1042A0002F462E1DA8E8091004F50A6A0C352C4685
:1042B0000C2121608A490822C4E90112C4F830C0E7
:1042C000C4E90A1383156262C4E907134FF00308B7
:1042D000C4E903814FF400780921C4E90581A4F6FB
:1042E000B8047146FCF757FDBAF80000082281B205
:1042F000DBF80000FCF74FFD3888082281B2D9F8BE
:104300000000FCF748FD2888082281B23068FCF7DD
:1043100042FD0021204600F0ECF800254FF4E1308A
:10432000ADF814500490ADF81650ADF81850606810
:10433000810710D0C143890707D0800708D54FF403
:10434000807000BFADF81C0007E04FF44070F9E743
:10435000ADF81C8001E0ADF81C500C20ADF81A003F
:1043600004A9604800F084F9204600F00DFA5A498B
:10437000C4F804190821C4F808190320C4F80C096A
:10438000554904F6FC08C4F8F818404604210227F1
:1043900082C05249C4F8EC180126C4F8F06804F54C
:1043A0001162C4F8F45803924C4B121DC4F8103932
:1043B0000292C4F81479C4F818694FF40F618DF8AB
:1043C00007508DF8045009591838009104F6041B61
:1043D00004F6081A04F6F80900686946FCF78AFC36
:1043E000029A8DF807508DF804501068039A0090D7
:1043F00069461068FCF77EFC8DF806608DF8075062
:104400008DF80460D8F8000000908DF805706946BA
:10441000D9F80000FCF76EFCB8F8000081B2D9F8BA
:104420000000FCF7D1FC8DF806608DF807503020B5
:104430008DF8046000908DF8057069462648FCF7F9
:1044400059FC8DF806608DF807508DF804600097D0
:104450008DF8057069462048FCF74CFC8DF8066025
:104460008DF807508DF80460DAF8000000908DF8A0
:1044700005706946DBF80000FCF73CFC4FF4FE7069
:104480008DF8075000908DF8045069461348FCF7EA
:1044900031FC4FF47040009069461348FCF72AFC49
:1044A00020210D48FCF790FCB8F8000081B2D9F843
:1044B0000000FCF789FCBAF8000081B2DBF80000CC
:1044C000FCF782FC02210448FCF77EFCFA20FDF791
:1044D000EFFE0FB0BDE8F08F000802400018024068
:1044E000000C024000140140000402402020FDF7AF
:1044F00039BA2DE9FC4100258DF8075000F6BC04BF
:104500008DF8045060680F46009069462068FCF7FB
:10451000F1FBA06A00906946606AFCF7EBFBE0697A
:104520000090A069A4F6BC046946FCF7E3FB4FF0D9
:10453000010802263FB18DF806508DF807808DF8EE
:1045400004608DF80560D4F8900800906946D4F8AE
:104550008C08FCF7CFFBD4F89C0800906946D4F88F
:104560009808FCF7C7FB3FB18DF806508DF807504F
:104570008DF804808DF80560D4F8CC080090694669
:10458000D4F8C808FCF7B6FB6FB18DF806508DF86B
:1045900007502079800702D58DF8046001E08DF87E
:1045A00004808DF80560D4F8B40800906946D4F80A
:1045B000B008FCF79FFB4FB18DF807502079C0077A
:1045C00002D08DF8046001E08DF80450D4F8A808FA
:1045D00000906946D4F8A408FCF78CFBBDE8FC8188
:1045E0000A0A01219140C94301807047002981894D
:1045F00002D041F4005101E021F400518181704763
:1046000030B501F01F0201240025C1F3421304FA62
:1046100002F2012B0FD0022B0FD0838A4FEA112117
:104620000088134204FA01F400EA040001D000B14A
:104630000125284630BD8389F0E7038AEEE710B5EF
:10464000C1F3421301F01F040121A140012B07D047
:10465000022B07D01430002A026805D00A4304E078
:104660000C30F8E71030F6E78A43026010BD000016
:104670007FB50446008A0D4620F44051E88808437F
:104680002082A08941F20C618843A9882A891143BC
:104690006A8902431143A181A08A20F44071A8894C
:1046A0000843A0826846FDF753FA1D48844202D0B1
:1046B0001C48844201D1039800E00298A1890904B2
:1046C000002900EBC00101EB0010296802DA4FEA73
:1046D000410101E04FEA8101B0FBF1F26420B2FB3D
:1046E000F0F14FEA01114FEA11136FF018056B4317
:1046F00002EB8302A3891D044FF0320306D503EBBE
:10470000C202B2FBF0F000F0070005E003EB02127A
:10471000B2FBF0F000F00F00084320817FBD0000E5
:104720000010014000140140F8B5056804462888CF
:1047300004F5866616E0A9888DF80010000703D0FE
:104740002069401C20610CE0A0696A46401CA06101
:1047500001213046FCF7EEF9012802D06069401CC7
:104760006061288810F02F0FE5D140F66A152946C0
:104770002068FFF745FF002805D029462068BDE8DE
:10478000F840FFF72DBFF8BD10B504460068224978
:10479000884202D1012110201EE02049884202D126
:1047A0000121480410E01E49884202D101218804F9
:1047B0000AE01C49884202D10121C80404E01A49D8
:1047C000884204D101210805FDF7AAF906E017493E
:1047D000884203D101212020FDF7AEF90121206894
:1047E000FFF704FF0120A060012240F2277120683A
:1047F000FFF725FF012240F225512068FFF71FFF38
:104800002079C00707D02068BDE81040012240F69B
:104810006A11FFF714BF10BD0010014000440040B2
:1048200000480040004C004000500040001401408F
:104830002DE9F843056804460E462888010706D08E
:10484000A9888DF80010216901F10101216116B1DB
:10485000A16800291FD100061DD504F1240080465F
:10486000FCF7FEF940F22777B8B16A4601214046CD
:10487000FCF7F2F89DF80000A880206A401C206236
:10488000A06808B1002E06D0012239462068FFF743
:10489000D6FE0120A060BDE8F883A068012801D001
:1048A000002EF8D0002239462068FFF7C8FE00200D
:1048B000F0E710B500F1240402E06420FDF7F8FCF5
:1048C0002046FCF7CDF90028F7D110BD70B50D4694
:1048D000044600F006F821462846BDE87040AFF3D4
:1048E0000080243100F58660FCF7E0B82DE9F8433C
:1048F00001261D4F002400F5866800F1240540467E
:10490000FCF705F98DF800000A2809D00D2809D018
:10491000082812D07F2810D00028F0D0ACB119E0C0
:104920000D28ECD126B111A202212846FCF702F98C
:10493000002038550C48BDE8F883002CDFD0641EF9
:10494000002EDCD00AA203210AE0532801D03A2825
:1049500000D100263855641C002ED0D06A460121B3
:104960002846FCF7E7F8CAE7711700200D0A000097
:104970000820080070B50D46044640F61C11FBF7F0
:1049800072FC04F124002560FCF7FBF804F5866056
:10499000FCF7F7F8204670BD2DE9F04117460D46AB
:1049A00000F1240613E03046FCF7A9F8A84200D332
:1049B0002846040008D001463A463046FCF7BAF8CB
:1049C00010B12D1B274402E00120FDF771FC002DE2
:1049D000E9D1BDE8F08170B505460C460846FBF705
:1049E0005FFC014622462846BDE87040FFF7D4BF71
:1049F00070B504460079C0070AD040F66A1529460A
:104A00002068FFF7FDFD18B129462068FFF7E8FD93
:104A1000207900071FD5E06930B904F586600546A6
:104A2000FCF76DF8202804D2E068012813D001219A
:104A30000BE0E06900280ED1E06800280BD0284682
:104A4000FCF70EF9202806D200212046E160BDE8DF
:104A50007040FCF7E5BC70BDFEE7000070B5044691
:104A6000104DC0074FF48051284602D0FCF7ACF936
:104A700001E0FCF7A7F9A0074FF40051284602D542
:104A8000FCF7A2F901E0FCF79DF960074FF48041C3
:104A9000284603D5BDE87040FCF796B9BDE87040E4
:104AA000FCF790B9001002400FB4024610B504A9FB
:104AB000034B039800F04CF810BC5DF814FB0000A9
:104AC000B94F02080FB4054B10B503A9044A029868
:104AD00000F03EF810BC5DF814FB0000B94F02086E
:104AE000200000200FB4084B10B504A902AA0398B7
:104AF00000F02EF8044602A9002000F058FA2046E3
:104B000010BC5DF814FB0000AF4F020831B5074C34
:104B100002E00A20FDF7CCFBA0686A4601212430A0
:104B2000FCF708F80028F4D038BD0000040000208D
:104B300002E008C8121F08C1002AFAD17047704766
:104B4000002001E001C1121F002AFBD170470000C4
:104B50002DE9FF4F8DB00F4605460026DEE12528E2
:104B600074D100246D1CF149A246A14601222B7884
:104B7000203B02FA03F0084202D004436D1CF6E722
:104B800028782A2810D06FF02F022878A0F1300161
:104B9000092915D80AEB8A0102EB410144F002040D
:104BA00000EB010A6D1CF0E757F804ABBAF1000FF7
:104BB00003DA44F40054CAF1000A44F002046D1C04
:104BC00028782E2817D115F8010F44F004042A285C
:104BD0000ED06FF02F022878A0F1300109290AD8F1
:104BE00009EB890102EB410100EB01096D1CF2E7C1
:104BF00057F8049B6D1C28786C280FD006DC4C28D5
:104C000017D068280DD06A2814D104E0742810D079
:104C10007A280FD10DE044F400140AE044F4801423
:104C200001E044F440146978814202D16D1C04F51E
:104C300080146D1C2A786E2A20D00DDC632A33D0B4
:104C400005DC002A6FD0582A12D1A2E011E0642AB4
:104C50006AD0692A0CD167E0732A2FD004DC6F2A4E
:104C60006FD0702A04D199E0752A6BD0782A6AD067
:104C70001046DDE90F129047761C4EE1C4F3025056
:104C8000022806D003280AD0042801CF0AD00660E3
:104C900043E101CF4FEAE671C0E900613DE101CF98
:104CA00006803AE1067038E117F8040B8DF8000031
:104CB00000208DF80100EB46012003E057F804BB0B
:104CC0004FF0FF3061074FF0000102D40DE008F112
:104CD0000101884649450FDA8045F8DB1BF80810CA
:104CE0000029F4D108E008F1010188468142FADB8D
:104CF0001BF808100029F6D1DDE90F23AAEB080004
:104D00008146214600F03BF9304400EB080604E000
:104D1000DDE90F121BF8010B9047B8F10108F7D23B
:104D200021464846F4E0FDE00A21C4F302534FF067
:104D3000000B0891022B07D001CFC117032B09D01C
:104D40000AE034E023E024E0FF1D27F00707F7E83E
:104D5000020105E000B2C117042B01D140B2C11716
:104D6000002907DA4FF0000CD0EB0C006CEB0101CE
:104D70002D2302E0230504D52B238DF824300123B5
:104D800003E0E30701D02023F7E7984650E00A212B
:104D90000EE010204FF0000B08900CE010214FF0B7
:104DA000000B44F004044FF00809089103E00821C7
:104DB0004FF0000B0891C4F30253022B04D001CF33
:104DC0000021032B06D006E0FF1D27F00707F7E8B8
:104DD000020103E080B2042B00D1C0B24FF0000802
:104DE000230725D5702A2AD0DDF820C08CF0100CBE
:104DF0005CEA0B0C09D150EA010306D030238DF890
:104E000024308DF8252002239846DDF820C08CF050
:104E1000080C5CEA0B0C0BD150EA010301D16307CB
:104E200006D530238DF824304FF00108A9F101098F
:104E3000582A09D03EA20B9208AA0A9211E04023F8
:104E40008DF824300123DFE73EA2F4E75B46089AA1
:104E5000FBF777FB0B9B9B5C0A9AA2F101020A927B
:104E6000137050EA0102F1D10A98ADEB000000F195
:104E7000200B600702D524F4803401E04FF00109D3
:104E8000D94502DDA9EB0B0000E0002000EB0B018F
:104E900041440890AAEB010AE00306D4DDE90F23A0
:104EA0002146504600F06BF80644002008E009A9AE
:104EB00011F80900DDE90F129047761C09F1010095
:104EC00081464045F3DBE0030CD5DDE90F232146A5
:104ED000504600F054F8064404E0DDE90F1230209B
:104EE0009047761C0899481E08900029F5DC08E0D8
:104EF0000A980A990078491C0A91DDE90F12904737
:104F0000761CBBF10001ABF1010BF1DC21465046F0
:104F1000DDE90F2300F020F806446D1C28780028F6
:104F20007FF41DAE11B03046BDE8F08F09280100B6
:104F3000303132333435363738396162636465660F
:104F400000000000303132333435363738394142D1
:104F500043444546000000002DE9F0410446002589
:104F60001E461746880405D406E039462020B0477F
:104F700005F10105641EF8D52846BDE8F0812DE94C
:104F8000F041044600251E469046C80301D530274F
:104F900000E02027880405D506E041463846B047A2
:104FA00005F10105641EF8D52846BDE8F0810A68C0
:104FB000531C0B601070704770B5084D04460A28EA
:104FC00005D128690D2802D00D20FFF79FFDE0B222
:104FD0002C61FFF79BFD204670BD000004000020FF
:104FE0001CB5044611A0FFF76DFDE068009094E841
:104FF0000E0012A0FFF766FDE069009010341AA0C1
:105000000ECCFFF75FFD2349096822480C38006881
:10501000CDE900011F4810380368001F02681D48D1
:10502000001F01681CA0FFF74DFD1CBD5B486172AD
:1050300064204661756C745D0A0000007230203D8A
:1050400020253038582C207231203D20253038580A
:105050002C207232203D20253038582C20723320ED
:105060003D20253038580A007231323D2025303835
:10507000582C206C72203D20253038582C2070632D
:10508000203D20253038582C207073723D2025306B
:1050900038580A003CED00E0626661723D25303808
:1050A000582C20636673723D253038582C20686672
:1050B00073723D253038582C20646673723D25305C
:1050C00038582C20616673723D253038580A00002C
:1050D0001FB5FEF7C3FFFCF7B9F9FBF79BFC684669
:1050E000FCF736FD01984FF47A71B0FBF1F0401EE9
:1050F0004FF0FF35B0F1807F0AD24FF0E0246061BD
:105100000F212846FCF712FA0020A0610720206139
:10511000464C28462178FCF709FAFBF7ABFD4448DA
:10512000FEF7B4FF4348FFF793F84148FFF72CFB25
:105130004048FFF729FB40A242A14548FFF7C2FCC7
:10514000D4E9021205206368FDF706FCE068D0F898
:105150003C0878B93FA0FFF7B5FC41F28831E06820
:10516000FCF746F8E068FCF7F9F8E068D0F83C088E
:10517000002859D03CA0FFF7A5FCE068FEF752FDDF
:1051800008B140A04EE045A0FFF79CFC48F6B805EA
:105190002946E068FCF7A0FB98B92946E068FCF7CF
:1051A000BDFB70B9E068FCF739FB50B92048052217
:1051B00041A1F038FBF784F828B9E068FCF7FEFA63
:1051C00008B13FA02EE043A0FFF77CFC47A0FFF70B
:1051D00079FCE068534D4EA1D0F84C282846FFF7E3
:1051E00063FCE06850A1D0F850282846FFF75CFC2B
:1051F000E06852A1D0F878286FF0700000EB42030D
:105200002846FFF751FCE06853A1D0F87C282846D7
:10521000FFF74AFCE26855A102F668022846FFF74C
:1052200043FC57A0FFF74EFCFDF70AF804000020EE
:105230007C010020980A002031343A33393A323662
:10524000000000004A756E203138203230313500C0
:105250001C5402085374617274696E67204D6F6448
:10526000656D2E0D0A0000004D6F64656D20496E5E
:10527000697469616C697A6174696F6E0D0A0D0AEF
:10528000000000004D6F64656D206E6F7420696EC4
:10529000697469616C697A65640D0A004E6574779A
:1052A0006F726B20496E697469616C697A696E67A7
:1052B0000D0A0D0A00000000484539313000000099
:1052C0004E6574776F726B206E6F742052656164E7
:1052D000790D0A004E6574776F726B20496E666FA8
:1052E000726D6174696F6E0D0A0000002D2D2D2DF9
:1052F0002D2D2D2D2D2D2D2D2D2D2D2D2D2D2D2DDE
:105300002D2D2D2D2D2D2D2D2D2D0D0A00000000C4
:1053100043656C6C205265673A20202025690D0A90
:1053200000000000785634124461746120526567B1
:105330003A20202025690D0A0000000052535349ED
:105340003A20202020202020256920282564206460
:10535000426D290D0A0000004245523A20202020CB
:105360002020202025690D0A000000004E6574777A
:105370006F726B3A2020202025730D0A0000000078
:105380002D2D2D2D2D2D2D2D2D2D2D2D2D2D2D2D4D
:105390002D2D2D2D2D2D2D2D2D2D2D2D2D2D0D0A80
:1053A0000D0A000070B50C46054609E06D1CFAF7C1
:1053B0003BFF064614F8010BFAF736FF301A09D105
:1053C00028780028F2D1FAF72FFF05462078FAF75F
:1053D0002BFF281A70BD2DE9F04116000D4604463A
:1053E0000CD10020BDE8F081641CFAF71DFF0746D0
:1053F00015F8010BFAF718FF381AF3D1761E002EB4
:1054000002DD20780028EFD12078FAF70DFF04465E
:105410002878FAF709FF201AE4E700000A0A0A4A86
:10542000616E75732052656D6F746520436F6D6D8D
:10543000756E69636174696F6E73202D20544552D7
:105440004D494E55532032202D204261736963200F
:1054500044656D6F6E7374726174696F6E0A46573E
:105460003A2025732025730A0A00000053454E4454
:10547000534D53203120322020202053656E64206C
:10548000534D532054657874204D6573736167657F
:105490003A20313D50686F6E65204E756D626572C1
:1054A0002C20323D5465787420537472696E670DF8
:1054B0000A000000534F434B45544420313A3220F8
:1054C0002020204F70656E206120736F636B6574C0
:1054D00020746F2061206C697374656E696E67203B
:1054E0007365727665723A20313D4950204164649B
:1054F000726573732C20323D506F72740D0A000078
:10550000456E746572696E67205465726D696E616F
:105510006C204D6F64652C205B25645D20536563B2
:105520006F6E647320746F20747970652066697281
:10553000737420636F6D6D616E640D0A54797065CC
:10554000203F20666F722068656C702C205120749B
:105550006F20657869740D0A00DDDDDDDDDCBBBB25
:10556000DDDDDDDDDDDDDDDDDD98888888888888AE
:105570008877777777778888888555555666666601
:1055800066666666666668888883333332222222BE
:1055900022222222222228888D000000BC550208E7
:1055A0000000002064000000304B02082056020872
:1055B0006400002014280000404B02080000000096
:1055C00000000000B41300207C010020980A002095
:1055D00000000000000000000000000000000000CB
:1055E00000000000000000000000000000000000BB
:1055F00000000000041000E0001000E0FCED00E0FE
:1056000000000000000000E0FCED00E000000000F1
:105610000000000001020304010203040607080958
:040000050802019557
:00000001FF
